:1000000045C0000060C000005EC000005CC0000091
:100010005AC0000058C0000056C0000054C0000084
:1000200052C0000050C000004EC000004CC0000094
:100030004AC000007EC0000046C0000044C000006E
:1000400042C0000040C000003EC000003CC00000B4
:100050003AC0000038C0000036C0000034C00000C4
:1000600032C0000030C000002EC000002CC00000D4
:100070002AC0000028C0000026C0000024C00000E4
:1000800022C0000020C000001EC0000011241FBEBE
:10009000CFEFD0E4DEBFCDBF11E0A0E0B1E0E6ECF1
:1000A000F3E000E00BBF02C007900D92A430B1074F
:1000B000D9F721E0A4E0B1E001C01D92A531B2075B
:1000C000E1F7EDD07EC19CCF6093000170930101F8
:1000D00080930201909303016093100170931101CA
:1000E000809312019093130108958BE08093810017
:1000F0008DE790E0909389008093880082E0809360
:100100006F00109285001092840080910001909100
:100110000101A0910201B09103018093100190931D
:100120001101A0931201B09313018FB780688FBFA4
:1001300008951F920F920FB60F9211248F939F93E1
:10014000AF93BF938091100190911101A091120182
:10015000B09113010197A109B10980931001909307
:100160001101A0931201B0931301892B8A2B8B2BC1
:1001700099F481E080931401809100019091010134
:10018000A0910201B091030180931001909311019D
:10019000A0931201B0931301BF91AF919F918F91E2
:1001A0000F900FBE0F901F901895813081F0E1ECF9
:1001B000F0E0808188618083E2ECF0E080818660FD
:1001C000808383E38093C4001092C5000895E9EC16
:1001D000F0E0808188618083EAECF0E080818660D5
:1001E000808383E38093CC001092CD00089581300A
:1001F00029F48091C800882374F008958091C0008C
:1002000088238CF4A6ECB0E0E0ECF0E08C918081E7
:100210008823E4F30895AEECB0E0E8ECF0E08C91D4
:1002200080818823E4F30895813041F0E0ECF0E030
:1002300080818823ECF78091C6000895E8ECF0E017
:1002400080818823ECF78091CE000895CF93DF93CF
:10025000892B61F48091C800082E000C990BC92FDE
:10026000CC1FCC27CC1F80E0D82F02C0C0E0D0E04C
:10027000209721F0C130D10529F00DC080910F01E8
:1002800085B909C081E0D0DF80930F0181E0AFDF45
:1002900080910F0185B9CE01DF91CF9108958FEF45
:1002A00084B915B800E010E0D0E0C0E054E140E0CF
:1002B00030E020E004C0062F172FD82FC92F652F5C
:1002C000742F832F922F202F312F4D2F5C2F57D03B
:1002D000502F412F3D2F2C2F611571058105910560
:1002E00051F764E170E080E090E0202F312F4D2F36
:1002F0005C2F45D0E4E0F1E08FEF808321833283EF
:1003000043835483258336834783508786E291E075
:1003100092878187602F712F8D2F9C2FD5DEE5DE90
:1003200081E043DFC4E0D1E04D815E816F8178855B
:1003300089819A81AB81BC81481759076A077B077D
:1003400061F48881E985FA85082E000C990B0995DE
:1003500088831D821E821F8218868D819E81AF81B7
:10036000B8850196A11DB11D8D839E83AF83B8878B
:10037000809114018823E1F310921401D5CFA1E2FA
:100380001A2EAA1BBB1BFD010DC0AA1FBB1FEE1F0F
:10039000FF1FA217B307E407F50720F0A21BB30B5A
:1003A000E40BF50B661F771F881F991F1A9469F7D6
:1003B00060957095809590959B01AC01BD01CF0132
:0603C0000895F894FFCF40
:0403C6000100000032
:00000001FF
