S01D0000434849505F315F436F6E74726F6C5F53797374656D2E737265632F
S113000060C000007DC000007BC0000079C000001B
S113001077C0000075C0000073C0000071C000000C
S11300206FC000006DC000006BC0000069C000001C
S113003067C000000C94580D63C0000061C000004C
S11300405FC000005DC000005BC0000059C000003C
S113005057C0000055C0000053C0000051C000004C
S11300604FC000004DC000004BC0000049C000005C
S113007047C0000045C0000043C0000041C000006C
S11300803FC000003DC000003BC00000DE02E802AB
S1130090F202FC02060310031A0324032E0338039E
S11300A042034C0361038F03AD03DE036104DC04EC
S11300B07605F1057406EF066807DF0765081B0976
S11300C0930911241FBECFEFD0E4DEBFCDBF13E0F0
S11300D0A0E0B1E0E2E0F2E200E00BBF02C0079072
S11300E00D92A638B107D9F729E0A6E8B3E001C01C
S11300F01D92A03DB207E1F70E94CA0B0C94FF10B9
S11301007FCFCF93DF93EC010E94BB0E2091860337
S113011030918703C9018C0F9D1F8C3D45E09407E6
S113012058F42817390758F4E901C857DC4F90935D
S113013087038093860305C0C0E0D0E002C0C0E01E
S1130140D0E00E94850FCE01DF91CF9108950895EC
S1130150FC010396928381832FEF3FEF3483238343
S1130160968385839087878310820895FC01118686
S113017010860895CF93DF93FC01DB012181328146
S1130180E9018A819B8113969C938E9312978181B6
S1130190928115969C938E9314978A819B81EC018E
S11301A07D836C83E9017B836A83728361831996FF
S11301B0FC93EE93189780818F5F8083DF91CF91BA
S11301C00895CF93DF93EB01488159814F3F2FEF7F
S11301D0520731F4DC011796ED91FC91189717C082
S11301E0FC013396DC0115962D913C911697D901AB
S11301F02D913C914217530750F00280F381E02D7A
S1130200A281B3812D913C9142175307B0F7A2818B
S1130210B381BB83AA831596DC93CE931497FD8395
S1130220EC83D383C28399878887FC0120812F5F65
S11302302083DF91CF910895FC01A281B381848151
S1130240958115969C938E931497A481B581828190
S1130250938113969C938E931297A085B1851196E2
S11302608D919C911297E817F90731F48481958157
S113027012969C938E931197118610868C918150BF
S11302808C930895813081F0E1ECF0E08081886105
S11302908083E2ECF0E080818660808383E3809356
S11302A0C4001092C5000895E9ECF0E080818861F3
S11302B08083EAECF0E080818660808383E380932E
S11302C0CC001092CD000895813029F48091C800AB
S11302D0882374F008958091C00088238CF4A6ECE0
S11302E0B0E0E0ECF0E08C9180818823E4F30895A1
S11302F0AEECB0E0E8ECF0E08C9180818823E4F38C
S11303000895613041F0E0ECF0E0908195FFFDCF7D
S11303108093C6000895E8ECF0E0908195FFFDCF4E
S11303208093CE000895813041F0E0ECF0E08081CC
S11303308823ECF78091C6000895E8ECF0E0808112
S11303408823ECF78091CE000895181619065CF006
S11303500895000021503109E1F74F5F5F4F841782
S1130360950719F4089540E050E027E033E0F1CF19
S11303705E9888B95F9A00005F9882E090E0E5CFCC
S1130380089581E0F5CF0895813118F48158F0CFB4
S113039008958155EDCF089584E690E0D6DF88E393
S11303A0E7DF86E0E5DF8FE0E3DF81E0E1DF8AE09D
S11303B090E0CBCF08955E9A88B95F9A00005F9869
S11303C081E090E0C2CF08950F931F93CF93DF9302
S11303D0182FEB01D6DF8881882351F001E0010F4B
S11303E0812FD2DF8991E7DF102F88818111F6CF29
S11303F0DF91CF911F910F9108958091CF098823A8
S113040021F0813009F486C09FC000991FC080B1DB
S1130410809581FD1BC080B1809582FD17C080B19D
S1130420809583FD13C080B1809584FD0FC0299A07
S113043080917009813019F41092700903C081E031
S11304408093700981E08093CF090895009B17C0C1
S113045080B1809581FF13C080B1809582FD0FC06B
S113046080B1809583FD0BC080B1809584FD07C069
S1130470299A81E080936F098093CF090895009BA6
S113048017C080B1809581FD13C080B1809582FF33
S11304900FC080B1809583FD0BC080B1809584FD31
S11304A007C0299A81E080936E098093CF0908954B
S11304B0009B17C080B1809581FD13C080B18095E9
S11304C082FD0FC080B1809583FF0BC080B1809501
S11304D084FD07C0299A81E080936D098093CF0938
S11304E00895009B33C080B1809581FD2FC080B1F9
S11304F0809582FD2BC080B1809583FD27C080B19B
S1130500809584FF23C0299A81E080936C098093AD
S1130510CF0908952998009B10C080B1809581FD72
S11305200CC080B1809582FD08C080B1809583FDA8
S113053004C080B1809584FF04C081E08093CF091A
S113054008951092CF0908951092CF09089510923A
S1130550CF0953DF8AE090E00E940910FACFAF92EE
S1130560BF92CF92DF92EF92FF920F93A12CB12C06
S1130570C12CD12CE12CF12C082F20E030E045E5F2
S113058050E064E071E087EA92E00E94910D0F91DF
S1130590FF90EF90DF90CF90BF90AF900895CF93EE
S11305A02091CE09822F90E0FC013397EC30F105C5
S11305B008F07CC0EA5BFF4F0C94CA108091680974
S11305C09091690901969093690980936809F6C02E
S11305D080916809909169090196909369098093C3
S11305E068096FC180916809909169090196909397
S11305F0690980936809E0C180916809909169094B
S11306000196909369098093680970C28091680982
S11306109091690901969093690980936809E1C2F0
S11306208091680990916909019690936909809372
S113063068095AC380916809909169090196909359
S1130640690980936809CBC380916809909169090D
S1130650019690936909809368093AC48091680966
S11306609091690901969093690980936809A7C4D8
S11306708091680990916909019690936909809322
S1130680680923C58091680990916909019690933E
S1130690690980936809CFC58091680990916909B7
S11306A0019690936909809368093DC6822F90E072
S11306B08F30910508F0B6C6FC01EE5AFF4F0C943A
S11306C0CA1080917009811117C0109269091092A3
S11306D068096FE071E081E077DE81E255DE109217
S11306E06F0910926E0910926D0910926C0915B879
S11306F082E08093CE0998C66DE271E081E064DE09
S113070081E242DE10926F0910926E0910926D0917
S113071010926C0981E085B98093CE0985C68091D9
S11307200001811108C082E08093000110927009D9
S11307301092CE0979C6059B09C080916509813064
S113074029F4109270091092CE096EC68091700936
S113075081116AC61092CE0967C68091000181306A
S113076049F482E08093000181E080937009109243
S1130770CE095AC680917009813031F41092CE09A5
S113078082E08093000150C680916C09813009F0A9
S11307904BC6109269091092680967E471E014DE8F
S11307A081E2F2DD10926F0910926E0910926D09C8
S11307B010926C0983E08093CE0936C68091680953
S11307C090916909843F9140B0F0109269091092A8
S11307D0680910926F0910926E0910926D091092B7
S11307E06C096FE071E081E0EFDD81E2CDDD82E054
S11307F08093CE0919C680910001813049F482E0CA
S11308008093000181E0809370091092CE090CC698
S113081080917009813031F482E08093000110925C
S1130820CE0902C680916C098130A9F4109269093D
S11308301092680910926F0910926E0910926D0956
S113084010926C096FE571E0BFDD81E29DDD87E008
S11308508093CE09E9C580916D098130A9F4109285
S113086069091092680910926F0910926E0910922A
S11308706D0910926C096FE071E0A6DD81E284DD00
S113088082E08093CE09D0C580916F098130A9F4AC
S1130890109269091092680910926F0910926E09FA
S11308A010926D0910926C0967E771E08DDD81E2A9
S11308B06BDD84E08093CE09B7C583E08093CE09D5
S11308C0B3C58091680990916909843F9140C0F053
S11308D0109269091092680910926F0910926E09BA
S11308E010926D0910926C096FE071E081E06CDD8B
S11308F081E24ADD82E0809300018093CE0994C5B1
S113090080916C098130A9F41092690910926809E8
S113091010926F0910926E0910926D0910926C0971
S113092068E971E051DD81E22FDD85E08093CE0935
S11309307BC580916F098130F9F41092660960E0FB
S113094081E090E00E94F110109269091092680908
S113095010926F0910926E0910926D0910926C0931
S11309606FE071E081E030DD81E20EDD82E08093B2
S113097000018093CE0958C580916E098130C1F47D
S1130980109269091092680910926F0910926E0909
S113099010926D0910926C0967E471E015DD81E233
S11309A0F3DC82E08093000183E08093CE093CC5B0
S11309B084E08093CE0938C58091680990916909D3
S11309C0843F9140C0F01092690910926809109216
S11309D06F0910926E0910926D0910926C096FE004
S11309E071E081E0F1DC81E2CFDC82E08093000100
S11309F08093CE0919C580916C098130C1F410929D
S1130A0069091092680910926F0910926E09109288
S1130A106D0910926C0969EB71E0D6DC81E2B4DCFB
S1130A2082E08093000186E08093CE09FDC480912A
S1130A306D098130C1F4109269091092680910920D
S1130A406F0910926E0910926D0910926C0967E794
S1130A5071E0BADC81E298DC82E08093000184E0FA
S1130A608093CE09E1C480916F098130F9F48093B9
S1130A70660961E081E090E00E94F110109269093A
S1130A801092680910926F0910926E0910926D0904
S1130A9010926C096FE071E081E096DC81E274DC15
S1130AA082E0809300018093CE09BEC480916E09D8
S1130AB08130C1F4109269091092680910926F098B
S1130AC010926E0910926D0910926C0967E471E03E
S1130AD07BDC81E259DC82E08093000183E0809337
S1130AE0CE09A2C485E08093CE099EC48091680992
S1130AF090916909843F9140C0F010926909109265
S1130B00680910926F0910926E0910926D09109283
S1130B106C096FE071E081E057DC81E235DC82E052
S1130B20809300018093CE097FC480916D09813048
S1130B30A9F4109269091092680910926F09109231
S1130B406E0910926D0910926C0968E971E03CDC41
S1130B5081E21ADC85E08093CE0966C480916F0936
S1130B608130F9F4C2E0C093660962E081E090E06C
S1130B700E94F110109269091092680910926F098D
S1130B8010926E0910926D0910926C096FE071E079
S1130B9081E01ADC81E2F8DBC0930001C093CE0946
S1130BA043C480916E098130C1F410926909109296
S1130BB0680910926F0910926E0910926D091092D3
S1130BC06C0967E471E000DC81E2DEDB82E08093A3
S1130BD0000183E08093CE0927C486E08093CE0988
S1130BE023C48091680990916909843F9140B0F0D1
S1130BF0109269091092680910926F0910926E0997
S1130C0010926D0910926C096FE071E081E0DCDBF9
S1130C1081E2BADB82E08093CE0906C480910001B0
S1130C20813049F482E08093000181E0809370096F
S1130C301092CE09F9C380917009813031F482E0B9
S1130C40809300011092CE09EFC380916C0981302A
S1130C50A9F4109269091092680910926F09109210
S1130C606E0910926D0910926C096AED71E0ACDBAB
S1130C7081E28ADB8CE08093CE09D6C380916D0932
S1130C808130A9F4109269091092680910926F09D1
S1130C9010926E0910926D0910926C0967E471E06C
S1130CA093DB81E271DB83E08093CE09BDC3809145
S1130CB06F098130A9F410926909109268091092A1
S1130CC06F0910926E0910926D0910926C0963EF0E
S1130CD071E07ADB81E258DB88E08093CE09A4C31B
S1130CE087E08093CE09A0C3809168099091690937
S1130CF0843F9140C0F010926909109268091092E3
S1130D006F0910926E0910926D0910926C096FE0D0
S1130D1071E081E059DB81E237DB82E080930001FE
S1130D208093CE0981C380916F098130F9F41092C8
S1130D30670960E080E090E00E94F1101092690978
S1130D401092680910926F0910926E0910926D0941
S1130D5010926C096FE071E081E036DB81E214DB14
S1130D6082E0809300018093CE095EC380916E0976
S1130D708130C1F4109269091092680910926F09C8
S1130D8010926E0910926D0910926C096FE571E072
S1130D901BDB81E2F9DA82E08093000187E0809333
S1130DA0CE0942C380916C098130A9F4109269097B
S1130DB01092680910926F0910926E0910926D09D1
S1130DC010926C0960E172E0FFDA81E2DDDA89E019
S1130DD08093CE0929C388E08093CE0925C38091EE
S1130DE0680990916909843F9140C0F010926909A3
S1130DF01092680910926F0910926E0910926D0991
S1130E0010926C096FE071E081E0DEDA81E2BCDA15
S1130E1082E0809300018093CE0906C380916F091C
S1130E208130F9F48093670961E080E090E00E94EA
S1130E30F110109269091092680910926F091092CA
S1130E406E0910926D0910926C096FE071E081E0F7
S1130E50BBDA81E299DA82E0809300018093CE09C3
S1130E60E3C280916E098130C1F410926909109235
S1130E70680910926F0910926E0910926D09109210
S1130E806C096FE571E0A0DA81E27EDA82E080939A
S1130E90000187E08093CE09C7C280916D0981303B
S1130EA099F4109269091092680910926F091092CE
S1130EB06E0910926D0963EF71E086DA81E264DAFB
S1130EC088E08093CE09B0C289E08093CE09ACC299
S1130ED08091680990916909843F9140C0F0109213
S1130EE069091092680910926F0910926E091092A4
S1130EF06D0910926C096FE071E081E065DA81E2BE
S1130F0043DA82E0809300018093CE098DC2809100
S1130F100001813049F482E08093000181E08093F4
S1130F2070091092CE0980C280917009813031F429
S1130F3082E0809300011092CE0976C280916D09FF
S1130F408130A9F4109269091092680910926F090E
S1130F5010926E0910926D0910926C096AED71E09D
S1130F6033DA81E211DA8CE08093CE095DC280919C
S1130F706C09813001F51092690910926809109288
S1130F806F0910926E0910926D0910926C0980918C
S1130F906509813031F46DE272E016DA81E2F4D948
S1130FA006C066E472E081E00FDA81E2EDD98BE0FD
S1130FB08093CE0939C28AE08093CE0935C28091EC
S1130FC0680990916909843F9140C0F010926909C1
S1130FD01092680910926F0910926E0910926D09AF
S1130FE010926C096FE071E081E0EED981E2CCD916
S1130FF082E0809300018093CE0916C280910001A3
S1131000813049F482E08093000181E0809370098B
S11310101092CE0909C280917009813031F482E0C6
S1131020809300011092CE09FFC180916D09813037
S113103009F047C0109269091092680910926F096B
S113104010926E0910926D0910926C0980916709D3
S113105081111AC080916609811107C063E672E0AC
S113106081E0B2D981E290D928C0813031F460E8BE
S113107072E0AAD981E288D920C06DE972E081E0EA
S1131080A3D981E281D919C080916609811107C071
S11310906AEB72E081E098D981E276D90EC08130A2
S11310A031F467ED72E090D981E26ED906C064EF45
S11310B072E081E089D981E267D98AE08093CE0920
S11310C0B3C18BE08093CE09AFC180916809909140
S11310D06909843F9140B0F010926909109268093F
S11310E010926F0910926E0910926D0910926C099A
S11310F06FE071E081E068D981E246D982E08093B3
S1131100CE0992C180910001813049F482E080933C
S1131110000181E0809370091092CE0985C180910D
S11311207009813031F482E0809300011092CE097D
S11311307BC180916C09813009F047C01092690924
S11311401092680910926F0910926E0910926D093D
S113115010926C098091670981111AC08091660907
S1131160811107C063E672E081E02ED981E20CD9D7
S113117028C0813031F460E872E026D981E204D9D4
S113118020C06DE972E081E01FD981E2FDD819C069
S113119080916609811107C06AEB72E081E014D97D
S11311A081E2F2D80EC0813031F467ED72E00CD9DF
S11311B081E2EAD806C064EF72E081E005D981E2F9
S11311C0E3D88AE08093CE092FC180916D098130E4
S11311D0A9F4109269091092680910926F0910928B
S11311E06E0910926D0910926C096FE571E0ECD8EC
S11311F081E2CAD887E08093CE0916C180916F0935
S11312008130A9F4109269091092680910926F094B
S113121010926E0910926D0910926C0961E173E0ED
S1131220D3D881E2B1D88DE08093CE09FDC08CE0A3
S11312308093CE09F9C08091680990916909843F2F
S11312409140C0F0109269091092680910926F09D8
S113125010926E0910926D0910926C096FE071E0A2
S113126081E0B2D881E290D882E08093000180933B
S1131270CE09DAC080916F098130F1F48093650959
S113128061E082E090E0ADD710926909109268099C
S113129010926F0910926E0910926D0910926C09E8
S11312A06FE071E081E090D881E26ED882E08093B3
S11312B000018093CE09B8C080916E098130C1F4D9
S11312C0109269091092680910926F0910926E09C0
S11312D010926D0910926C096AED71E075D881E283
S11312E053D882E0809300018CE08093CE099CC0A7
S11312F080916C09813099F41092690910926809FF
S113130010926F0910926E0910926C0962E373E0F7
S11313105BD881E239D88EE08093CE0985C08DE018
S11313208093CE0981C08091680990916909843FB6
S11313309140C0F0109269091092680910926F09E7
S113134010926E0910926D0910926C096FE071E0B1
S113135081E03AD881E218D882E08093000180933A
S1131360CE0962C080916F098130F9F41092650949
S113137060E082E090E035D7109269091092680924
S113138010926F0910926E0910926D0910926C09F7
S11313906FE071E081E018D881E20E94C40182E02C
S11313A0809300018093CE093FC080916E09813003
S11313B0D1F4109269091092680910926F09109281
S11313C06E0910926D0910926C096AED71E00E9429
S11313D0E40181E20E94C40182E0809300018CE078
S11313E08093CE0921C080916D098130B9F41092A7
S11313F069091092680910926F0910926E0910928F
S11314006D0910926C0961E173E00E94E40181E2CC
S11314100E94C4018DE08093CE0906C08EE08093C3
S1131420CE0902C01092CE09CF9108951092CE0930
S1131430B6D88AE090E0EDD5FBCFAF92BF92CF92C1
S1131440DF92EF92FF920F93A12CB12CC12CD12CDF
S1131450E12CF12C082F20E030E045E550E063E575
S113146073E086E19AE05DD30F91FF90EF90DF90F7
S1131470CF90BF90AF9008958091CD09882321F03B
S1131480813009F4B4C0B8C080917009811157C08B
S113149080916709811129C08091660981110BC06F
S11314A080910101811103C010926A09ACC080E1EE
S11314B080936A09A8C0813061F48091010181118F
S11314C004C082E080936A099EC082E180936A0925
S11314D09AC080910101811104C084E080936A095B
S11314E092C084E180936A098EC08091660981115B
S11314F00CC080910101811104C088E080936A09C5
S113150082C088E180936A097EC0813061F4809151
S11315100101811104C08AE080936A0974C08AE1E0
S113152080936A0970C080910101811104C08CE02C
S113153080936A0968C08CE180936A0964C08091D1
S1131540670981112AC08091660981110CC08091BC
S11315500101811104C081E080936A0954C081E8CB
S113156080936A0950C0813061F480910101811136
S113157004C083E080936A0946C083E880936A09C3
S113158042C080910101811104C085E080936A0901
S11315903AC085E880936A0936C080916609811152
S11315A00CC080910101811104C089E080936A0913
S11315B02AC089E880936A0926C0813061F4809149
S11315C00101811104C08BE080936A091CC08BE87F
S11315D080936A0918C080910101811104C08DE0D3
S11315E080936A0910C08DE880936A090CC060E09A
S11315F080916A090E9481018091CD09882319F0A4
S1131600813049F00FC08091C00085FF0DC081E09A
S11316108093CD0908958091C00086FF05C0109283
S1131620CD0908951092CD0908951092CD0924DFB3
S11316308AE090E0EED4FBCFAF92BF92CF92DF92DC
S1131640EF92FF920F93A12CB12CC12CD12CE12C41
S1131650F12C082F20E030E045E550E06FE573E021
S113166085E19BE05ED20F91FF90EF90DF90CF90E9
S1131670BF90AF9008958091CB09813041F480E010
S11316800E94930180936B0980E00E946401809121
S1131690CB09882319F01092CB0908958091C000DA
S11316A088231CF481E08093CB0908951092CB0920
S11316B0E2DF8AE090E0ADD4FBCFAF92BF92CF924D
S11316C0DF92EF92FF920F93A12CB12CC12CD12C5D
S11316D0E12CF12C082F20E030E045E550E060E7F4
S11316E073E086E59BE01DD20F91FF90EF90DF90B1
S11316F0CF90BF90AF9008958091CC098130A9F428
S11317000E949301809364098F3021F481E08093D7
S1131710000108C0803F19F41092000103C082E068
S11317208093000181E00E9464018091CC098823A8
S113173019F01092CC0908958091C80088231CF4F4
S113174081E08093CC0908951092CC09D5DF8AE01A
S113175090E05FD4FBCFAF92BF92CF92DF92EF9233
S1131760FF920F93A12CB12CC12CD12CE12CF12C84
S1131770082F20E030E045E550E06CE673E084EAB1
S11317809BE0CFD10F91FF90EF90DF90CF90BF906F
S1131790AF90089511B88FEF82B987B918B88AB994
S11317A01BB884B915B880E090E013D5809367091D
S11317B081E090E00ED58093660982E090E009D53F
S11317C0809365090E94CC016BE773E081E00E947D
S11317D0E40181E20E94C40180E00E94420181E0B0
S11317E00E94420181E00E94AF0281E026DE81E096
S11317F023DF81E062DF81E0AEDF94D280E090E01D
S1131800089531E1FC013083319722E2208331973E
S1131810A3E3A0833197608331977083319710825B
S1131820319760E8608331971082319762E060837A
S1131830319763E06083319764E06083319765E0BA
S11318406083319766E06083319767E06083319706
S113185068E06083319769E06083319760E1608379
S113186031973083319732E13083319733E13083DC
S1131870319734E13083319735E13083319736E164
S11318803083319737E13083319738E130833197B2
S113189039E13083319730E23083319731E230835C
S11318A031972083319723E2208331974083319706
S11318B05083319726E22083319727E220833197A2
S11318C028E22083319729E22083319720E3208383
S11318D0319721E3208386970895109289008CE73D
S11318E0809388008BE080938100EFE6F0E08081B4
S11318F082608083A091C909B091CA09CD91CDBFFE
S1131900DD91DEBFFF91EF91DF91CF91BF91AF9158
S11319109F918F917F916F915F914F913F912F9103
S11319201F910F91FF90EF90DF90CF90BF90AF90F9
S11319309F908F907F906F905F904F903F902F90EB
S11319401F900F900FBE0F90089581E008950F929D
S11319500FB6F8940F921F9211242F923F924F9238
S11319605F926F927F928F929F92AF92BF92CF922B
S1131970DF92EF92FF920F931F932F933F934F9316
S11319805F936F937F938F939F93AF93BF93CF9303
S1131990DF93EF93FF93A091C909B091CA090DB6E3
S11319A00D920EB60D928AD3A091C909B091CA09BD
S11319B0CD91CDBFDD91DEBFFF91EF91DF91CF914E
S11319C0BF91AF919F918F917F916F915F914F9153
S11319D03F912F911F910F91FF90EF90DF90CF9047
S11319E0BF90AF909F908F907F906F905F904F903B
S11319F03F902F901F900F900FBE0F9008950F925D
S1131A000FB6F8940F921F9211242F923F924F9287
S1131A105F926F927F928F929F92AF92BF92CF927A
S1131A20DF92EF92FF920F931F932F933F934F9365
S1131A305F936F937F938F939F93AF93BF93CF9352
S1131A40DF93EF93FF93A091C909B091CA090DB632
S1131A500D920EB60D9295D131D3A091C909B091D2
S1131A60CA09CD91CDBFDD91DEBFFF91EF91DF912A
S1131A70CF91BF91AF919F918F917F916F915F9122
S1131A804F913F912F911F910F91FF90EF90DF9015
S1131A90CF90BF90AF909F908F907F906F905F900A
S1131AA04F903F902F901F900F900FBE0F9008956E
S1131AB0A6DF1895CF93DF93EC01E091C909F0916B
S1131AC0CA09938382838091790990917A09C8170E
S1131AD0D90768F46091C9097091CA0980918F0986
S1131AE0909190096E5F7F4F0E94E10017C0609152
S1131AF0C9097091CA0980919109909192096E5F08
S1131B007F4F0E94E1008091020190910301C81768
S1131B10D90720F4D0930301C0930201DF91CF9140
S1131B2008954F925F926F927F928F929F92AF929D
S1131B30BF92CF92DF92EF92FF920F931F93CF93B6
S1131B40DF935C014B013A01290181E290E00E949C
S1131B508100EC01892B09F4D3C0C114D10409F02C
S1131B60CBC0C3010E948100988F8F8B009721F412
S1131B70CE010E94A700C4C0A30165EA70E013D39C
S1131B809301215031098F89988D3C01620E731E97
S1131B9048E050E0B401CE0149960CD318A2102FAE
S1131BA0043008F013E01E8B6E0182E0C80ED11CD5
S1131BB0C6010E94B600CE010C960E94B600D987D9
S1131BC0C88784E090E0811B91099D878C87DB8B1B
S1131BD0CA8BA201B501C30114DE99838883E11481
S1131BE0F10419F0F701D183C0830FB6F8940F9272
S1131BF080917B098F5F80937B098091C9099091C3
S1131C00CA09892BA9F5D093CA09C093C90980913F
S1131C107B098130E1F585EA99E00E94A8008EEA0B
S1131C2099E00E94A80087EB99E00E94A80080EC4C
S1131C3099E00E94A8008CE999E00E94A80083E939
S1131C4099E00E94A80086E899E00E94A8008DE728
S1131C5099E00E94A8008CE999E0909392098093FE
S1131C60910983E999E09093900980938F090FC0BB
S1131C708091760981110BC0E091C909F091CA09DC
S1131C808689081720F0D093CA09C093C9098E89A0
S1131C9090917809981710F48093780990917109BC
S1131CA09F5F9093710990917709981710F480932E
S1131CB0770990E09C01220F331F220F331F220F5C
S1131CC0331F820F931FB6018B55964F0E94BA00A3
S1131CD00F900FBE80917609882351F0E091C909D5
S1131CE0F091CA098689801728F431DE81E009C0A1
S1131CF081E007C081E005C0D88ECF8AC6013CCF01
S1131D008FEFDF91CF911F910F91FF90EF90DF90B4
S1131D10CF90BF90AF909F908F907F906F905F9087
S1131D204F900895AF92BF92CF92DF92EF92FF92BD
S1131D300F93A12CB12CC12CD12CE12CF12C00E05F
S1131D4020E030E045E550E060E873E085E290E1B2
S1131D50E8DE813041F4F8948093760910927A0990
S1131D6010927909BADD0F91FF90EF90DF90CF9038
S1131D70BF90AF900895809175098F5F8093750926
S1131D8008950F931F93CF93DF9380917509811169
S1131D90B2C08091790990917A09019690937A0959
S1131DA0809379098091790990917A09892B99F521
S1131DB0809191099091920920918F093091900915
S1131DC030939209209391099093900980938F09FD
S1131DD0809172098F5F80937209E0919109F0916B
S1131DE092098081811107C08FEF9FEF90930301C7
S1131DF08093020110C0E0919109F091920905804D
S1131E00F681E02D0680F781E02D82819381909305
S1131E100301809302012091790930917A0980911C
S1131E200201909103012817390708F469C0E09171
S1131E309109F09192098081882399F0E0919109A8
S1131E40F09192090580F681E02DC681D7818A81BF
S1131E509B812091790930917A0928173907F8F480
S1131E6019C08FEF9FEF909303018093020148C044
S1131E70E0919109F09192090580F681E02DC681E7
S1131E80D7818A819B812091790930917A09281719
S1131E90390728F4909303018093020131C08E0125
S1131EA00E5F1F4FC8010E941C018C899D89892BDC
S1131EB021F0CE010C960E941C018E899091770925
S1131EC0981710F48093770990E09C01220F331F38
S1131ED0220F331F220F331F820F931FB8018B551C
S1131EE0964F0E94BA00E0919109F0919209808185
S1131EF08111BECFB6CF809174098F5F809374092E
S1131F00DF91CF911F910F910895CF92DF92EF92BD
S1131F10FF920F931F93CF93DF930FB6F8940F9212
S1131F20809175098150809375098091750981119B
S1131F3062C080917B09811132C060C0D7011596BF
S1131F40ED91FC911697C681D781CE010C960E9423
S1131F501C018E010E5F1F4FC8010E941C018E8957
S1131F6090917709981710F48093770990E09C0179
S1131F70220F331F220F331F220F331F820F931F91
S1131F80B8018B55964F0E94BA00E091C909F091AF
S1131F90CA099E898689981758F0DC2C09C0D12C6F
S1131FA00F2EF6E8EF2EF9E0FF2EF02DCC24C3948B
S1131FB0F70180818111C2CF80917409882379F05F
S1131FC080917409882391F0DCDE8091740981503A
S1131FD080937409809174098111F6CF07C0F1E0F0
S1131FE0DF1621F080917309813039F4109273095E
S1131FF0AEDC81E003C080E001C080E00F900FBE42
S1132000DF91CF911F910F91FF90EF90DF90CF90D0
S11320100895CF93DF93EC01892B99F0ACDE809186
S1132020790990917A09C80FD91F8091C9099091B3
S1132030CA0902960E941C01CE013CDD66DF8111B3
S113204001C085DCDF91CF9108950F2EFDE7EF2EBF
S1132050F9E0FF2EF02DC5EAD9E080917C098823B0
S113206041F189DED7011C9150DF112311F10FB624
S1132070F8940F92D7011596ED91FC91169706816D
S11320801781C80102960E941C0180917B0981502E
S113209080937B0980917C09815080937C090F9007
S11320A00FBEF8018789908D0E94A700C8010E9485
S11320B0A7008881823088F24ADCCFCF80917509ED
S11320C0811113C08091770990E0FC01EE0FFF1F8E
S11320D0EE0FFF1FEE0FFF1F8E0F9F1FFC01EB552E
S11320E0F64F8081882329F01BC081E08093730917
S11320F008958091770981508093770980917709B9
S113210090E0FC01EE0FFF1FEE0FFF1FEE0FFF1F0D
S11321108E0F9F1FFC01EB55F64F8081882349F3F6
S11321208091770990E09C01220F331F220F331F07
S1132130220F331F280F391FD901AB55B64F119603
S1132140ED91FC9112970280F381E02D1296FC939D
S1132150EE9311972855364FE217F30729F422819D
S11321603381FD0132832183FC01EE0FFF1FEE0F4B
S1132170FF1FEE0FFF1F8E0F9F1FFC01EB55F64F45
S11321800180F281E02D868197819093CA09809322
S1132190C9090895EE0FFF1F0024001C0BBE079011
S11321A0F691E02D0994DC0101C06D93415050403B
S11321B0E0F70895FB01DC014150504048F00190E4
S11321C00D920020C9F701C01D9241505040E0F724
S11321D00895F999FECF92BD81BDF89A992780B5EB
S11321E00895262FF999FECF1FBA92BD81BD20BD57
S11321F00FB6F894FA9AF99A0FBE01960895F894D6
S1052200FFCF0A
S11322020201FFFF427574746F6E5461736B004474
S11322126F672053797374656D2069732020204F92
S1132222464620574F4F4620574F4F4600446F674C
S11322322053797374656D206973204F4E574F4F45
S11322424620574F4F4600446F672074696D696E8C
S11322526720202020202073657474696E6700440F
S11322626F67206261726B2020202020202020735F
S1132272657474696E670044656C61792061637486
S113228269766174696F6E6279202D3E352C313026
S11322922C3135207365630044656C617920616378
S11322A27469766174696F6E627920352C2D3E31C2
S11322B2302C3135207365630044656C617920618B
S11322C2637469766174696F6E627920352C31307A
S11322D22C2D3E3135207365630050657269706838
S11322E26572616C20202020202053657474696E0D
S11322F26773002D3E4D696E6F72204261726B20CE
S113230220202020204D616A6F72204261726B008E
S113231220204D696E6F72204261726B2020202052
S11323222D3E4D616A6F72204261726B005065727C
S11323326970686572616C202020202020617265BA
S11323422075736564005065726970686572616CAA
S1132352202020202020617265206E6F7420757306
S11323626564004261726B2044656C61792035209A
S11323727365634261726B203D204D696E6F72001A
S11323824261726B2044656C6179203130736563FC
S11323924261726B203D204D696E6F720042617220
S11323A26B2044656C6179203135736563426172D7
S11323B26B203D204D696E6F72004261726B204446
S11323C2656C61792035207365634261726B203DCF
S11323D2204D616A6F72004261726B2044656C61C8
S11323E2792031307365634261726B203D204D6107
S11323F26A6F72004261726B2044656C61792031AC
S1132402357365634261726B203D204D616A6F7260
S1132412002D3E5065726970686572616C204F6E62
S11324222020205065726970686572616C204F6665
S1132432660020205065726970686572616C204F75
S11324426E202D3E5065726970686572616C204F12
S11324526666004D454E555365635461736B005473
S113246272616E735365635461736B00426C75657C
S11324725265635365635461736B0054455354004E
S109248249444C45000032
S9030000FC
