:1000000060C000007DC000007BC0000079C000001F
:1000100077C0000075C0000073C0000071C0000010
:100020006FC000006DC000006BC0000069C0000020
:1000300067C000000C94580D63C0000061C0000050
:100040005FC000005DC000005BC0000059C0000040
:1000500057C0000055C0000053C0000051C0000050
:100060004FC000004DC000004BC0000049C0000060
:1000700047C0000045C0000043C0000041C0000070
:100080003FC000003DC000003BC00000DE02E802AF
:10009000F202FC02060310031A0324032E033803A2
:1000A00042034C0361038F03AD03DE036104DC04F0
:1000B0007605F1057406EF066807DF0765081B097A
:1000C000930911241FBECFEFD0E4DEBFCDBF13E0F4
:1000D000A0E0B1E0E2E0F2E200E00BBF02C0079076
:1000E0000D92A438B107D9F729E0A4E8B3E001C024
:1000F0001D92AE3CB207E1F70E94CA0B0C94FF10B0
:100100007FCFCF93DF93EC010E94BB0E209184033D
:1001100030918503C9018C0F9D1F8C3D45E09407EC
:1001200058F42817390758F4E901CA57DC4F90935F
:1001300085038093840305C0C0E0D0E002C0C0E026
:10014000D0E00E94850FCE01DF91CF9108950895F0
:10015000FC010396928381832FEF3FEF3483238347
:10016000968385839087878310820895FC0111868A
:1001700010860895CF93DF93FC01DB01218132814A
:10018000E9018A819B8113969C938E9312978181BA
:10019000928115969C938E9314978A819B81EC0192
:1001A0007D836C83E9017B836A8372836183199603
:1001B000FC93EE93189780818F5F8083DF91CF91BE
:1001C0000895CF93DF93EB01488159814F3F2FEF83
:1001D000520731F4DC011796ED91FC91189717C086
:1001E000FC013396DC0115962D913C911697D901AF
:1001F0002D913C914217530750F00280F381E02D7E
:10020000A281B3812D913C9142175307B0F7A2818F
:10021000B381BB83AA831596DC93CE931497FD8399
:10022000EC83D383C28399878887FC0120812F5F69
:100230002083DF91CF910895FC01A281B381848155
:10024000958115969C938E931497A481B581828194
:10025000938113969C938E931297A085B1851196E6
:100260008D919C911297E817F90731F4848195815B
:1002700012969C938E931197118610868C918150C3
:100280008C930895813081F0E1ECF0E08081886109
:100290008083E2ECF0E080818660808383E380935A
:1002A000C4001092C5000895E9ECF0E080818861F7
:1002B0008083EAECF0E080818660808383E3809332
:1002C000CC001092CD000895813029F48091C800AF
:1002D000882374F008958091C00088238CF4A6ECE4
:1002E000B0E0E0ECF0E08C9180818823E4F30895A5
:1002F000AEECB0E0E8ECF0E08C9180818823E4F390
:100300000895613041F0E0ECF0E0908195FFFDCF81
:100310008093C6000895E8ECF0E0908195FFFDCF52
:100320008093CE000895813041F0E0ECF0E08081D0
:100330008823ECF78091C6000895E8ECF0E0808116
:100340008823ECF78091CE000895181619065CF00A
:100350000895000021503109E1F74F5F5F4F841786
:10036000950719F4089540E050E027E033E0F1CF1D
:100370005E9888B95F9A00005F9882E090E0E5CFD0
:10038000089581E0F5CF0895813118F48158F0CFB8
:1003900008958155EDCF089584E690E0D6DF88E397
:1003A000E7DF86E0E5DF8FE0E3DF81E0E1DF8AE0A1
:1003B00090E0CBCF08955E9A88B95F9A00005F986D
:1003C00081E090E0C2CF08950F931F93CF93DF9306
:1003D000182FEB01D6DF8881882351F001E0010F4F
:1003E000812FD2DF8991E7DF102F88818111F6CF2D
:1003F000DF91CF911F910F9108958091CD098823AE
:1004000021F0813009F486C09FC000991FC080B1DF
:10041000809581FD1BC080B1809582FD17C080B1A1
:10042000809583FD13C080B1809584FD0FC0299A0B
:1004300080916E09813019F410926E0903C081E039
:1004400080936E0981E08093CD090895009B17C0C9
:1004500080B1809581FF13C080B1809582FD0FC06F
:1004600080B1809583FD0BC080B1809584FD07C06D
:10047000299A81E080936D098093CD090895009BAE
:1004800017C080B1809581FD13C080B1809582FF37
:100490000FC080B1809583FD0BC080B1809584FD35
:1004A00007C0299A81E080936C098093CD09089553
:1004B000009B17C080B1809581FD13C080B18095ED
:1004C00082FD0FC080B1809583FF0BC080B1809505
:1004D00084FD07C0299A81E080936B098093CD0940
:1004E0000895009B33C080B1809581FD2FC080B1FD
:1004F000809582FD2BC080B1809583FD27C080B19F
:10050000809584FF23C0299A81E080936A098093B3
:10051000CD0908952998009B10C080B1809581FD78
:100520000CC080B1809582FD08C080B1809583FDAC
:1005300004C080B1809584FF04C081E08093CD0920
:1005400008951092CD0908951092CD090895109242
:10055000CD0953DF8AE090E00E940910FACFAF92F4
:10056000BF92CF92DF92EF92FF920F93A12CB12C0A
:10057000C12CD12CE12CF12C082F20E030E045E5F6
:1005800050E063E071E087EA92E00E94910D0F91E4
:10059000FF90EF90DF90CF90BF90AF900895CF93F2
:1005A0002091CC09822F90E0FC013397EC30F105CB
:1005B00008F07CC0EA5BFF4F0C94CA10809166097A
:1005C0009091670901969093670980936609F6C038
:1005D00080916609909167090196909367098093CD
:1005E00066096FC1809166099091670901969093A1
:1005F000670980936609E0C1809166099091670957
:100600000196909367098093660970C2809166098C
:100610009091670901969093670980936609E1C2FA
:10062000809166099091670901969093670980937C
:1006300066095AC380916609909167090196909363
:10064000670980936609CBC3809166099091670919
:10065000019690936709809366093AC48091660970
:100660009091670901969093670980936609A7C4E2
:10067000809166099091670901969093670980932C
:10068000660923C580916609909167090196909348
:10069000670980936609CFC58091660990916709C3
:1006A000019690936709809366093DC6822F90E07A
:1006B0008F30910508F0B6C6FC01EE5AFF4F0C943E
:1006C000CA1080916E09811117C0109267091092AB
:1006D00066096EE071E081E077DE81E255DE10921E
:1006E0006D0910926C0910926B0910926A0915B885
:1006F00082E08093CC0998C66CE271E081E064DE10
:1007000081E242DE10926D0910926C0910926B0921
:1007100010926A0981E085B98093CC0985C68091E1
:100720000001811108C082E08093000110926E09DF
:100730001092CC0979C6059B09C08091630981306C
:1007400029F410926E091092CC096EC680916E0940
:1007500081116AC61092CC0967C680910001813070
:1007600049F482E08093000181E080936E09109249
:10077000CC095AC680916E09813031F41092CC09AF
:1007800082E08093000150C680916A09813009F0AF
:100790004BC6109267091092660966E471E014DE98
:1007A00081E2F2DD10926D0910926C0910926B09D2
:1007B00010926A0983E08093CC0936C6809166095D
:1007C00090916709843F9140B0F0109267091092B0
:1007D000660910926D0910926C0910926B091092C3
:1007E0006A096EE071E081E0EFDD81E2CDDD82E05B
:1007F0008093CC0919C680910001813049F482E0D0
:100800008093000181E080936E091092CC090CC6A0
:1008100080916E09813031F482E080930001109262
:10082000CC0902C680916A098130A9F41092670947
:100830001092660910926D0910926C0910926B0962
:1008400010926A096EE571E0BFDD81E29DDD87E00F
:100850008093CC09E9C580916B098130A9F410928D
:1008600067091092660910926D0910926C09109236
:100870006B0910926A096EE071E0A6DD81E284DD09
:1008800082E08093CC09D0C580916D098130A9F4B4
:10089000109267091092660910926D0910926C0906
:1008A00010926B0910926A0966E771E08DDD81E2B2
:1008B0006BDD84E08093CC09B7C583E08093CC09DD
:1008C000B3C58091660990916709843F9140C0F05B
:1008D000109267091092660910926D0910926C09C6
:1008E00010926B0910926A096EE071E081E06CDD94
:1008F00081E24ADD82E0809300018093CC0994C5B7
:1009000080916A098130A9F41092670910926609F2
:1009100010926D0910926C0910926B0910926A097D
:1009200067E971E051DD81E22FDD85E08093CC093C
:100930007BC580916D098130F9F41092640960E003
:1009400081E090E00E94F110109267091092660910
:1009500010926D0910926C0910926B0910926A093D
:100960006EE071E081E030DD81E20EDD82E08093B7
:1009700000018093CC0958C580916C098130C1F485
:10098000109267091092660910926D0910926C0915
:1009900010926B0910926A0966E471E015DD81E23C
:1009A000F3DC82E08093000183E08093CC093CC5B6
:1009B00084E08093CC0938C58091660990916709DD
:1009C000843F9140C0F0109267091092660910921E
:1009D0006D0910926C0910926B0910926A096EE011
:1009E00071E081E0F1DC81E2CFDC82E08093000104
:1009F0008093CC0919C580916A098130C1F41092A5
:100A000067091092660910926D0910926C09109294
:100A10006B0910926A0968EB71E0D6DC81E2B4DC04
:100A200082E08093000186E08093CC09FDC4809130
:100A30006B098130C1F41092670910926609109217
:100A40006D0910926C0910926B0910926A0966E7A1
:100A500071E0BADC81E298DC82E08093000184E0FE
:100A60008093CC09E1C480916D098130F9F48093C1
:100A7000640961E081E090E00E94F1101092670942
:100A80001092660910926D0910926C0910926B0910
:100A900010926A096EE071E081E096DC81E274DC1C
:100AA00082E0809300018093CC09BEC480916C09E0
:100AB0008130C1F4109267091092660910926D0995
:100AC00010926C0910926B0910926A0966E471E049
:100AD0007BDC81E259DC82E08093000183E080933B
:100AE000CC09A2C485E08093CC099EC4809166099C
:100AF00090916709843F9140C0F01092670910926D
:100B0000660910926D0910926C0910926B0910928F
:100B10006A096EE071E081E057DC81E235DC82E059
:100B2000809300018093CC097FC480916B09813050
:100B3000A9F4109267091092660910926D0910923B
:100B40006C0910926B0910926A0967E971E03CDC4C
:100B500081E21ADC85E08093CC0966C480916D093E
:100B60008130F9F4C2E0C093640962E081E090E072
:100B70000E94F110109267091092660910926D0997
:100B800010926C0910926B0910926A096EE071E084
:100B900081E01ADC81E2F8DBC0930001C093CC094C
:100BA00043C480916C098130C1F41092670910929E
:100BB000660910926D0910926C0910926B091092DF
:100BC0006A0966E471E000DC81E2DEDB82E08093AA
:100BD000000183E08093CC0927C486E08093CC0990
:100BE00023C48091660990916709843F9140B0F0D9
:100BF000109267091092660910926D0910926C09A3
:100C000010926B0910926A096EE071E081E0DCDB02
:100C100081E2BADB82E08093CC0906C480910001B6
:100C2000813049F482E08093000181E080936E0975
:100C30001092CC09F9C380916E09813031F482E0C1
:100C4000809300011092CC09EFC380916A09813032
:100C5000A9F4109267091092660910926D0910921A
:100C60006C0910926B0910926A0969ED71E0ACDBB6
:100C700081E28ADB8CE08093CC09D6C380916B093A
:100C80008130A9F4109267091092660910926D09DB
:100C900010926C0910926B0910926A0966E471E077
:100CA00093DB81E271DB83E08093CC09BDC380914B
:100CB0006D098130A9F410926709109266091092AB
:100CC0006D0910926C0910926B0910926A0962EF1B
:100CD00071E07ADB81E258DB88E08093CC09A4C321
:100CE00087E08093CC09A0C3809166099091670941
:100CF000843F9140C0F010926709109266091092EB
:100D00006D0910926C0910926B0910926A096EE0DD
:100D100071E081E059DB81E237DB82E08093000102
:100D20008093CC0981C380916D098130F9F41092D0
:100D3000650960E080E090E00E94F1101092670980
:100D40001092660910926D0910926C0910926B094D
:100D500010926A096EE071E081E036DB81E214DB1B
:100D600082E0809300018093CC095EC380916C097E
:100D70008130C1F4109267091092660910926D09D2
:100D800010926C0910926B0910926A096EE571E07D
:100D90001BDB81E2F9DA82E08093000187E0809337
:100DA000CC0942C380916A098130A9F41092670985
:100DB0001092660910926D0910926C0910926B09DD
:100DC00010926A096FE072E0FFDA81E2DDDA89E011
:100DD0008093CC0929C388E08093CC0925C38091F6
:100DE000660990916709843F9140C0F010926709AD
:100DF0001092660910926D0910926C0910926B099D
:100E000010926A096EE071E081E0DEDA81E2BCDA1C
:100E100082E0809300018093CC0906C380916D0924
:100E20008130F9F48093650961E080E090E00E94F0
:100E3000F110109267091092660910926D091092D4
:100E40006C0910926B0910926A096EE071E081E002
:100E5000BBDA81E299DA82E0809300018093CC09C9
:100E6000E3C280916C098130C1F41092670910923D
:100E7000660910926D0910926C0910926B0910921C
:100E80006A096EE571E0A0DA81E27EDA82E08093A1
:100E9000000187E08093CC09C7C280916B09813043
:100EA00099F4109267091092660910926D091092D8
:100EB0006C0910926B0962EF71E086DA81E264DA04
:100EC00088E08093CC09B0C289E08093CC09ACC2A1
:100ED0008091660990916709843F9140C0F010921B
:100EE00067091092660910926D0910926C091092B0
:100EF0006B0910926A096EE071E081E065DA81E2C7
:100F000043DA82E0809300018093CC098DC2809106
:100F10000001813049F482E08093000181E08093F8
:100F20006E091092CC0980C280916E09813031F433
:100F300082E0809300011092CC0976C280916B0907
:100F40008130A9F4109267091092660910926D0918
:100F500010926C0910926B0910926A0969ED71E0A8
:100F600033DA81E211DA8CE08093CC095DC28091A2
:100F70006A09813001F51092670910926609109292
:100F80006D0910926C0910926B0910926A09809198
:100F90006309813031F46CE272E016DA81E2F4D94F
:100FA00006C065E472E081E00FDA81E2EDD98BE002
:100FB0008093CC0939C28AE08093CC0935C28091F4
:100FC000660990916709843F9140C0F010926709CB
:100FD0001092660910926D0910926C0910926B09BB
:100FE00010926A096EE071E081E0EED981E2CCD91D
:100FF00082E0809300018093CC0916C280910001A9
:10100000813049F482E08093000181E080936E0991
:101010001092CC0909C280916E09813031F482E0CE
:10102000809300011092CC09FFC180916B0981303F
:1010300009F047C0109267091092660910926D0975
:1010400010926C0910926B0910926A0980916509DF
:1010500081111AC080916409811107C062E672E0B3
:1010600081E0B2D981E290D928C0813031F46FE7B4
:1010700072E0AAD981E288D920C06CE972E081E0EF
:10108000A3D981E281D919C080916409811107C077
:1010900069EB72E081E098D981E276D90EC08130A7
:1010A00031F466ED72E090D981E26ED906C063EF4B
:1010B00072E081E089D981E267D98AE08093CC0926
:1010C000B3C18BE08093CC09AFC180916609909148
:1010D0006709843F9140B0F0109267091092660949
:1010E00010926D0910926C0910926B0910926A09A6
:1010F0006EE071E081E068D981E246D982E08093B8
:10110000CC0992C180910001813049F482E0809342
:10111000000181E080936E091092CC0985C1809115
:101120006E09813031F482E0809300011092CC0985
:101130007BC180916A09813009F047C0109267092C
:101140001092660910926D0910926C0910926B0949
:1011500010926A098091650981111AC08091640911
:10116000811107C062E672E081E02ED981E20CD9DC
:1011700028C0813031F46FE772E026D981E204D9CA
:1011800020C06CE972E081E01FD981E2FDD819C06E
:1011900080916409811107C069EB72E081E014D984
:1011A00081E2F2D80EC0813031F466ED72E00CD9E4
:1011B00081E2EAD806C063EF72E081E005D981E2FE
:1011C000E3D88AE08093CC092FC180916B098130EC
:1011D000A9F4109267091092660910926D09109295
:1011E0006C0910926B0910926A096EE571E0ECD8F7
:1011F00081E2CAD887E08093CC0916C180916D093D
:101200008130A9F4109267091092660910926D0955
:1012100010926C0910926B0910926A0960E173E0F8
:10122000D3D881E2B1D88DE08093CC09FDC08CE0A9
:101230008093CC09F9C08091660990916709843F39
:101240009140C0F0109267091092660910926D09E2
:1012500010926C0910926B0910926A096EE071E0AD
:1012600081E0B2D881E290D882E08093000180933F
:10127000CC09DAC080916D098130F1F48093630963
:1012800061E082E090E0ADD71092670910926609A4
:1012900010926D0910926C0910926B0910926A09F4
:1012A0006EE071E081E090D881E26ED882E08093B8
:1012B00000018093CC09B8C080916C098130C1F4E1
:1012C000109267091092660910926D0910926C09CC
:1012D00010926B0910926A0969ED71E075D881E28C
:1012E00053D882E0809300018CE08093CC099CC0AD
:1012F00080916A09813099F4109267091092660909
:1013000010926D0910926C0910926A0961E373E002
:101310005BD881E239D88EE08093CC0985C08DE01E
:101320008093CC0981C08091660990916709843FC0
:101330009140C0F0109267091092660910926D09F1
:1013400010926C0910926B0910926A096EE071E0BC
:1013500081E03AD881E218D882E08093000180933E
:10136000CC0962C080916D098130F9F41092630953
:1013700060E082E090E035D710926709109266092C
:1013800010926D0910926C0910926B0910926A0903
:101390006EE071E081E018D881E20E94C40182E031
:1013A000809300018093CC093FC080916C0981300B
:1013B000D1F4109267091092660910926D0910928B
:1013C0006C0910926B0910926A0969ED71E00E9434
:1013D000E40181E20E94C40182E0809300018CE07C
:1013E0008093CC0921C080916B098130B9F41092AF
:1013F00067091092660910926D0910926C0910929B
:101400006B0910926A0960E173E00E94E40181E2D5
:101410000E94C4018DE08093CC0906C08EE08093C9
:10142000CC0902C01092CC09CF9108951092CC093A
:10143000B6D88AE090E0EDD5FBCFAF92BF92CF92C5
:10144000DF92EF92FF920F93A12CB12CC12CD12CE3
:10145000E12CF12C082F20E030E045E550E062E57A
:1014600073E086E19AE05DD30F91FF90EF90DF90FB
:10147000CF90BF90AF9008958091CB09882321F041
:10148000813009F4B4C0B8C080916E09811157C091
:1014900080916509811129C08091640981110BC077
:1014A00080916309811103C010926809ACC080E18A
:1014B00080936809A8C0813061F48091630981112B
:1014C00004C082E0809368099EC082E1809368092D
:1014D0009AC080916309811104C084E080936809F7
:1014E00092C084E1809368098EC080916409811163
:1014F0000CC080916309811104C088E08093680961
:1015000082C088E1809368097EC0813061F4809157
:101510006309811104C08AE08093680974C08AE17C
:101520008093680970C080916309811104C08CE0C8
:101530008093680968C08CE18093680964C08091D9
:10154000650981112AC08091640981110CC08091C4
:101550006309811104C081E08093680954C081E867
:101560008093680950C0813061F4809163098111D2
:1015700004C083E08093680946C083E880936809CB
:1015800042C080916309811104C085E0809368099D
:101590003AC085E88093680936C08091640981115A
:1015A0000CC080916309811104C089E080936809AF
:1015B0002AC089E88093680926C0813061F480914F
:1015C0006309811104C08BE0809368091CC08BE81B
:1015D0008093680918C080916309811104C08DE06F
:1015E0008093680910C08DE8809368090CC060E0A2
:1015F000809168090E9481018091CB09882319F0AC
:10160000813049F00FC08091C00085FF0DC081E09E
:101610008093CB0908958091C00086FF05C0109289
:10162000CB0908951092CB0908951092CB0924DFBD
:101630008AE090E0EED4FBCFAF92BF92CF92DF92E0
:10164000EF92FF920F93A12CB12CC12CD12CE12C45
:10165000F12C082F20E030E045E550E06EE573E026
:1016600085E19BE05ED20F91FF90EF90DF90CF90ED
:10167000BF90AF9008958091C909813041F480E016
:101680000E9493018093690980E00E946401809127
:10169000C909882319F01092C90908958091C000E2
:1016A00088231CF481E08093C90908951092C90928
:1016B000E2DF8AE090E0ADD4FBCFAF92BF92CF9251
:1016C000DF92EF92FF920F93A12CB12CC12CD12C61
:1016D000E12CF12C082F20E030E045E550E06FE6EA
:1016E00073E086E59BE01DD20F91FF90EF90DF90B5
:1016F000CF90BF90AF9008958091CA098130A9F42E
:101700000E949301809362098F3021F481E08093DD
:10171000000108C0803F19F41092000103C082E06C
:101720008093000181E00E9464018091CA098823AE
:1017300019F01092CA0908958091C80088231CF4FA
:1017400081E08093CA0908951092CA09D5DF8AE022
:1017500090E05FD4FBCFAF92BF92CF92DF92EF9237
:10176000FF920F93A12CB12CC12CD12CE12CF12C88
:10177000082F20E030E045E550E06BE673E084EAB6
:101780009BE0CFD10F91FF90EF90DF90CF90BF9073
:10179000AF90089511B88FEF82B987B918B88AB998
:1017A0001BB884B915B880E090E013D58093650923
:1017B00081E090E00ED58093640982E090E009D545
:1017C000809363090E94CC016AE773E081E00E9484
:1017D000E40181E20E94C40180E00E94420181E0B4
:1017E0000E94420181E00E94AF0281E026DE81E09A
:1017F00023DF81E062DF81E0AEDF94D280E090E021
:10180000089531E1FC013083319722E22083319742
:10181000A3E3A0833197608331977083319710825F
:10182000319760E8608331971082319762E060837E
:10183000319763E06083319764E06083319765E0BE
:101840006083319766E06083319767E0608331970A
:1018500068E06083319769E06083319760E160837D
:1018600031973083319732E13083319733E13083E0
:10187000319734E13083319735E13083319736E168
:101880003083319737E13083319738E130833197B6
:1018900039E13083319730E23083319731E2308360
:1018A00031972083319723E220833197408331970A
:1018B0005083319726E22083319727E220833197A6
:1018C00028E22083319729E22083319720E3208387
:1018D000319721E3208386970895109289008CE741
:1018E000809388008BE080938100EFE6F0E08081B8
:1018F00082608083A091C709B091C809CD91CDBF06
:10190000DD91DEBFFF91EF91DF91CF91BF91AF915C
:101910009F918F917F916F915F914F913F912F9107
:101920001F910F91FF90EF90DF90CF90BF90AF90FD
:101930009F908F907F906F905F904F903F902F90EF
:101940001F900F900FBE0F90089581E008950F92A1
:101950000FB6F8940F921F9211242F923F924F923C
:101960005F926F927F928F929F92AF92BF92CF922F
:10197000DF92EF92FF920F931F932F933F934F931A
:101980005F936F937F938F939F93AF93BF93CF9307
:10199000DF93EF93FF93A091C709B091C8090DB6EB
:1019A0000D920EB60D928AD3A091C709B091C809C5
:1019B000CD91CDBFDD91DEBFFF91EF91DF91CF9152
:1019C000BF91AF919F918F917F916F915F914F9157
:1019D0003F912F911F910F91FF90EF90DF90CF904B
:1019E000BF90AF909F908F907F906F905F904F903F
:1019F0003F902F901F900F900FBE0F9008950F9261
:101A00000FB6F8940F921F9211242F923F924F928B
:101A10005F926F927F928F929F92AF92BF92CF927E
:101A2000DF92EF92FF920F931F932F933F934F9369
:101A30005F936F937F938F939F93AF93BF93CF9356
:101A4000DF93EF93FF93A091C709B091C8090DB63A
:101A50000D920EB60D9295D131D3A091C709B091D8
:101A6000C809CD91CDBFDD91DEBFFF91EF91DF9130
:101A7000CF91BF91AF919F918F917F916F915F9126
:101A80004F913F912F911F910F91FF90EF90DF9019
:101A9000CF90BF90AF909F908F907F906F905F900E
:101AA0004F903F902F901F900F900FBE0F90089572
:101AB000A6DF1895CF93DF93EC01E091C709F09171
:101AC000C809938382838091770990917809C81718
:101AD000D90768F46091C7097091C80980918D0990
:101AE00090918E096E5F7F4F0E94E10017C0609158
:101AF000C7097091C80980918F09909190096E5F14
:101B00007F4F0E94E1008091010190910201C8176E
:101B1000D90720F4D0930201C0930101DF91CF9146
:101B200008954F925F926F927F928F929F92AF92A1
:101B3000BF92CF92DF92EF92FF920F931F93CF93BA
:101B4000DF935C014B013A01290181E290E00E94A0
:101B50008100EC01892B09F4D3C0C114D10409F030
:101B6000CBC0C3010E948100988F8F8B009721F416
:101B7000CE010E94A700C4C0A30165EA70E013D3A0
:101B80009301215031098F89988D3C01620E731E9B
:101B900048E050E0B401CE0149960CD318A2102FB2
:101BA000043008F013E01E8B6E0182E0C80ED11CD9
:101BB000C6010E94B600CE010C960E94B600D987DD
:101BC000C88784E090E0811B91099D878C87DB8B1F
:101BD000CA8BA201B501C30114DE99838883E11485
:101BE000F10419F0F701D183C0830FB6F8940F9276
:101BF000809179098F5F809379098091C7099091CD
:101C0000C809892BA9F5D093C809C093C709809149
:101C100079098130E1F583EA99E00E94A8008CEA15
:101C200099E00E94A80085EB99E00E94A8008EEB45
:101C300099E00E94A8008AE999E00E94A80081E941
:101C400099E00E94A80084E899E00E94A8008BE730
:101C500099E00E94A8008AE999E090939009809306
:101C60008F0981E999E090938E0980938D090FC0C7
:101C70008091740981110BC0E091C709F091C809E6
:101C80008689081720F0D093C809C093C7098E89A8
:101C900090917609981710F48093760990916F09C6
:101CA0009F5F90936F0990917509981710F4809336
:101CB000750990E09C01220F331F220F331F220F62
:101CC000331F820F931FB6018D55964F0E94BA00A5
:101CD0000F900FBE80917409882351F0E091C709DD
:101CE000F091C8098689801728F431DE81E009C0A7
:101CF00081E007C081E005C0D88ECF8AC6013CCF05
:101D00008FEFDF91CF911F910F91FF90EF90DF90B8
:101D1000CF90BF90AF909F908F907F906F905F908B
:101D20004F900895AF92BF92CF92DF92EF92FF92C1
:101D30000F93A12CB12CC12CD12CE12CF12C00E063
:101D400020E030E045E550E06FE773E085E290E1A8
:101D5000E8DE813041F4F894809374091092780998
:101D600010927709BADD0F91FF90EF90DF90CF903E
:101D7000BF90AF900895809173098F5F809373092E
:101D800008950F931F93CF93DF938091730981116F
:101D9000B2C0809177099091780901969093780963
:101DA000809377098091770990917809892B99F52B
:101DB00080918F099091900920918D0930918E0921
:101DC0003093900920938F0990938E0980938D0909
:101DD000809170098F5F80937009E0918F09F09175
:101DE00090098081811107C08FEF9FEF90930201CE
:101DF0008093010110C0E0918F09F0919009058056
:101E0000F681E02D0680F781E02D82819381909309
:101E10000201809301012091770930917809809126
:101E20000101909102012817390708F469C0E09177
:101E30008F09F09190098081882399F0E0918F09B2
:101E4000F09190090580F681E02DC681D7818A81C5
:101E50009B81209177093091780928173907F8F488
:101E600019C08FEF9FEF909302018093010148C04A
:101E7000E0918F09F09190090580F681E02DC681EF
:101E8000D7818A819B812091770930917809281721
:101E9000390728F4909302018093010131C08E012B
:101EA0000E5F1F4FC8010E941C018C899D89892BE0
:101EB00021F0CE010C960E941C018E89909175092B
:101EC000981710F48093750990E09C01220F331F3E
:101ED000220F331F220F331F820F931FB8018D551E
:101EE000964F0E94BA00E0918F09F091900980818D
:101EF0008111BECFB6CF809172098F5F8093720936
:101F0000DF91CF911F910F910895CF92DF92EF92C1
:101F1000FF920F931F93CF93DF930FB6F8940F9216
:101F200080917309815080937309809173098111A5
:101F300062C080917909811132C060C0D7011596C5
:101F4000ED91FC911697C681D781CE010C960E9427
:101F50001C018E010E5F1F4FC8010E941C018E895B
:101F600090917509981710F48093750990E09C0181
:101F7000220F331F220F331F220F331F820F931F95
:101F8000B8018D55964F0E94BA00E091C709F091B3
:101F9000C8099E898689981758F0DC2C09C0D12C75
:101FA0000F2EF4E8EF2EF9E0FF2EF02DCC24C39491
:101FB000F70180818111C2CF80917209882379F065
:101FC00080917209882391F0DCDE80917209815042
:101FD00080937209809172098111F6CF07C0F1E0F8
:101FE000DF1621F080917109813039F41092710966
:101FF000AEDC81E003C080E001C080E00F900FBE46
:10200000DF91CF911F910F91FF90EF90DF90CF90D4
:102010000895CF93DF93EC01892B99F0ACDE80918A
:10202000770990917809C80FD91F8091C7099091BD
:10203000C80902960E941C01CE013CDD66DF8111B9
:1020400001C085DCDF91CF9108950F2EFBE7EF2EC5
:10205000F9E0FF2EF02DC3EAD9E080917A098823B8
:1020600041F189DED7011C9150DF112311F10FB628
:10207000F8940F92D7011596ED91FC911697068171
:102080001781C80102960E941C0180917909815034
:102090008093790980917A09815080937A090F9011
:1020A0000FBEF8018789908D0E94A700C8010E9489
:1020B000A7008881823088F24ADCCFCF80917309F3
:1020C000811113C08091750990E0FC01EE0FFF1F94
:1020D000EE0FFF1FEE0FFF1F8E0F9F1FFC01ED5530
:1020E000F64F8081882329F01BC081E0809371091D
:1020F00008958091750981508093750980917509C3
:1021000090E0FC01EE0FFF1FEE0FFF1FEE0FFF1F11
:102110008E0F9F1FFC01ED55F64F8081882349F3F8
:102120008091750990E09C01220F331F220F331F0D
:10213000220F331F280F391FD901AD55B64F119605
:10214000ED91FC9112970280F381E02D1296FC93A1
:10215000EE9311972A55364FE217F30729F422819F
:102160003381FD0132832183FC01EE0FFF1FEE0F4F
:10217000FF1FEE0FFF1F8E0F9F1FFC01ED55F64F47
:102180000180F281E02D868197819093C809809328
:10219000C7090895EE0FFF1F0024001C0BBE079017
:1021A000F691E02D0994DC0101C06D93415050403F
:1021B000E0F70895FB01DC014150504048F00190E8
:1021C0000D920020C9F701C01D9241505040E0F728
:1021D0000895F999FECF92BD81BDF89A992780B5EF
:1021E0000895262FF999FECF1FBA92BD81BD20BD5B
:1021F0000FB6F894FA9AF99A0FBE01960895F894DA
:02220000FFCF0E
:1022020002FFFF427574746F6E5461736B00446F0A
:10221200672053797374656D2069732020204F46BF
:102222004620574F4F4620574F4F4600446F672076
:1022320053797374656D206973204F4E574F4F4623
:1022420020574F4F4600446F672074696D696E676F
:1022520020202020202073657474696E6700446F0B
:1022620067206261726B202020202020202073656D
:102272007474696E670044656C6179206163746986
:10228200766174696F6E6279202D3E352C31302C67
:102292003135207365630044656C61792061637434
:1022A20069766174696F6E627920352C2D3E31300A
:1022B2002C3135207365630044656C61792061635C
:1022C2007469766174696F6E627920352C31302CB5
:1022D2002D3E313520736563005065726970686503
:1022E20072616C20202020202053657474696E670F
:1022F20073002D3E4D696E6F72204261726B202019
:10230200202020204D616A6F72204261726B002092
:10231200204D696E6F72204261726B202020202D49
:102322003E4D616A6F72204261726B005065726944
:1023320070686572616C2020202020206172652007
:1023420075736564005065726970686572616C20AE
:102352002020202020617265206E6F7420757365C5
:1023620064004261726B2044656C61792035207390
:1023720065634261726B203D204D696E6F7200424F
:1023820061726B2044656C61792031307365634200
:1023920061726B203D204D696E6F72004261726BFB
:1023A2002044656C61792031357365634261726BDB
:1023B200203D204D696E6F72004261726B20446550
:1023C2006C61792035207365634261726B203D2018
:1023D2004D616A6F72004261726B2044656C617973
:1023E2002031307365634261726B203D204D616A1A
:1023F2006F72004261726B2044656C6179203135E5
:102402007365634261726B203D204D616A6F720099
:102412002D3E5065726970686572616C204F6E2046
:1024220020205065726970686572616C204F666623
:102432000020205065726970686572616C204F6E71
:10244200202D3E5065726970686572616C204F661E
:1024520066004D454E555365635461736B0054726B
:10246200616E735365635461736B00426C756552A0
:1024720065635365635461736B005445535400495B
:04248200444C450081
:00000001FF
