:1000000060C000007DC000007BC0000079C000001F
:1000100077C0000075C0000073C0000071C0000010
:100020006FC000006DC000006BC0000069C0000020
:1000300067C000000C94A10B63C0000061C0000009
:100040005FC000005DC000005BC0000059C0000040
:1000500057C0000055C0000053C0000051C0000050
:100060004FC000004DC000004BC0000049C0000060
:1000700047C0000045C0000043C0000041C0000070
:100080003FC000003DC000003BC00000EB02F50295
:10009000FF02090313031D03270331033B03450339
:1000A0004F0359036E03A503C903EF035404A504CA
:1000B0000B055C05B60507066006B7062707B307FC
:1000C0000E0811241FBECFEFD0E4DEBFCDBF13E07A
:1000D000A0E0B1E0E4E9FEE100E00BBF02C0079060
:1000E0000D92A438B107D9F729E0A4E8B3E001C024
:1000F0001D92AE3CB207E1F70E94140A0C94480F1F
:100100007FCFCF93DF93EC010E94040D20918403F5
:1001100030918503C9018C0F9D1F8C3D45E09407EC
:1001200058F42817390758F4E901CA57DC4F90935F
:1001300085038093840305C0C0E0D0E002C0C0E026
:10014000D0E00E94CE0DCE01DF91CF9108950895A9
:10015000FC010396928381832FEF3FEF3483238347
:10016000968385839087878310820895FC0111868A
:1001700010860895CF93DF93FC01DB01218132814A
:10018000E9018A819B8113969C938E9312978181BA
:10019000928115969C938E9314978A819B81EC0192
:1001A0007D836C83E9017B836A8372836183199603
:1001B000FC93EE93189780818F5F8083DF91CF91BE
:1001C0000895CF93DF93EB01488159814F3F2FEF83
:1001D000520731F4DC011796ED91FC91189717C086
:1001E000FC013396DC0115962D913C911697D901AF
:1001F0002D913C914217530750F00280F381E02D7E
:10020000A281B3812D913C9142175307B0F7A2818F
:10021000B381BB83AA831596DC93CE931497FD8399
:10022000EC83D383C28399878887FC0120812F5F69
:100230002083DF91CF910895FC01A281B381848155
:10024000958115969C938E931497A481B581828194
:10025000938113969C938E931297A085B1851196E6
:100260008D919C911297E817F90731F4848195815B
:1002700012969C938E931197118610868C918150C3
:100280008C930895813081F0E1ECF0E08081886109
:100290008083E2ECF0E080818660808383E380935A
:1002A000C4001092C5000895E9ECF0E080818861F7
:1002B0008083EAECF0E080818660808383E3809332
:1002C000CC001092CD000895813029F48091C800AF
:1002D000882374F008958091C00088238CF4A6ECE4
:1002E000B0E0E0ECF0E08C9180818823E4F30895A5
:1002F000AEECB0E0E8ECF0E08C9180818823E4F390
:100300000895613041F0E0ECF0E0908195FFFDCF81
:100310008093C6000895E8ECF0E0908195FFFDCF52
:100320008093CE000895813041F0E0ECF0E08081D0
:100330008823ECF78091C6000895E8ECF0E0808116
:100340008823ECF78091CE000895181619065CF00A
:100350000895000021503109E1F74F5F5F4F841786
:10036000950719F4089540E050E027E033E0F1CF1D
:100370005E9888B95F9A00005F9882E090E0E5CFD0
:10038000089581E0F5CF0895813118F48158F0CFB8
:1003900008958155EDCF089584E690E0D6DF88E397
:1003A000E7DF86E0E5DF8FE0E3DF81E0E1DF8AE0A1
:1003B00090E0CBCF08955E9A88B95F9A00005F986D
:1003C00081E090E0C2CF08950F931F93CF93DF9306
:1003D000182FEB01D6DF8881882351F001E0010F4F
:1003E000812FD2DF8991E7DF102F88818111F6CF2D
:1003F000DF91CF911F910F9108951092670910928C
:10040000660910926D0910926C0910926B09109296
:100410006A0908958091CD09882321F0813009F47B
:1004200086C09FC000991FC080B1809581FD1BC010
:1004300080B1809582FD17C080B1809583FD13C087
:1004400080B1809584FD0FC0299A80916E0981301A
:1004500019F410926E0903C081E080936E0981E067
:100460008093CD090895009B17C080B1809581FFCE
:1004700013C080B1809582FD0FC080B1809583FD4F
:100480000BC080B1809584FD07C0299A81E08093DC
:100490006D098093CD090895009B17C080B18095A8
:1004A00081FD13C080B1809582FF0FC080B180951F
:1004B00083FD0BC080B1809584FD07C0299A81E03F
:1004C00080936C098093CD090895009B17C080B17B
:1004D000809581FD13C080B1809582FD0FC080B1F1
:1004E000809583FF0BC080B1809584FD07C0299A59
:1004F00081E080936B098093CD090895009B33C000
:1005000080B1809581FD2FC080B1809582FD2BC088
:1005100080B1809583FD27C080B1809584FF23C082
:10052000299A81E080936A098093CD0908952998DA
:10053000009B10C080B1809581FD0CC080B180957A
:1005400082FD08C080B1809583FD04C080B1809594
:1005500084FF04C081E08093CD0908951092CD09F5
:1005600008951092CD0908951092CD0953DF8AE0C5
:1005700090E00E94520EFACFAF92BF92CF92DF92DC
:10058000EF92FF920F93A12CB12CC12CD12CE12C16
:10059000F12C082F20E030E045E550E063E071E009
:1005A00084EB92E00E94DA0B0F91FF90EF90DF90C6
:1005B000CF90BF90AF900895CF932091CC09822F18
:1005C00090E0FC013397EC30F10508F07CC0EA5B69
:1005D000FF4F0C94130F8091660990916709019663
:1005E0009093670980936609FAC08091660990919B
:1005F00067090196909367098093660955C18091B8
:10060000660990916709019690936709809366093E
:100610009CC1809166099091670901969093670942
:1006200080936609F8C180916609909167090196E7
:1006300090936709809366093FC280916609909103
:100640006709019690936709809366098FC280912C
:1006500066099091670901969093670980936609EE
:10066000D6C28091660990916709019690936709B7
:100670008093660925C38091660990916709019668
:10068000909367098093660972C38091660990917F
:10069000670901969093670980936609D8C3809192
:1006A000660990916709019690936709809366099E
:1006B0005AC48091660990916709019690936709E1
:1006C00080936609ABC4822F90E08F30910508F0CB
:1006D000F5C4FC01EE5AFF4F0C94130F80916E0984
:1006E00081110CC06EE071E081E06EDE81E24CDED3
:1006F00084DE15B882E08093CC09E2C480B1809595
:1007000085FD02C080B115C080916309813089F4F4
:1007100010926E0910926709109266096EE071E0FE
:1007200053DE81E231DE69DE15B882E08093CC09C8
:10073000C7C46CE271E081E047DE81E225DE5DDE68
:1007400081E085B98093CC09BBC4809100018111FF
:1007500008C082E08093000110926E091092CC09CB
:10076000AFC480B1809585FD04C080B1809586FFBF
:1007700009C080916309813029F410926E091092AA
:10078000CC099EC480916E0981119AC41092CC0943
:1007900097C480910001813049F482E08093000188
:1007A00081E080936E091092CC098AC480916E0911
:1007B000813031F41092CC0982E08093000180C432
:1007C00080916A09813009F07BC466E471E0FCDD48
:1007D00081E2DADD12DE83E08093CC0971C480917E
:1007E000660990916709843F9140B0F010926709C3
:1007F0001092660910926D0910926C0910926B09A3
:1008000010926A096EE071E081E0DEDD81E2BCDD1C
:1008100082E08093CC0954C480910001813049F476
:1008200082E08093000181E080936E091092CC09F0
:1008300047C480916E09813031F482E080930001D9
:100840001092CC093DC480916A09813059F4D5DDFC
:100850006EE571E081E0B8DD81E296DD87E08093AE
:10086000CC092EC480916B09813059F4C6DD6EE04D
:1008700071E081E0A9DD81E287DD82E08093CC092F
:100880001FC480916D09813059F4B7DD66E771E0CE
:1008900081E09ADD81E278DD84E08093CC0910C4A8
:1008A00083E08093CC090CC480916609909167091C
:1008B000843F914068F0A1DD6EE071E081E084DD6D
:1008C00081E262DD82E0809300018093CC09F8C36D
:1008D00080916A09813059F490DD67E971E081E027
:1008E00073DD81E251DD85E08093CC09E9C380911D
:1008F0006D098130A1F41092640960E081E090E01C
:100900000E943A0F7ADD6EE071E081E05DDD81E208
:100910003BDD82E0809300018093CC09D1C38091BC
:100920006C09813071F469DD66E471E081E04CDDD1
:1009300081E22ADD82E08093000183E08093CC098C
:10094000BFC384E08093CC09BBC3809166099091BA
:100950006709843F914068F050DD6EE071E081E00E
:1009600033DD81E211DD82E0809300018093CC09C8
:10097000A7C380916A09813071F43FDD68EB71E0B3
:1009800081E022DD81E200DD82E08093000186E0EB
:100990008093CC0995C380916B09813071F42DDD72
:1009A00066E771E081E010DD81E2EEDC82E08093B9
:1009B000000184E08093CC0983C380916D0981306C
:1009C000A1F48093640961E081E090E00E943A0F15
:1009D00014DD6EE071E081E0F7DC81E2D5DC82E0DD
:1009E000809300018093CC096BC380916C098130A6
:1009F00071F403DD66E471E081E0E6DC81E2C4DCF1
:100A000082E08093000183E08093CC0959C385E0A4
:100A10008093CC0955C38091660990916709843F02
:100A2000914068F0EADC6EE071E081E0CDDC81E2CB
:100A3000ABDC82E0809300018093CC0941C38091BC
:100A40006B09813059F4D9DC67E971E081E0BCDCE5
:100A500081E29ADC85E08093CC0932C380916D09F4
:100A60008130A1F4C2E0C093640962E081E090E0CB
:100A70000E943A0FC2DC6EE071E081E0A5DC81E209
:100A800083DCC0930001C093CC091AC380916C0928
:100A9000813071F4B2DC66E471E081E095DC81E2E2
:100AA00073DC82E08093000183E08093CC0908C36B
:100AB00086E08093CC0904C3809166099091670910
:100AC000843F914058F099DC6EE071E081E07CDC7D
:100AD00081E25ADC82E08093CC09F2C2809100016D
:100AE000813049F482E08093000181E080936E09B7
:100AF0001092CC09E5C280916E09813031F482E018
:100B0000809300011092CC09DBC280916A09813088
:100B100059F473DC69ED71E081E056DC81E234DC8C
:100B20008CE08093CC09CCC280916B09813059F460
:100B300064DC66E471E081E047DC81E225DC83E08F
:100B40008093CC09BDC280916D09813059F455DC88
:100B500062EF71E081E038DC81E216DC88E08093AE
:100B6000CC09AEC287E08093CC09AAC28091660905
:100B700090916709843F914068F03FDC6EE071E03E
:100B800081E022DC81E200DC82E08093000180933E
:100B9000CC0996C280916D098130A1F4109265094B
:100BA00060E080E090E00E943A0F27DC6EE071E0A8
:100BB00081E00ADC81E2E8DB82E08093000180933F
:100BC000CC097EC280916C09813071F416DC6EE52F
:100BD00071E081E0F9DB81E2D7DB82E08093000104
:100BE00087E08093CC096CC280916A09813059F406
:100BF00004DC6FE072E081E0E7DB81E2C5DB89E0E5
:100C00008093CC095DC288E08093CC0959C2809161
:100C1000660990916709843F914068F0EEDB6EE0D1
:100C200071E081E0D1DB81E2AFDB82E08093000103
:100C30008093CC0945C280916D098130A1F48093E5
:100C4000650961E080E090E00E943A0FD6DB6EE03B
:100C500071E081E0B9DB81E297DB82E08093000103
:100C60008093CC092DC280916C09813071F4C5DB71
:100C70006EE571E081E0A8DB81E286DB82E08093B3
:100C8000000187E08093CC091BC280916B09813001
:100C900099F4109267091092660910926D091092EA
:100CA0006C0910926B0962EF71E08EDB81E26CDB04
:100CB00088E08093CC0904C289E08093CC0900C20B
:100CC0008091660990916709843F914068F095DBB7
:100CD0006EE071E081E078DB81E256DB82E08093B8
:100CE00000018093CC09ECC180910001813049F46E
:100CF00082E08093000181E080936E091092CC091C
:100D0000DFC180916E09813031F482E0809300016F
:100D10001092CC09D5C180916B09813059F46DDBFB
:100D200069ED71E081E050DB81E22EDB8CE08093A5
:100D3000CC09C6C180916A098130A9F45EDB80913B
:100D40006309813031F46CE272E03EDB81E21CDB4E
:100D500006C065E472E081E037DB81E215DB8BE001
:100D60008093CC09ADC18AE08093CC09A9C1809160
:100D7000660990916709843F914068F03EDB6EE020
:100D800071E081E021DB81E2FFDA82E08093000103
:100D90008093CC0995C180910001813049F482E0B3
:100DA0008093000181E080936E091092CC0988C184
:100DB00080916E09813031F482E0809300011092BD
:100DC000CC097EC180916B09813009F03CC015DBF4
:100DD0008091650981111AC080916409811107C051
:100DE00062E672E081E0F0DA81E2CEDA28C081309A
:100DF00031F46FE772E0E8DA81E2C6DA20C06CE92C
:100E000072E081E0E1DA81E2BFDA19C08091640921
:100E1000811107C069EB72E081E0D6DA81E2B4DAD1
:100E20000EC0813031F466ED72E0CEDA81E2ACDAE8
:100E300006C063EF72E081E0C7DA81E2A5DA8AE0FA
:100E40008093CC093DC18BE08093CC0939C180915E
:100E5000660990916709843F914058F0CEDA6EE0C0
:100E600071E081E0B1DA81E28FDA82E08093CC092F
:100E700027C180910001813049F482E08093000114
:100E800081E080936E091092CC091AC180916E099D
:100E9000813031F482E0809300011092CC0910C1BE
:100EA00080916A09813009F03CC0A7DA8091650918
:100EB00081111AC080916409811107C062E672E055
:100EC00081E082DA81E260DA28C0813031F46FE7B4
:100ED00072E07ADA81E258DA20C06CE972E081E0EF
:100EE00073DA81E251DA19C080916409811107C077
:100EF00069EB72E081E068DA81E246DA0EC08130A7
:100F000031F466ED72E060DA81E23EDA06C063EF4A
:100F100072E081E059DA81E237DA8AE08093CC0925
:100F2000CFC080916B09813059F467DA6EE571E0CA
:100F300081E04ADA81E228DA87E08093CC09C0C0F8
:100F400080916D09813059F458DA60E173E081E0F5
:100F50003BDA81E219DA8DE08093CC09B1C08CE0F4
:100F60008093CC09ADC08091660990916709843F58
:100F7000914068F042DA6EE071E081E025DA81E2CA
:100F800003DA82E0809300018093CC0999C08091BC
:100F90006D098130B1F48093630961E082E090E0F3
:100FA00069D710926709109266096EE071E081E0DE
:100FB0000BDA81E2E9D982E0809300018093CC09C9
:100FC0007FC080916C09813071F417DA69ED71E0AE
:100FD00081E0FAD981E2D8D982E0809300018CE0E7
:100FE0008093CC096DC080916A09813099F4109288
:100FF00067091092660910926D0910926C0910929F
:101000006A0961E373E0E0D981E2BED98EE08093A2
:10101000CC0956C08DE08093CC0952C080916609FE
:1010200090916709843F914068F0E7D96EE071E0E4
:1010300081E0CAD981E2A8D982E08093000180933F
:10104000CC093EC080916D09813099F410926309FA
:1010500060E082E090E00ED7D0D96EE071E081E0F0
:10106000B3D981E291D982E0809300018093CC09C9
:1010700027C080916C09813071F4BFD969ED71E0AE
:1010800081E0A2D981E280D982E0809300018CE0E6
:101090008093CC0915C080916B09813059F4ADD98A
:1010A00060E173E081E090D981E26ED98DE08093B8
:1010B000CC0906C08EE08093CC0902C01092CC0906
:1010C000CF9108951092CC0977DA8AE090E0EAD5C2
:1010D000FBCFAF92BF92CF92DF92EF92FF920F932E
:1010E000A12CB12CC12CD12CE12CF12C082F20E00B
:1010F00030E045E550E062E573E082E698E05AD3DF
:101100000F91FF90EF90DF90CF90BF90AF90089538
:101110008091CB09882321F0813009F4B4C0B7C095
:1011200080916E09811157C080916509811129C094
:101130008091640981110BC080916309811103C002
:1011400010926809ABC080E180936809A7C0813024
:1011500061F480916309811104C082E08093680981
:101160009DC082E18093680999C0809163098111D3
:1011700004C084E08093680991C084E18093680989
:101180008DC08091640981110CC080916309811127
:1011900004C088E08093680981C088E18093680971
:1011A0007DC0813061F480916309811104C08AE0BF
:1011B0008093680973C08AE1809368096FC0809149
:1011C0006309811104C08CE08093680967C08CE1D9
:1011D0008093680963C08091650981112AC080915C
:1011E000640981110CC080916309811104C081E000
:1011F0008093680953C081E8809368094FC08130AB
:1012000061F480916309811104C083E080936809CF
:1012100045C083E88093680941C0809163098111CA
:1012200004C085E08093680939C085E88093680927
:1012300035C08091640981110CC0809163098111CE
:1012400004C089E08093680929C089E8809368090F
:1012500025C0813061F480916309811104C08BE065
:10126000809368091BC08BE88093680917C0809140
:101270006309811104C08DE0809368090FC08DE877
:10128000809368090BC060E0809168093AD880912A
:10129000CB09882319F0813049F00FC08091C0003C
:1012A00085FF0DC081E08093CB0908958091C00037
:1012B00086FF05C01092CB0908951092CB090895BE
:1012C0001092CB0925DF8AE090E0ECD4FBCFAF92FF
:1012D000BF92CF92DF92EF92FF920F93A12CB12C8D
:1012E000C12CD12CE12CF12C082F20E030E045E579
:1012F00050E06EE573E080E699E05CD20F91FF90DC
:10130000EF90DF90CF90BF90AF9008958091C90982
:10131000813039F480E007D88093690980E00E9429
:1013200064018091C909882319F01092C9090895B0
:101330008091C00088231CF481E08093C90908953E
:101340001092C909E3DF8AE090E0ACD4FBCFAF9202
:10135000BF92CF92DF92EF92FF920F93A12CB12C0C
:10136000C12CD12CE12CF12C082F20E030E045E5F8
:1013700050E06FE673E080EA99E01CD20F91FF9095
:10138000EF90DF90CF90BF90AF9008958091CA0901
:101390008130A9F40E949301809362098F3021F477
:1013A00081E08093000108C0803F19F41092000191
:1013B00003C082E08093000181E00E94640180917B
:1013C000CA09882319F01092CA0908958091C800AB
:1013D00088231CF481E08093CA0908951092CA09F9
:1013E000D5DF8AE090E05ED4FBCFAF92BF92CF9280
:1013F000DF92EF92FF920F93A12CB12CC12CD12C34
:10140000E12CF12C082F20E030E045E550E06BE6C0
:1014100073E08EEE99E0CED10F91FF90EF90DF90C8
:10142000CF90BF90AF90089511B88FEF82B987B970
:1014300018B88AB91BB884B915B880E090E012D505
:101440008093650981E090E00DD58093640982E086
:1014500090E008D5809363090E94CC016AE773E0AD
:1014600081E00E94E40181E20E94C40180E00E94C8
:10147000420181E00E94420181E07ED881E029DEC4
:1014800081E025DF81E063DF81E0AFDF94D280E09F
:1014900090E0089531E1FC013083319722E220830E
:1014A0003197A3E3A083319760833197708331979D
:1014B0001082319760E8608331971082319762E043
:1014C0006083319763E06083319764E06083319794
:1014D00065E06083319766E06083319767E0608301
:1014E000319768E06083319769E06083319760E10C
:1014F000608331973083319732E13083319733E124
:101500003083319734E13083319735E1308331973F
:1015100036E13083319737E13083319738E13083DA
:10152000319739E13083319730E23083319731E2BE
:10153000308331972083319723E220833197408392
:1015400031975083319726E22083319727E2208319
:10155000319728E22083319729E22083319720E3D5
:101560002083319721E32083869708951092890084
:101570008CE7809388008BE080938100EFE6F0E0B9
:10158000808182608083A091C709B091C809CD9104
:10159000CDBFDD91DEBFFF91EF91DF91CF91BF9184
:1015A000AF919F918F917F916F915F914F913F91FB
:1015B0002F911F910F91FF90EF90DF90CF90BF90F0
:1015C000AF909F908F907F906F905F904F903F90E3
:1015D0002F901F900F900FBE0F90089581E00895F7
:1015E0000F920FB6F8940F921F9211242F923F92F0
:1015F0004F925F926F927F928F929F92AF92BF9223
:10160000CF92DF92EF92FF920F931F932F933F930E
:101610004F935F936F937F938F939F93AF93BF93FA
:10162000CF93DF93EF93FF93A091C709B091C809BF
:101630000DB60D920EB60D928AD3A091C709B09146
:10164000C809CD91CDBFDD91DEBFFF91EF91DF9154
:10165000CF91BF91AF919F918F917F916F915F914A
:101660004F913F912F911F910F91FF90EF90DF903D
:10167000CF90BF90AF909F908F907F906F905F9032
:101680004F903F902F901F900F900FBE0F90089596
:101690000F920FB6F8940F921F9211242F923F923F
:1016A0004F925F926F927F928F929F92AF92BF9272
:1016B000CF92DF92EF92FF920F931F932F933F935E
:1016C0004F935F936F937F938F939F93AF93BF934A
:1016D000CF93DF93EF93FF93A091C709B091C8090F
:1016E0000DB60D920EB60D9295D131D3A091C709CA
:1016F000B091C809CD91CDBFDD91DEBFFF91EF91D3
:10170000DF91CF91BF91AF919F918F917F916F9119
:101710005F914F913F912F911F910F91FF90EF900B
:10172000DF90CF90BF90AF909F908F907F906F9001
:101730005F904F903F902F901F900F900FBE0F9093
:101740000895A6DF1895CF93DF93EC01E091C709C8
:10175000F091C809938382838091770990917809E9
:10176000C817D90768F46091C7097091C8098091BA
:101770008D0990918E096E5F7F4F0E94E10017C026
:101780006091C7097091C80980918F099091900963
:101790006E5F7F4F0E94E1008091010190910201F4
:1017A000C817D90720F4D0930201C0930101DF913B
:1017B000CF9108954F925F926F927F928F929F92F6
:1017C000AF92BF92CF92DF92EF92FF920F931F934F
:1017D000CF93DF935C014B013A01290181E290E054
:1017E0000E948100EC01892B09F4D3C0C114D104FB
:1017F00009F0CBC0C3010E948100988F8F8B0097A6
:1018000021F4CE010E94A700C4C0A30165EA70E0E4
:1018100013D39301215031098F89988D3C01620EB9
:10182000731E48E050E0B401CE0149960CD318A2D3
:10183000102F043008F013E01E8B6E0182E0C80EFA
:10184000D11CC6010E94B600CE010C960E94B600C3
:10185000D987C88784E090E0811B91099D878C8798
:10186000DB8BCA8BA201B501C30114DE9983888387
:10187000E114F10419F0F701D183C0830FB6F89495
:101880000F92809179098F5F809379098091C709C0
:101890009091C809892BA9F5D093C809C093C709AD
:1018A000809179098130E1F583EA99E00E94A800EE
:1018B0008CEA99E00E94A80085EB99E00E94A800BC
:1018C0008EEB99E00E94A8008AE999E00E94A800A6
:1018D00081E999E00E94A80084E899E00E94A800AC
:1018E0008BE799E00E94A8008AE999E0909390091B
:1018F00080938F0981E999E090938E0980938D09F7
:101900000FC08091740981110BC0E091C709F0915B
:10191000C8098689081720F0D093C809C093C70961
:101920008E8990917609981710F48093760990919A
:101930006F099F5F90936F0990917509981710F444
:101940008093750990E09C01220F331F220F331FF3
:10195000220F331F820F931FB6018D55964F0E94A1
:10196000BA000F900FBE80917409882351F0E09166
:10197000C709F091C8098689801728F431DE81E013
:1019800009C081E007C081E005C0D88ECF8AC601BA
:101990003CCF8FEFDF91CF911F910F91FF90EF9090
:1019A000DF90CF90BF90AF909F908F907F906F907F
:1019B0005F904F900895AF92BF92CF92DF92EF92D7
:1019C000FF920F93A12CB12CC12CD12CE12CF12C26
:1019D00000E020E030E045E550E06FE773E08EE6A0
:1019E0009EE0E8DE813041F4F8948093740910920F
:1019F000780910927709BADD0F91FF90EF90DF9090
:101A0000CF90BF90AF900895809173098F5F8093BE
:101A1000730908950F931F93CF93DF9380917309F8
:101A20008111B2C0809177099091780901969093C5
:101A30007809809377098091770990917809892BAB
:101A400099F580918F099091900920918D0930919D
:101A50008E093093900920938F0990938E0980937B
:101A60008D09809170098F5F80937009E0918F09D3
:101A7000F09190098081811107C08FEF9FEF9093C3
:101A800002018093010110C0E0918F09F09190094B
:101A90000580F681E02D0680F781E02D828193811B
:101AA0009093020180930101209177093091780988
:101AB00080910101909102012817390708F469C04B
:101AC000E0918F09F09190098081882399F0E0914D
:101AD0008F09F09190090580F681E02DC681D781AC
:101AE0008A819B81209177093091780928173907DD
:101AF000F8F419C08FEF9FEF9093020180930101DA
:101B000048C0E0918F09F09190090580F681E02DA1
:101B1000C681D7818A819B8120917709309178098C
:101B20002817390728F4909302018093010131C0EE
:101B30008E010E5F1F4FC8010E941C018C899D8978
:101B4000892B21F0CE010C960E941C018E89909168
:101B50007509981710F48093750990E09C01220F85
:101B6000331F220F331F220F331F820F931FB80121
:101B70008D55964F0E94BA00E0918F09F09190091F
:101B800080818111BECFB6CF809172098F5F809323
:101B90007209DF91CF911F910F910895CF92DF923B
:101BA000EF92FF920F931F93CF93DF930FB6F894AA
:101BB0000F9280917309815080937309809173090A
:101BC000811162C080917909811132C060C0D70152
:101BD0001596ED91FC911697C681D781CE010C9692
:101BE0000E941C018E010E5F1F4FC8010E941C0144
:101BF0008E8990917509981710F48093750990E07B
:101C00009C01220F331F220F331F220F331F820F1D
:101C1000931FB8018D55964F0E94BA00E091C709F5
:101C2000F091C8099E898689981758F0DC2C09C064
:101C3000D12C0F2EF4E8EF2EF9E0FF2EF02DCC245E
:101C4000C394F70180818111C2CF809172098823EA
:101C500079F080917209882391F0DCDE809172091D
:101C6000815080937209809172098111F6CF07C06B
:101C7000F1E0DF1621F080917109813039F4109282
:101C80007109AEDC81E003C080E001C080E00F900C
:101C90000FBEDF91CF911F910F91FF90EF90DF90DA
:101CA000CF900895CF93DF93EC01892B99F0ACDEB0
:101CB0008091770990917809C80FD91F8091C70941
:101CC0009091C80902960E941C01CE013CDD66DF9E
:101CD000811101C085DCDF91CF9108950F2EFBE7C4
:101CE000EF2EF9E0FF2EF02DC3EAD9E080917A09BA
:101CF000882341F189DED7011C9150DF112311F1B6
:101D00000FB6F8940F92D7011596ED91FC911697A6
:101D100006811781C80102960E941C0180917909F1
:101D200081508093790980917A09815080937A0952
:101D30000F900FBEF8018789908D0E94A700C801FF
:101D40000E94A7008881823088F24ADCCFCF809140
:101D50007309811113C08091750990E0FC01EE0FA9
:101D6000FF1FEE0FFF1FEE0FFF1F8E0F9F1FFC01C7
:101D7000ED55F64F8081882329F01BC081E08093C8
:101D8000710908958091750981508093750980913A
:101D9000750990E0FC01EE0FFF1FEE0FFF1FEE0F25
:101DA000FF1F8E0F9F1FFC01ED55F64F808188238A
:101DB00049F38091750990E09C01220F331F220F97
:101DC000331F220F331F280F391FD901AD55B64FCE
:101DD0001196ED91FC9112970280F381E02D1296FD
:101DE000FC93EE9311972A55364FE217F30729F427
:101DF00022813381FD0132832183FC01EE0FFF1F1D
:101E0000EE0FFF1FEE0FFF1F8E0F9F1FFC01ED5502
:101E1000F64F0180F281E02D868197819093C80969
:101E20008093C7090895EE0FFF1F0024001C0BBE0E
:101E30000790F691E02D0994DC0101C06D934150AB
:101E40005040E0F70895FB01DC014150504048F05C
:101E500001900D920020C9F701C01D9241505040E1
:101E6000E0F70895F999FECF92BD81BDF89A9927C0
:101E700080B50895262FF999FECF1FBA92BD81BD76
:101E800020BD0FB6F894FA9AF99A0FBE01960895FC
:041E9000F894FFCFF4
:101E940002FFFF427574746F6E5461736B00446F7C
:101EA400672053797374656D2069732020204F4631
:101EB4004620574F4F4620574F4F4600446F6720E8
:101EC40053797374656D206973204F4E574F4F4695
:101ED40020574F4F4600446F672074696D696E67E1
:101EE40020202020202073657474696E6700446F7D
:101EF40067206261726B20202020202020207365DF
:101F04007474696E670044656C61792061637469F7
:101F1400766174696F6E6279202D3E352C31302CD8
:101F24003135207365630044656C617920616374A5
:101F340069766174696F6E627920352C2D3E31307B
:101F44002C3135207365630044656C6179206163CD
:101F54007469766174696F6E627920352C31302C26
:101F64002D3E313520736563005065726970686574
:101F740072616C20202020202053657474696E6780
:101F840073002D3E4D696E6F72204261726B20208A
:101F9400202020204D616A6F72204261726B002004
:101FA400204D696E6F72204261726B202020202DBB
:101FB4003E4D616A6F72204261726B0050657269B6
:101FC40070686572616C2020202020206172652079
:101FD40075736564005065726970686572616C2020
:101FE4002020202020617265206E6F742075736537
:101FF40064004261726B2044656C61792035207302
:1020040065634261726B203D204D696E6F720042C0
:1020140061726B2044656C61792031307365634271
:1020240061726B203D204D696E6F72004261726B6C
:102034002044656C61792031357365634261726B4C
:10204400203D204D696E6F72004261726B204465C1
:102054006C61792035207365634261726B203D2089
:102064004D616A6F72004261726B2044656C6179E4
:102074002031307365634261726B203D204D616A8B
:102084006F72004261726B2044656C617920313556
:102094007365634261726B203D204D616A6F72000B
:1020A4002D3E5065726970686572616C204F6E20B8
:1020B40020205065726970686572616C204F666695
:1020C4000020205065726970686572616C204F6EE3
:1020D400202D3E5065726970686572616C204F6690
:1020E40066004D454E555365635461736B005472DD
:1020F400616E735365635461736B00426C75655212
:1021040065635365635461736B00544553540049CC
:04211400444C4500F2
:00000001FF
