:100000005AC0000077C0000075C0000073C0000037
:1000100071C000006FC000006DC000006BC0000028
:1000200069C0000067C0000065C0000063C0000038
:1000300061C000000C94E10A5DC000005BC00000DC
:1000400059C0000057C0000055C0000053C0000058
:1000500051C000004FC000004DC000004BC0000068
:1000600049C0000047C0000045C0000043C0000078
:1000700041C000003FC000003DC000003BC0000088
:1000800039C0000037C0000035C00000D802DA02D5
:10009000DC02E602F002FA0204030E031803220354
:1000A000390367038303B4033404AC044305BB057D
:1000B0006E06E5065A0711241FBECFEFD0E4DEBF5F
:1000C000CDBF12E0A0E0B1E0E4E1FDE100E00BBF54
:1000D00002C007900D92A43FB107D9F729E0A4EF21
:1000E000B2E001C01D92AD33B207E1F70E945C0996
:1000F0000C94880E85CFCF93DF93EC010E94440CC3
:100100002091F4023091F502C9018C0F9D1F8C3DA6
:1001100045E0940758F42817390758F4E901CA5004
:10012000DD4F9093F5028093F40205C0C0E0D0E06B
:1001300002C0C0E0D0E00E940E0DCE01DF91CF9151
:1001400008950895FC010396928381832FEF3FEF7A
:1001500034832383968385839087878310820895D1
:10016000FC01118610860895CF93DF93FC01DB011B
:1001700021813281E9018A819B8113969C938E9320
:1001800012978181928115969C938E9314978A8100
:100190009B81EC017D836C83E9017B836A8372839D
:1001A00061831996FC93EE93189780818F5F80830B
:1001B000DF91CF910895CF93DF93EB01488159816F
:1001C0004F3F2FEF520731F4DC011796ED91FC9170
:1001D000189717C0FC013396DC0115962D913C91C0
:1001E0001697D9012D913C914217530750F0028088
:1001F000F381E02DA281B3812D913C9142175307E9
:10020000B0F7A281B381BB83AA831596DC93CE930A
:100210001497FD83EC83D383C28399878887FC017D
:1002200020812F5F2083DF91CF910895FC01A2816F
:10023000B3818481958115969C938E931497A481A4
:10024000B5818281938113969C938E931297A0859A
:10025000B18511968D919C911297E817F90731F4A9
:100260008481958112969C938E93119711861086A6
:100270008C9181508C930895813081F0E1ECF0E015
:10028000808188618083E2ECF0E0808186608083F9
:1002900083E38093C4001092C5000895E9ECF0E078
:1002A000808188618083EAECF0E0808186608083D1
:1002B00083E38093CC001092CD000895813029F41F
:1002C0008091C800882374F008958091C00088232D
:1002D0008CF4A6ECB0E0E0ECF0E08C918081882317
:1002E000E4F30895AEECB0E0E8ECF0E08C918081AE
:1002F0008823E4F30895613041F0E0ECF0E0908170
:1003000095FFFDCF8093C6000895E8ECF0E0908162
:1003100095FFFDCF8093CE000895813041F0E0EC51
:10032000F0E080818823ECF78091C6000895E8EC26
:10033000F0E080818823ECF78091CE0008951816B4
:1003400019065CF00895000021503109E1F74F5F74
:100350005F4F8417950719F4089540E050E027E0B7
:1003600033E0F1CF5E9888B95F9A00005F9882E031
:1003700090E0E5CF089581E0F5CF0895813118F43C
:100380008158F0CF08958155EDCF089584E690E02F
:10039000D6DF88E3E7DF86E0E5DF8FE0E3DF81E0BB
:1003A000E1DF8AE090E0CBCF08955E9A88B95F9A4A
:1003B00000005F9881E090E0C2CF08950F931F93F3
:1003C000CF93DF93182FEB01D6DF8881882351F07C
:1003D00001E0010F812FD2DF8991E7DF102F8881A3
:1003E0008111F6CFDF91CF911F910F9108958091E8
:1003F0003C09882321F0813009F486C09FC0009910
:100400001FC080B1809581FD1BC080B1809582FDA9
:1004100017C080B1809583FD13C080B1809584FDA5
:100420000FC0299A8091DD08813019F41092DD08FF
:1004300003C081E08093DD0881E080933C0908954A
:10044000009B17C080B1809581FF13C080B180955B
:1004500082FD0FC080B1809583FD0BC080B1809577
:1004600084FD07C0299A81E08093DC0880933C09D1
:100470000895009B17C080B1809581FD13C080B1A5
:10048000809582FF0FC080B1809583FD0BC080B145
:10049000809584FD07C0299A81E08093DB088093D2
:1004A0003C090895009B17C080B1809581FD13C061
:1004B00080B1809582FD0FC080B1809583FF0BC015
:1004C00080B1809584FD07C0299A81E08093DA0885
:1004D00080933C090895009B33C080B1809581FDD5
:1004E0002FC080B1809582FD2BC080B1809583FDA7
:1004F00027C080B1809584FF23C0299A81E0809332
:10050000D90880933C0908952998009B10C080B1B8
:10051000809581FD0CC080B1809582FD08C080B1BE
:10052000809583FD04C080B1809584FF04C081E084
:1005300080933C09089510923C09089510923C095B
:10054000089510923C0953DF8AE090E00E94920DDA
:10055000FACFAF92BF92CF92DF92EF92FF920F93BA
:10056000A12CB12CC12CD12CE12CF12C082F20E096
:1005700030E045E550E064E071E081EA92E00E94FD
:100580001A0B0F91FF90EF90DF90CF90BF90AF903C
:100590000895CF93E0913B098E2F90E0FC013197B5
:1005A000EA30F10508F058C0EA5BFF4F0C94530E97
:1005B000289A52C0289850C08091D5089091D608AA
:1005C00001969093D6088093D508CEC08091D50827
:1005D0009091D60801969093D6088093D50844C18F
:1005E0008091D5089091D60801969093D608809373
:1005F000D508B2C18091D5089091D6080196909304
:10060000D6088093D5083FC28091D5089091D6082E
:1006100001969093D6088093D508ADC28091D508F5
:100620009091D60801969093D6088093D50856C32A
:100630008091D5089091D60801969093D608809322
:10064000D508C3C38091D5089091D60801969093A0
:10065000D6088093D5082EC4E0913B098E2F90E0F8
:100660008B30910508F075C4FC01E05BFF4F0C94E2
:10067000530E8091DD08811117C01092D608109298
:10068000D5086FE071E081E099DE81E277DE1092BB
:10069000DC081092DB081092DA081092D90815B81D
:1006A00082E080933B0957C46DE271E081E086DE11
:1006B00081E264DE1092DC081092DB081092DA0806
:1006C0001092D90881E085B980933B0944C4809198
:1006D0000001811108C082E0809300011092DD08C2
:1006E00010923B0938C480B1809585FF05C01092F7
:1006F000DD0810923B092FC48091DD0881112BC4C5
:1007000010923B0928C480910001813049F482E0B5
:100710008093000181E08093DD0810923B091BC4A7
:100720008091DD08813031F410923B0982E08093A2
:10073000000111C48091D908813009F00CC41092D5
:10074000D6081092D50867E471E038DE81E216DE43
:100750001092DC081092DB081092DA081092D90887
:1007600083E080933B09F7C38091D5089091D60828
:10077000843F9140B0F01092D6081092D5081092A4
:10078000DC081092DB081092DA081092D9086FE0AA
:1007900071E081E013DE81E2F1DD82E080933B09CC
:1007A000DAC380910001813049F482E08093000136
:1007B00081E08093DD0810923B09CDC38091DD0874
:1007C000813031F482E08093000110923B09C3C371
:1007D0008091D9088130A9F41092D6081092D508DA
:1007E0001092DC081092DB081092DA081092D908F7
:1007F0006FE571E0E3DD81E2C1DD87E080933B09D5
:10080000AAC38091DA088130A9F41092D608109218
:10081000D5081092DC081092DB081092DA081092CA
:10082000D9086FE071E0CADD81E2A8DD82E0809343
:100830003B0991C38091DC08813009F08CC3109290
:10084000D6081092D5081092DC081092DB0810929E
:10085000DA081092D90867E771E0B0DD81E28EDD39
:1008600084E080933B0977C38091D5089091D608A6
:10087000843F9140C0F01092D6081092D508109293
:10088000DC081092DB081092DA081092D9086FE0A9
:1008900071E081E093DD81E271DD82E0809300010F
:1008A00080933B0958C38091D9088130A9F41092F4
:1008B000D6081092D5081092DC081092DB0810922E
:1008C000DA081092D90868E971E078DD81E256DD36
:1008D00085E080933B093FC38091DC088130F9F4C7
:1008E0001092D30860E081E090E00E947A0E1092AE
:1008F000D6081092D5081092DC081092DB081092EE
:10090000DA081092D9086FE071E081E057DD81E2EA
:1009100035DD82E08093000180933B091CC3809108
:10092000DB08813009F017C31092D6081092D50861
:100930001092DC081092DB081092DA081092D908A5
:1009400067E471E03BDD81E219DD82E08093000124
:1009500083E080933B09FFC28091D5089091D6082F
:10096000843F9140C0F01092D6081092D5081092A2
:10097000DC081092DB081092DA081092D9086FE0B8
:1009800071E081E01BDD81E2F9DC82E0809300010F
:1009900080933B09E0C28091D9088130C1F4109264
:1009A000D6081092D5081092DC081092DB0810923D
:1009B000DA081092D90869EB71E000DD81E2DEDC33
:1009C00082E08093000186E080933B09C4C280915D
:1009D000DA088130C1F41092D6081092D50810922E
:1009E000DC081092DB081092DA081092D90867E749
:1009F00071E0E4DC81E2C2DC82E08093000184E00B
:100A000080933B09A8C28091DC088130F9F480937F
:100A1000D30861E081E090E00E947A0E1092D6083F
:100A20001092D5081092DC081092DB081092DA08B8
:100A30001092D9086FE071E081E0C0DC81E29EDCB9
:100A400082E08093000180933B0985C28091DB089E
:100A5000813009F080C21092D6081092D508109209
:100A6000DC081092DB081092DA081092D90867E4CB
:100A700071E0A4DC81E282DC82E08093000183E00B
:100A800080933B0968C28091D5089091D608843F35
:100A90009140C0F01092D6081092D5081092DC0850
:100AA0001092DB081092DA081092D9086FE071E01A
:100AB00081E084DC81E262DC82E08093000180934B
:100AC0003B0949C28091DA088130A9F41092D60816
:100AD0001092D5081092DC081092DB081092DA0808
:100AE0001092D90868E971E069DC81E247DC85E0B1
:100AF00080933B0930C28091DC088130F9F4C2E078
:100B0000C093D30862E081E090E00E947A0E1092D8
:100B1000D6081092D5081092DC081092DB081092CB
:100B2000DA081092D9086FE071E081E047DC81E2D9
:100B300025DCC0930001C0933B090DC28091DB0806
:100B4000813009F008C21092D6081092D508109290
:100B5000DC081092DB081092DA081092D90867E4DA
:100B600071E02CDC81E20ADC82E08093000183E00A
:100B700080933B09F0C18091D5089091D608843FBD
:100B80009140B0F01092D6081092D5081092DC086F
:100B90001092DB081092DA081092D9086FE071E029
:100BA00081E00CDC81E2EADB82E080933B09D3C187
:100BB00080910001813049F482E08093000181E05E
:100BC0008093DD0810923B09C6C18091DD08813019
:100BD00031F482E08093000110923B09BCC1809106
:100BE000D908813009F047C01092D6081092D50874
:100BF0001092DC081092DB081092DA081092D908E3
:100C00008091D40881111AC08091D308811107C046
:100C10006AED71E081E0D2DB81E2B0DB28C0813097
:100C200031F467EF71E0CADB81E2A8DB20C064E148
:100C300072E081E0C3DB81E2A1DB19C08091D308BF
:100C4000811107C061E372E081E0B8DB81E296DBED
:100C50000EC0813031F46EE472E0B0DB81E28EDBF5
:100C600006C06BE672E081E0A9DB81E287DB8AE007
:100C700080933B0970C18091DA088130A9F4109209
:100C8000D6081092D5081092DC081092DB0810925A
:100C9000DA081092D90867E471E090DB81E26EDB3C
:100CA00083E080933B0957C18091DC08813009F0D3
:100CB00052C11092D6081092D5081092DC081092FA
:100CC000DB081092DA081092D90868E872E076DB47
:100CD00081E254DB88E080933B093DC18091D508D7
:100CE0009091D608843F9140C0F01092D60810929F
:100CF000D5081092DC081092DB081092DA081092E6
:100D0000D9086FE071E081E059DB81E237DB82E0F6
:100D10008093000180933B091EC18091DC088130E3
:100D2000F1F41092D40860E080E090E0E3D71092F4
:100D3000D6081092D5081092DC081092DB081092A9
:100D4000DA081092D9086FE071E081E037DB81E2C8
:100D500015DB82E08093000180933B09FCC0809109
:100D6000DB088130C1F41092D6081092D508109299
:100D7000DC081092DB081092DA081092D9086FE5AF
:100D800071E01CDB81E2FADA82E08093000187E007
:100D900080933B09E0C08091D908813009F0DBC025
:100DA0001092D6081092D5081092DC081092DB0839
:100DB0001092DA081092D90865EA72E0FFDA81E24F
:100DC000DDDA89E080933B09C6C08091D508909117
:100DD000D608843F9140C0F01092D6081092D508F2
:100DE0001092DC081092DB081092DA081092D908F1
:100DF0006FE071E081E0E2DA81E2C0DA82E08093C4
:100E0000000180933B09A7C08091DC088130F1F498
:100E10008093D40861E080E090E06CD71092D6080F
:100E20001092D5081092DC081092DB081092DA08B4
:100E30001092D9086FE071E081E0C0DA81E29EDAB9
:100E400082E08093000180933B0985C08091DB089C
:100E50008130C1F41092D6081092D5081092DC08A7
:100E60001092DB081092DA081092D9086FE571E051
:100E7000A5DA81E283DA82E08093000187E0809343
:100E80003B0969C08091DA08813009F064C0109292
:100E9000D6081092D5081092DC081092DB08109248
:100EA000DA0868E872E08ADA81E268DA88E080933A
:100EB0003B0951C08091D5089091D608843F91405C
:100EC000C0F01092D6081092D5081092DC0810924B
:100ED000DB081092DA081092D9086FE071E081E027
:100EE0006DDA81E24BDA82E08093000180933B0966
:100EF00032C080910001813049F482E0809300018A
:100F000081E08093DD0810923B0925C08091DD08C7
:100F1000813031F482E08093000110923B091BC0C4
:100F20008091DA088130B9F41092D6081092D50871
:100F30001092DC081092DB081092DA081092D9089F
:100F40006FE571E03BDA81E219DA87E080933B09D3
:100F500002C010923B09CF91089510923B0919DB12
:100F60008AE090E0DFD5FBCFAF92BF92CF92DF92C5
:100F7000EF92FF920F93A12CB12CC12CD12CE12C1C
:100F8000F12C082F20E030E045E550E062EC72E003
:100F90008DEA97E04FD30F91FF90EF90DF90CF90C5
:100FA000BF90AF90089580913A09882321F0813055
:100FB00009F4B4C0B7C08091DD08811157C0809199
:100FC000D408811129C08091D30881110BC0809170
:100FD0000101811103C01092D708ABC080E180935A
:100FE000D708A7C0813061F480910101811104C04C
:100FF00082E08093D7089DC082E18093D70899C092
:1010000080910101811104C084E08093D70891C0D0
:1010100084E18093D7088DC08091D30881110CC0E2
:1010200080910101811104C088E08093D70881C0BC
:1010300088E18093D7087DC0813061F480910101FF
:10104000811104C08AE08093D70873C08AE180933D
:10105000D7086FC080910101811104C08CE080939A
:10106000D70867C08CE18093D70863C08091D4080B
:1010700081112AC08091D30881110CC08091010197
:10108000811104C081E08093D70853C081E8809328
:10109000D7084FC0813061F480910101811104C0F3
:1010A00083E08093D70845C083E88093D70841C088
:1010B00080910101811104C085E08093D70839C077
:1010C00085E88093D70835C08091D30881110CC082
:1010D00080910101811104C089E08093D70829C063
:1010E00089E88093D70825C0813061F4809101019F
:1010F000811104C08BE08093D7081BC08BE88093DC
:10110000D70817C080910101811104C08DE0809340
:10111000D7080FC08DE88093D7080BC060E080919E
:10112000D708E9D880913A09882319F0813049F02D
:101130000FC08091C00085FF0DC081E080933A0907
:1011400008958091C00086FF05C010923A09089565
:1011500010923A09089510923A0925DF8AE090E04A
:10116000E1D4FBCFAF92BF92CF92DF92EF92FF928A
:101170000F93A12CB12CC12CD12CE12CF12C082FD8
:1011800020E030E045E550E06EEC72E08BEA98E05C
:1011900051D20F91FF90EF90DF90CF90BF90AF9022
:1011A000089580913809813031F480E0B6D8809379
:1011B000D80880E083D880913809882319F01092EC
:1011C000380908958091C00088231CF481E0809341
:1011D0003809089510923809E4DF8AE090E0A2D43B
:1011E000FBCFAF92BF92CF92DF92EF92FF920F931D
:1011F000A12CB12CC12CD12CE12CF12C082F20E0FA
:1012000030E045E550E06FED72E08AEE98E012D2F2
:101210000F91FF90EF90DF90CF90BF90AF90089527
:1012200080913909813099F478D88093D2088F3031
:1012300021F481E08093000108C0803F19F41092EE
:10124000000103C082E08093000181E037D88091E3
:101250003909882319F01092390908958091C8003E
:1012600088231CF481E0809339090895109239098C
:10127000D7DF8AE090E056D4FBCFAF92BF92CF92F7
:10128000DF92EF92FF920F93A12CB12CC12CD12CA5
:10129000E12CF12C082F20E030E045E550E06BED2B
:1012A00072E086E399E0C6D10F91FF90EF90DF9056
:1012B000CF90BF90AF90089511B88FEF82B987B9E2
:1012C00018B88AB91BB884B915B880E090E00AD57F
:1012D0008093D40881E090E005D58093D30856D858
:1012E0006AEE72E081E06AD881E248D880E00E942C
:1012F0003C0181E00E943C0181E02BD981E034DE99
:1013000081E030DF81E06DDF81E0B7DF94D280E003
:1013100090E0089531E1FC013083319722E220838F
:101320003197A3E3A083319760833197708331971E
:101330001082319760E8608331971082319762E0C4
:101340006083319763E06083319764E06083319715
:1013500065E06083319766E06083319767E0608382
:10136000319768E06083319769E06083319760E18D
:10137000608331973083319732E13083319733E1A5
:101380003083319734E13083319735E130833197C1
:1013900036E13083319737E13083319738E130835C
:1013A000319739E13083319730E23083319731E240
:1013B000308331972083319723E220833197408314
:1013C00031975083319726E22083319727E220839B
:1013D000319728E22083319729E22083319720E357
:1013E0002083319721E32083869708951092890006
:1013F0008CE7809388008BE080938100EFE6F0E03B
:10140000808182608083A0913609B0913709CD91A7
:10141000CDBFDD91DEBFFF91EF91DF91CF91BF9105
:10142000AF919F918F917F916F915F914F913F917C
:101430002F911F910F91FF90EF90DF90CF90BF9071
:10144000AF909F908F907F906F905F904F903F9064
:101450002F901F900F900FBE0F90089581E0089578
:101460000F920FB6F8940F921F9211242F923F9271
:101470004F925F926F927F928F929F92AF92BF92A4
:10148000CF92DF92EF92FF920F931F932F933F9390
:101490004F935F936F937F938F939F93AF93BF937C
:1014A000CF93DF93EF93FF93A0913609B091370963
:1014B0000DB60D920EB60D928AD3A0913609B09159
:1014C0003709CD91CDBFDD91DEBFFF91EF91DF9167
:1014D000CF91BF91AF919F918F917F916F915F91CC
:1014E0004F913F912F911F910F91FF90EF90DF90BF
:1014F000CF90BF90AF909F908F907F906F905F90B4
:101500004F903F902F901F900F900FBE0F90089517
:101510000F920FB6F8940F921F9211242F923F92C0
:101520004F925F926F927F928F929F92AF92BF92F3
:10153000CF92DF92EF92FF920F931F932F933F93DF
:101540004F935F936F937F938F939F93AF93BF93CB
:10155000CF93DF93EF93FF93A0913609B0913709B2
:101560000DB60D920EB60D9295D131D3A0913609DC
:10157000B0913709CD91CDBFDD91DEBFFF91EF91E5
:10158000DF91CF91BF91AF919F918F917F916F919B
:101590005F914F913F912F911F910F91FF90EF908D
:1015A000DF90CF90BF90AF909F908F907F906F9083
:1015B0005F904F903F902F901F900F900FBE0F9015
:1015C0000895A6DF1895CF93DF93EC01E0913609DB
:1015D000F0913709938382838091E6089091E70820
:1015E000C817D90768F4609136097091370980915E
:1015F000FC089091FD086E5F7F4F0E94DB0017C0D2
:1016000060913609709137098091FE089091FF082A
:101610006E5F7F4F0E94DB00809102019091030179
:10162000C817D90720F4D0930301C0930201DF91BA
:10163000CF9108954F925F926F927F928F929F9277
:10164000AF92BF92CF92DF92EF92FF920F931F93D0
:10165000CF93DF935C014B013A01290181E290E0D5
:101660000E947B00EC01892B09F4D3C0C114D10482
:1016700009F0CBC0C3010E947B00988F8F8B00972D
:1016800021F4CE010E94A100C4C0A30165EA70E06C
:1016900013D39301215031098F89988D3C01620E3B
:1016A000731E48E050E0B401CE0149960CD318A255
:1016B000102F043008F013E01E8B6E0182E0C80E7C
:1016C000D11CC6010E94B000CE010C960E94B00051
:1016D000D987C88784E090E0811B91099D878C871A
:1016E000DB8BCA8BA201B501C30114DE9983888309
:1016F000E114F10419F0F701D183C0830FB6F89417
:101700000F928091E8088F5F8093E80880913609F6
:1017100090913709892BA9F5D0933709C0933609E1
:101720008091E8088130E1F582E199E00E94A20011
:101730008BE199E00E94A20084E299E00E94A2005D
:101740008DE299E00E94A20089E099E00E94A20047
:1017500080E099E00E94A20083EF98E00E94A2003E
:101760008AEE98E00E94A20089E099E09093FF0839
:101770008093FE0880E099E09093FD088093FC0838
:101780000FC08091E30881110BC0E0913609F09100
:1017900037098689081720F0D0933709C093360996
:1017A0008E899091E508981710F48093E508909140
:1017B000DE089F5F9093DE089091E408981710F47C
:1017C0008093E40890E09C01220F331F220F331F07
:1017D000220F331F820F931FB6018E5E964F0E9419
:1017E000B4000F900FBE8091E308882351F0E09180
:1017F0003609F09137098689801728F431DE81E0B7
:1018000009C081E007C081E005C0D88ECF8AC6013B
:101810003CCF8FEFDF91CF911F910F91FF90EF9011
:10182000DF90CF90BF90AF909F908F907F906F9000
:101830005F904F900895AF92BF92CF92DF92EF9258
:10184000FF920F93A12CB12CC12CD12CE12CF12CA7
:1018500000E020E030E045E550E06FEE72E08EEA17
:101860009DE0E8DE813041F4F8948093E308109223
:10187000E7081092E608BADD0F91FF90EF90DF9035
:10188000CF90BF90AF9008958091E2088F5F8093D2
:10189000E20808950F931F93CF93DF938091E2089E
:1018A0008111B2C08091E6089091E708019690936B
:1018B000E7088093E6088091E6089091E708892B75
:1018C00099F58091FE089091FF082091FC083091D5
:1018D000FD083093FF082093FE089093FD08809345
:1018E000FC088091DF088F5F8093DF08E091FE089D
:1018F000F091FF088081811107C08FEF9FEF9093D7
:1019000003018093020110C0E091FE08F091FF08EE
:101910000580F681E02D0680F781E02D828193819C
:1019200090930301809302012091E6083091E7082B
:1019300080910201909103012817390708F469C0CA
:10194000E091FE08F091FF088081882399F0E091F2
:10195000FE08F091FF080580F681E02DC681D78151
:101960008A819B812091E6083091E7082817390782
:10197000F8F419C08FEF9FEF909303018093020159
:1019800048C0E091FE08F091FF080580F681E02D47
:10199000C681D7818A819B812091E6083091E70832
:1019A0002817390728F4909303018093020131C06E
:1019B0008E010E5F1F4FC8010E9416018C899D8900
:1019C000892B21F0CE010C960E9416018E899091F0
:1019D000E408981710F48093E40890E09C01220F2B
:1019E000331F220F331F220F331F820F931FB801A3
:1019F0008E5E964F0E94B400E091FE08F091FF08C1
:101A000080818111BECFB6CF8091E1088F5F809336
:101A1000E108DF91CF911F910F910895CF92DF924E
:101A2000EF92FF920F931F93CF93DF930FB6F8942B
:101A30000F928091E20881508093E2088091E20841
:101A4000811162C08091E808811132C060C0D70165
:101A50001596ED91FC911697C681D781CE010C9613
:101A60000E9416018E010E5F1F4FC8010E941601D1
:101A70008E899091E408981710F48093E40890E020
:101A80009C01220F331F220F331F220F331F820F9F
:101A9000931FB8018E5E964F0E94B400E091360904
:101AA000F09137099E898689981758F0DC2C09C077
:101AB000D12C0F2EF3EFEF2EF8E0FF2EF02DCC24DB
:101AC000C394F70180818111C2CF8091E1088823FE
:101AD00079F08091E108882391F0DCDE8091E108C3
:101AE00081508093E1088091E1088111F6CF07C011
:101AF000F1E0DF1621F08091E008813039F4109296
:101B0000E008AEDC81E003C080E001C080E00F901F
:101B10000FBEDF91CF911F910F91FF90EF90DF905B
:101B2000CF900895CF93DF93EC01892B99F0ACDE31
:101B30008091E6089091E708C80FD91F8091360977
:101B40009091370902960E941601CE013CDD66DFB6
:101B5000811101C085DCDF91CF9108950F2EFAEE3F
:101B6000EF2EF8E0FF2EF02DC2E1D9E08091E908D8
:101B7000882341F189DED7011C9150DF112311F137
:101B80000FB6F8940F92D7011596ED91FC91169728
:101B900006811781C80102960E9416018091E8080B
:101BA00081508093E8088091E90881508093E9088A
:101BB0000F900FBEF8018789908D0E94A100C80187
:101BC0000E94A1008881823088F24ADCCFCF8091C8
:101BD000E208811113C08091E40890E0FC01EE0F4F
:101BE000FF1FEE0FFF1FEE0FFF1F8E0F9F1FFC0149
:101BF000EE5EF64F8081882329F01BC081E0809340
:101C0000E00808958091E40881508093E408809171
:101C1000E40890E0FC01EE0FFF1FEE0FFF1FEE0F38
:101C2000FF1F8E0F9F1FFC01EE5EF64F8081882301
:101C300049F38091E40890E09C01220F331F220FAA
:101C4000331F220F331F280F391FD901AE5EB64F45
:101C50001196ED91FC9112970280F381E02D12967E
:101C6000FC93EE9311972B5E364FE217F30729F49E
:101C700022813381FD0132832183FC01EE0FFF1F9E
:101C8000EE0FFF1FEE0FFF1F8E0F9F1FFC01EE5E7A
:101C9000F64F0180F281E02D86819781909337097C
:101CA000809336090895EE0FFF1F0024001C0BBE21
:101CB0000790F691E02D0994DC0101C06D9341502D
:101CC0005040E0F70895FB01DC014150504048F0DE
:101CD00001900D920020C9F701C01D924150504063
:101CE000E0F70895F999FECF92BD81BDF89A992742
:101CF00080B50895262FF999FECF1FBA92BD81BDF8
:101D000020BD0FB6F894FA9AF99A0FBE019608957D
:041D1000F894FFCF75
:101D14000201FFFF427574746F6E5461736B00446B
:101D24006F672053797374656D2069732020204F89
:101D3400464620574F4F4620574F4F4600446F6743
:101D44002053797374656D206973204F4E574F4F3C
:101D54004620574F4F4600446F672074696D696E83
:101D64006720202020202073657474696E67004406
:101D74006F67206261726B20202020202020207356
:101D8400657474696E670044656C6179206163747D
:101D940069766174696F6E6279202D3E352C31301D
:101DA4002C3135207365630044656C61792061636F
:101DB4007469766174696F6E627920352C2D3E31B9
:101DC400302C3135207365630044656C6179206182
:101DD400637469766174696F6E627920352C313071
:101DE4002C2D3E313520736563004261726B2044B3
:101DF400656C61792035207365634261726B203DA7
:101E0400204D696E6F72004261726B2044656C6193
:101E1400792031307365634261726B203D204D69D6
:101E24006E6F72004261726B2044656C617920317F
:101E3400357365634261726B203D204D696E6F722C
:101E4400004261726B2044656C61792035207365B2
:101E5400634261726B203D204D616A6F7200426182
:101E6400726B2044656C6179203130736563426123
:101E7400726B203D204D616A6F72004261726B206B
:101E840044656C61792031357365634261726B20FE
:101E94003D204D616A6F72002D3E4D696E6F722058
:101EA4004261726B2020202020204D616A6F7220D5
:101EB4004261726B0020204D696E6F722042617224
:101EC4006B202020202D3E4D616A6F72204261728A
:101ED4006B004D454E555365635461736B005472EA
:101EE400616E735365635461736B00426C75655224
:101EF40065635365635461736B00544553540049DF
:041F0400444C450004
:00000001FF
