:1000000053C000006FC000006DC000006BC0000056
:1000100069C0000067C0000065C0000063C0000048
:1000200061C000005FC000005DC000005BC0000058
:1000300059C000000C946E0855C0000053C0000069
:1000400051C000004FC000004DC000004BC0000078
:1000500049C0000047C0000045C0000043C0000088
:1000600041C000003FC000003DC000003BC0000098
:1000700039C0000037C0000035C0000033C00000A8
:1000800031C000002FC000002DC0000011051A056E
:100090004B0552055C056A057A059305A905D70548
:1000A000EC05FF0518064D0611241FBECFEFD0E466
:1000B000DEBFCDBF11E0A0E0B1E0E0EBF9E100E090
:1000C0000BBF02C007900D92A63BB107D9F728E0FD
:1000D000A6EBB1E001C01D92A731B207E1F784D6CB
:1000E0000C94D60C8DCFCF93DF93EC010E94CF09F7
:1000F0002091B6013091B701C9018C0F9D1F8C3D35
:1001000045E0940758F42817390758F4E901C85412
:10011000DE4F9093B7018093B60105C0C0E0D0E0F8
:1001200002C0C0E0D0E00E94990ACE01DF91CF91D9
:1001300008950895FC010396928381832FEF3FEF8A
:1001400034832383968385839087878310820895E1
:10015000FC01118610860895CF93DF93FC01DB012B
:1001600021813281E9018A819B8113969C938E9330
:1001700012978181928115969C938E9314978A8110
:100180009B81EC017D836C83E9017B836A837283AD
:1001900061831996FC93EE93189780818F5F80831B
:1001A000DF91CF910895CF93DF93EB01488159817F
:1001B0004F3F2FEF520731F4DC011796ED91FC9180
:1001C000189717C0FC013396DC0115962D913C91D0
:1001D0001697D9012D913C914217530750F0028098
:1001E000F381E02DA281B3812D913C9142175307F9
:1001F000B0F7A281B381BB83AA831596DC93CE931B
:100200001497FD83EC83D383C28399878887FC018D
:1002100020812F5F2083DF91CF910895FC01A2817F
:10022000B3818481958115969C938E931497A481B4
:10023000B5818281938113969C938E931297A085AA
:10024000B18511968D919C911297E817F90731F4B9
:100250008481958112969C938E93119711861086B6
:100260008C9181508C930895813081F0E1ECF0E025
:10027000808188618083E2ECF0E080818660808309
:1002800083E38093C4001092C5000895E9ECF0E088
:10029000808188618083EAECF0E0808186608083E1
:1002A00083E38093CC001092CD000895813029F42F
:1002B0008091C800882374F008958091C00088233D
:1002C0008CF4A6ECB0E0E0ECF0E08C918081882327
:1002D000E4F30895AEECB0E0E8ECF0E08C918081BE
:1002E0008823E4F30895813041F0E0ECF0E0808170
:1002F0008823ECF78091C6000895E8ECF0E0808157
:100300008823ECF78091CE0008950E94550C6AE096
:1003100070E00C94DE0B089580911308813019F081
:10032000823099F024C0E091AA07F0E0E75FFE4F29
:10033000808185B98091AA07833019F41092AA07A9
:1003400016C08F5F8093AA0712C0E091AA07F0E061
:10035000E75FFE4F808185B98091AA07811104C0B3
:1003600083E08093AA0703C081508093AA078091FD
:100370001308813099F018F0823079F14AC08091E9
:10038000A507882309F447C081E0809313081092E1
:10039000AA071092A9071092A80708958091A807AC
:1003A0009091A90701969093A9078093A80720919F
:1003B0000701309108018217930724F481E08093AC
:1003C0001308089582E08093130883E08093AA07BE
:1003D0001092A9071092A80708958091A8079091FC
:1003E000A90701969093A9078093A8072091070178
:1003F000309108018217930724F482E08093130858
:1004000008951092130881E08093A4071092A50725
:100410000895109213080895109213087DDF81E06B
:1004200090E00E941D0BFACFAF92BF92CF92DF9265
:10043000EF92FF920F93A12CB12CC12CD12CE12C67
:10044000F12C082F20E030E045E550E060E171E05C
:100450008CE092E07AD60F91FF90EF90DF90CF90F2
:10046000BF90AF90089580911408813061F018F02A
:10047000823011F135C08091AF07882399F181E076
:100480008093140808958091AF07811103C01092E2
:10049000140808953ADF9093A7078093A607029760
:1004A0003CF081E08093A50782E0809314080895D2
:1004B00081E08093140808958091A407813091F41D
:1004C0008091AF07813029F41092A407809314081B
:1004D0000895811107C01092A4071092140808957E
:1004E00010921408089510921408BDDF84EF91E073
:1004F0000E941D0BFACFAF92BF92CF92DF92EF9284
:10050000FF920F93A12CB12CC12CD12CE12CF12CFA
:10051000082F20E030E045E550E06DE171E083E731
:1005200092E013D60F91FF90EF90DF90CF90BF90A5
:10053000AF90089580910E08811128C080919E0788
:1005400090919F078130910551F41092A30710926A
:10055000060181E08093A2078093A10719C002974A
:1005600059F481E08093A307109206011092A2072C
:1005700082E08093A1070CC01092A3071092A207FB
:1005800081E0809306011092A10702C0811103C08F
:1005900010920E08089510920E08089510920E08F9
:1005A000C9DF81E090E00E941D0BFACFAF92BF92AD
:1005B000CF92DF92EF92FF920F93A12CB12CC12C1E
:1005C000D12CE12CF12C082F20E030E045E550E063
:1005D00067E371E08EEC92E0B8D50F91FF90EF9059
:1005E000DF90CF90BF90AF9008958091110888233D
:1005F00019F08130C1F036C08091A207811104C08A
:100600008091A307882359F081E08093110810920C
:10061000A007409A80911108813039F108954098DF
:100620001092110808958091A0079091A107891751
:1006300078F49091A207911104C09091A307992397
:1006400039F08F5F8093A00781E0809311080DC07F
:100650001092A207109206011092A30740981092E0
:1006600011080895109211080895809106018823B9
:1006700049F01092A207109206011092A307409829
:1006800010921108089510921108AFDF81E090E0F8
:10069000D4D7FBCFAF92BF92CF92DF92EF92FF926F
:1006A0000F93A12CB12CC12CD12CE12CF12C082FB3
:1006B00020E030E045E550E069E471E083E493E058
:1006C00044D50F91FF90EF90DF90CF90BF90AF9007
:1006D000089580911508813069F018F0823089F111
:1006E00054C08091AF07882309F451C081E0809302
:1006F000150808958091AF07811103C01092150865
:10070000089503DE90939D0780939C070897ACF0B3
:1007100082E08093150880910D01813039F481E0E9
:1007200090E090939F0780939E07089582E090E069
:1007300090939F0780939E07089581E0809315080A
:100740000895E3DD90939D0780939C07039724F41D
:100750008091AF07811115C081E0809315088091C9
:100760000D01813039F482E090E090939F078093EF
:100770009E07089581E090E090939F0780939E07E5
:10078000089582E080931508089510921508089541
:10079000109215089EDF84EF91E04FD7FBCFAF9208
:1007A000BF92CF92DF92EF92FF920F93A12CB12CC8
:1007B000C12CD12CE12CF12C082F20E030E045E5B4
:1007C00050E066E571E088EC93E0BFD40F91FF90B4
:1007D000EF90DF90CF90BF90AF9008958091120876
:1007E000882319F0813029F00BC088B18C6088B95A
:1007F00007C08091B007813011F4439801C042983E
:1008000080911208882319F0813041F00EC0809148
:10081000AF07813061F48093120808958091AF078B
:10082000813029F01092120808951092120808954C
:1008300010921208D3DF8AE090E0FFD6FBCFAF9290
:10084000BF92CF92DF92EF92FF920F93A12CB12C27
:10085000C12CD12CE12CF12C082F20E030E045E513
:1008600050E06EE671E088E194E06FD40F91FF9064
:10087000EF90DF90CF90BF90AF90089580911608D1
:10088000882319F0813021F00CC010929B070EC014
:10089000009904C081E080939B0712C010929B07CF
:1008A0000FC0882319F08130A9F40AC08091B207E3
:1008B000813019F48093160808951092160808954F
:1008C0008091B207813019F4809316080895109230
:1008D0001608089510921608089510921608CEDF93
:1008E0008AE090E0AAD6FBCFAF92BF92CF92DF9280
:1008F000EF92FF920F93A12CB12CC12CD12CE12CA3
:10090000F12C082F20E030E045E550E06BE771E086
:100910008DE694E01AD40F91FF90EF90DF90CF9086
:10092000BF90AF90089580910D08882319F0823010
:1009300059F013C080919807909199070196909370
:100940009907809398070FC0029B04C081E08093B1
:100950009A0725C010929A0722C08130B1F018F092
:10096000823049F51CC08091980790919907803298
:100970009E441CF410920D08089581E080930D08A8
:10098000109299071092980708958091B2078130CC
:10099000A9F410929A0782E080930D08089580913F
:1009A000B207813021F482E080930D08089581E040
:1009B00080930D08089581E080930D0808951092AA
:1009C0000D08B1DF81E090E038D6FBCFAF92BF9247
:1009D000CF92DF92EF92FF920F93A12CB12CC12CFA
:1009E000D12CE12CF12C082F20E030E045E550E03F
:1009F00067E871E08FED94E0A8D30F91FF90EF903E
:100A0000DF90CF90BF90AF900895E0910F088E2FA8
:100A100090E08730910508F07AC0FC01EA5BFF4F57
:100A2000E0C685B18F7085B985B1806F85B91092A8
:100A3000AF076DC08091AC079091AD0701968F30E4
:100A400027E292072CF49093AD078093AC0704C083
:100A50001092AD071092AC078091B107811107C0C9
:100A600085E090E090930501809304010FC08130F0
:100A700039F48AE090E0909305018093040106C068
:100A80008FE090E0909305018093040185B18F7011
:100A900085B92C9A3CC085B18F7085B985B18065C8
:100AA00085B935C0809194079091950701969093F0
:100AB00095078093940790C085B18F7085B92D9A62
:100AC000809196079091970701969093970780934E
:100AD00096071DC085B18F7085B985B1806385B9D2
:100AE000809196079091970701969093970780932E
:100AF00096070DC085B18F7085B92E9A80919607A3
:100B00009091970701969093970780939607E091AD
:100B10000F088E2F90E08730910508F0D9C0FC01B6
:100B2000E35BFF4F5EC68091B207813009F0D0C011
:100B300080930F081092AF071092970710929607B4
:100B400010929507109294071092AD071092AC077F
:100B500008958091B207811103C010920F08089583
:100B600080B190E0880F892F881F990B9195892B70
:100B700061F08091AE07813041F482E080930F08EC
:100B80001092950710929407089580919A078130EA
:100B900009F09EC084E080930F081092970710928E
:100BA00096078091AC079091AD0782C60895809119
:100BB000B207811103C010920F08089580B190E030
:100BC000880F892F881F990B9195892B09F080C078
:100BD00083E080930F0808958091B207811103C0CC
:100BE00010920F0808958091940790919507883886
:100BF00093410CF46DC081E080930F0808958091BB
:100C0000B207811103C010920F08089580919A07CE
:100C1000813059F480919B07882309F459C08130B1
:100C200021F485E080930F08089510920F0808952D
:100C30008091B207811107C0109297071092960712
:100C400010920F080895409104015091050188EE1B
:100C500093E0489F9001499F300D589F300D11241B
:100C60008091960790919707821793073CF086E052
:100C700080930F0881E08093AF07089580919A07D1
:100C8000813031F180919B07813011F110929707EB
:100C90001092960710920F0808958091B207811163
:100CA00003C010920F0808958091960790919707BE
:100CB00080329E446CF080919A07811109C081E0D6
:100CC00080930F0810929707109296071092AF0723
:100CD000089510920F0899DE81E090E0AED4FBCF2A
:100CE000AF92BF92CF92DF92EF92FF920F93A12C1F
:100CF000B12CC12CD12CE12CF12C082F20E030E0BC
:100D000045E550E066E971E089E696E01ED20F9174
:100D1000FF90EF90DF90CF90BF90AF9008958091BB
:100D20001008813061F580E0DEDA8093AB0780FF48
:100D300004C081E08093B20720C01092B20781FF07
:100D400004C021E02093B10708C082FF04C022E064
:100D50002093B10702C01092B10783FF04C021E0C5
:100D60002093B00702C01092B00784FF04C081E056
:100D70008093AE0702C01092AE0780E097DA8091B0
:100D80001008882319F01092100808958091C0006F
:100D900088231CF481E080931008089510921008B5
:100DA000BEDF8AE090E049D4FBCFAF92BF92CF92F2
:100DB000DF92EF92FF920F93A12CB12CC12CD12C7A
:100DC000E12CF12C082F20E030E045E550E065EA09
:100DD00071E08EEC96E0B9D10F91FF90EF90DF902B
:100DE000CF90BF90AF90089511B88FEF82B984B9BA
:100DF00015B887B918B88CE088B980E035DA81E099
:100E0000D4DF81E071DD81E0E1DD81E069DF81E057
:100E10000BDB81E070DB81E0C2DC81E0C7DB81E0DD
:100E200039DC81E00CDD92D280E090E0089531E180
:100E3000FC013083319722E220833197A3E3A08322
:100E4000319760833197708331971082319760E8D2
:100E5000608331971082319762E06083319763E05D
:100E60006083319764E06083319765E060833197F8
:100E700066E06083319767E06083319768E0608364
:100E8000319769E06083319760E160833197308307
:100E9000319732E13083319733E13083319734E158
:100EA0003083319735E13083319736E130833197A4
:100EB00037E13083319738E13083319739E130833E
:100EC000319730E23083319731E23083319720839C
:100ED000319723E2208331974083319750833197B4
:100EE00026E22083319727E22083319728E220836E
:100EF000319729E22083319720E32083319721E342
:100F0000208386970895109289008CE7809388004B
:100F10008BE080938100EFE6F0E080818260808347
:100F2000A0910B08B0910C08CD91CDBFDD91DEBF33
:100F3000FF91EF91DF91CF91BF91AF919F918F91F1
:100F40007F916F915F914F913F912F911F910F91E1
:100F5000FF90EF90DF90CF90BF90AF909F908F90D9
:100F60007F906F905F904F903F902F901F900F90C9
:100F70000FBE0F90089581E008950F920FB6F89478
:100F80000F921F9211242F923F924F925F926F9275
:100F90007F928F929F92AF92BF92CF92DF92EF9209
:100FA000FF920F931F932F933F934F935F936F93F2
:100FB0007F938F939F93AF93BF93CF93DF93EF93E1
:100FC000FF93A0910B08B0910C080DB60D920EB6D0
:100FD0000D9288D3A0910B08B0910C08CD91CDBF94
:100FE000DD91DEBFFF91EF91DF91CF91BF91AF9186
:100FF0009F918F917F916F915F914F913F912F9131
:101000001F910F91FF90EF90DF90CF90BF90AF9026
:101010009F908F907F906F905F904F903F902F9018
:101020001F900F900FBE0F9008950F920FB6F89477
:101030000F921F9211242F923F924F925F926F92C4
:101040007F928F929F92AF92BF92CF92DF92EF9258
:10105000FF920F931F932F933F934F935F936F9341
:101060007F938F939F93AF93BF93CF93DF93EF9330
:10107000FF93A0910B08B0910C080DB60D920EB61F
:101080000D9293D12FD3A0910B08B0910C08CD9164
:10109000CDBFDD91DEBFFF91EF91DF91CF91BF9189
:1010A000AF919F918F917F916F915F914F913F9100
:1010B0002F911F910F91FF90EF90DF90CF90BF90F5
:1010C000AF909F908F907F906F905F904F903F90E8
:1010D0002F901F900F900FBE0F900895A6DF1895C8
:1010E000CF93DF93EC01E0910B08F0910C08938310
:1010F00082838091BB079091BC07C817D90760F421
:1011000060910B0870910C088091D1079091D207E3
:101110006E5F7F4F48D816C060910B0870910C0825
:101120008091D3079091D4076E5F7F4F3CD8809118
:101130000E0190910F01C817D90720F4D0930F0129
:10114000C0930E01DF91CF9108954F925F926F92FD
:101150007F928F929F92AF92BF92CF92DF92EF9247
:10116000FF920F931F93CF93DF935C014B013A01E2
:10117000290181E290E00E947300EC01892B09F4BF
:10118000D3C0C114D10409F0CBC0C3010E947300C5
:10119000988F8F8B009721F4CE010E949900C4C0D4
:1011A000A30165EA70E08FD39301215031098F8943
:1011B000988D3C01620E731E48E050E0B401CE01F0
:1011C000499688D318A2102F043008F013E01E8B24
:1011D0006E0182E0C80ED11CC6010E94A800CE019B
:1011E0000C960E94A800D987C88784E090E0811BF4
:1011F00091099D878C87DB8BCA8BA201B501C30146
:1012000016DE99838883E114F10419F0F701D18384
:10121000C0830FB6F8940F928091BD078F5F8093C3
:10122000BD0780910B0890910C08892BA9F5D093EC
:101230000C08C0930B088091BD078130E1F587EE63
:1012400097E00E949A0080EF97E00E949A0089EF51
:1012500097E00E949A0082E098E00E949A008EED4A
:1012600097E00E949A0085ED97E00E949A0088EC32
:1012700097E00E949A008FEB97E00E949A008EED13
:1012800097E09093D4078093D30785ED97E09093F0
:10129000D2078093D1070FC08091B80781110BC08E
:1012A000E0910B08F0910C088689081720F0D09384
:1012B0000C08C0930B088E899091BA07981710F408
:1012C0008093BA079091B3079F5F9093B307909173
:1012D000B907981710F48093B90790E09C01220F8A
:1012E000331F220F331F220F331F820F931FB601AC
:1012F0008951984F0E94AC000F900FBE8091B807A3
:10130000882351F0E0910B08F0910C088689801732
:1013100028F433DE81E009C081E007C081E005C028
:10132000D88ECF8AC6013CCF8FEFDF91CF911F912E
:101330000F91FF90EF90DF90CF90BF90AF909F9074
:101340008F907F906F905F904F900895AF92BF9273
:10135000CF92DF92EF92FF920F93A12CB12CC12C70
:10136000D12CE12CF12C00E020E030E045E550E00C
:1013700060EB71E089E39BE0E8DE813041F4F894B2
:101380008093B8071092BC071092BB07BCDD0F9189
:10139000FF90EF90DF90CF90BF90AF900895809135
:1013A000B7078F5F8093B70708950F931F93CF936D
:1013B000DF938091B7078111B2C08091BB079091F4
:1013C000BC0701969093BC078093BB078091BB0735
:1013D0009091BC07892B99F58091D3079091D40700
:1013E0002091D1073091D2073093D4072093D307AF
:1013F0009093D2078093D1078091B4078F5F809339
:10140000B407E091D307F091D4078081811107C020
:101410008FEF9FEF90930F0180930E0110C0E0912A
:10142000D307F091D4070580F681E02D0680F7817F
:10143000E02D8281938190930F0180930E01209182
:10144000BB073091BC0780910E0190910F012817C6
:10145000390708F469C0E091D307F091D40780817F
:10146000882399F0E091D307F091D4070580F681A5
:10147000E02DC681D7818A819B812091BB07309165
:10148000BC0728173907F8F419C08FEF9FEF909326
:101490000F0180930E0148C0E091D307F091D4076B
:1014A0000580F681E02DC681D7818A819B812091BC
:1014B000BB073091BC072817390728F490930F0118
:1014C00080930E0131C08E010E5F1F4FC8010E9434
:1014D0000E018C899D89892B21F0CE010C960E94EA
:1014E0000E018E899091B907981710F48093B9076F
:1014F00090E09C01220F331F220F331F220F331F56
:10150000820F931FB8018951984F0E94AC00E0915F
:10151000D307F091D40780818111BECFB6CF8091DF
:10152000B6078F5F8093B607DF91CF911F910F9120
:101530000895CF92DF92EF92FF920F931F93CF9374
:10154000DF930FB6F8940F928091B7078150809384
:10155000B7078091B707811162C08091BD078111E3
:1015600032C060C0D7011596ED91FC911697C681E7
:10157000D781CE010C960E940E018E010E5F1F4F87
:10158000C8010E940E018E899091B907981710F436
:101590008093B90790E09C01220F331F220F331F65
:1015A000220F331F820F931FB8018951984F0E9459
:1015B000AC00E0910B08F0910C089E898689981781
:1015C00058F0DC2C09C0D12C0F2EF8ECEF2EF7E0F0
:1015D000FF2EF02DCC24C394F70180818111C2CF5E
:1015E0008091B607882379F08091B607882391F01F
:1015F000DCDE8091B60781508093B6078091B607F4
:101600008111F6CF07C0F1E0DF1621F08091B50718
:10161000813039F41092B507B0DC81E003C080E07E
:1016200001C080E00F900FBEDF91CF911F910F910D
:10163000FF90EF90DF90CF900895CF93DF93EC0170
:10164000892B99F0ACDE8091BB079091BC07C80F45
:10165000D91F80910B0890910C0802960E940E01F0
:10166000CE013EDD66DF811101C087DCDF91CF91C5
:1016700008950F2EFFEBEF2EF7E0FF2EF02DC7EEB3
:10168000D7E08091BE07882341F189DED7011C9104
:1016900050DF112311F10FB6F8940F92D701159670
:1016A000ED91FC91169706811781C80102960E9460
:1016B0000E018091BD0781508093BD078091BE07C8
:1016C00081508093BE070F900FBEF8018789908DDF
:1016D0000E949900C8010E9499008881823088F296
:1016E0004CDCCFCF8091B707811113C08091B9072F
:1016F00090E0FC01EE0FFF1FEE0FFF1FEE0FFF1F2C
:101700008E0F9F1FFC01E951F84F8081882329F03B
:101710001BC081E08093B50708958091B90781507F
:101720008093B9078091B90790E0FC01EE0FFF1F8D
:10173000EE0FFF1FEE0FFF1F8E0F9F1FFC01E951E1
:10174000F84F8081882349F38091B90790E09C018C
:10175000220F331F220F331F220F331F280F391F71
:10176000D901A951B84F1196ED91FC9112970280C1
:10177000F381E02D1296FC93EE9311972651384F8A
:10178000E217F30729F422813381FD01328321839B
:10179000FC01EE0FFF1FEE0FFF1FEE0FFF1F8E0F5E
:1017A0009F1FFC01E951F84F0180F281E02D8681F5
:1017B000978190930C0880930B08089597FB072E50
:1017C00016F4009406D077FD08D014D007FC05D09D
:1017D0003EF4909581959F4F0895709561957F4F48
:1017E0000895EE0FFF1F0024001C0BBE0790F6911A
:1017F000E02D0994AA1BBB1B51E107C0AA1FBB1F08
:10180000A617B70710F0A61BB70B881F991F5A958C
:10181000A9F780959095BC01CD0108958F929F9274
:10182000AF92BF92CF92DF92EF92FF92CF93DF936E
:10183000EC01688179818A819B816115710581053F
:10184000910521F464E279ED8BE597E02DE133EF2A
:1018500041E050E04ED049015A019B01AC01A7EA9A
:10186000B1E463D06B017C01ACEEB4EFA50194014F
:1018700068D0DC01CB018C0D9D1DAE1DBF1DB7FFD7
:1018800003C00197A109B04888839983AA83BB83C9
:101890009F77DF91CF91FF90EF90DF90CF90BF9037
:1018A000AF909F908F900895B9CF80E091E0B6CF30
:1018B000A0E0B0E08093000190930101A0930201A9
:1018C000B09303010895DC0101C06D934150504075
:1018D000E0F70895FB01DC014150504048F00190D1
:1018E0000D920020C9F701C01D9241505040E0F711
:1018F0000895052E97FB16F400940FD057FD05D0E0
:1019000024D007FC02D046F408C05095409530958D
:1019100021953F4F4F4F5F4F08959095809570955B
:1019200061957F4F8F4F9F4F089531D0A59F900DA8
:10193000B49F900DA49F800D911D11240895B7FFB1
:10194000F4CFF3DF821B930B0895A1E21A2EAA1B9A
:10195000BB1BFD010DC0AA1FBB1FEE1FFF1FA2175F
:10196000B307E407F50720F0A21BB30BE40BF50B5C
:10197000661F771F881F991F1A9469F760957095E5
:10198000809590959B01AC01BD01CF010895A29F68
:10199000B001B39FC001A39F700D811D1124911D43
:1019A000B29F700D811D1124911D0895F894FFCFF1
:1019B0000100000005000178000A05060901FFFF8B
:1019C0004D6F746F725365635461736B007374650C
:1019D000707065725F636F6E74726F6C6C6572535A
:1019E00065635461736B00534552564F44524956D8
:1019F000455365635461736B00534552564F5365AD
:101A0000635461736B00736572766F5F636F6E749E
:101A1000726F6C6C65725365635461736B004175D2
:101A200064696F5365635461736B004245414D5364
:101A300065635461736B00204D6F74696F6E5365FD
:101A4000635461736B00436F6E74726F6C536563A4
:101A50005461736B005265635365635461736B002B
:061A600049444C45000062
:00000001FF
