:100000004CC0000068C0000066C0000064C0000072
:1000100062C0000060C000005EC000005CC0000064
:100020005AC0000058C0000056C0000054C0000074
:1000300052C000000C9464084EC000004CC0000088
:100040004AC0000048C0000046C0000044C0000094
:1000500042C0000040C000003EC000003CC00000A4
:100060003AC0000038C0000036C0000034C00000B4
:1000700032C0000030C000002EC000002CC00000C4
:100080002AC0000028C0000026C000008D05A3057E
:10009000CD05E205F5050E06430611241FBECFEF80
:1000A000D0E4DEBFCDBF11E0A0E0B1E0ECE9F9E1C2
:1000B00000E00BBF02C007900D92A43BB107D9F737
:1000C00028E0A4EBB1E001C01D92A531B207E1F731
:1000D00081D60C94CC0C94CFCF93DF93EC010E948B
:1000E000C5092091B4013091B501C9018C0F9D1F44
:1000F0008C3D45E0940758F42817390758F4E90176
:10010000CA54DE4F9093B5018093B40105C0C0E09E
:10011000D0E002C0C0E0D0E00E948F0ACE01DF91A3
:10012000CF9108950895FC010396928381832FEF68
:100130003FEF348323839683858390878783108260
:100140000895FC01118610860895CF93DF93FC017A
:10015000DB0121813281E9018A819B8113969C9385
:100160008E9312978181928115969C938E9314970A
:100170008A819B81EC017D836C83E9017B836A83A7
:10018000728361831996FC93EE93189780818F5F39
:100190008083DF91CF910895CF93DF93EB01488166
:1001A00059814F3F2FEF520731F4DC011796ED9143
:1001B000FC91189717C0FC013396DC0115962D9120
:1001C0003C911697D9012D913C914217530750F05D
:1001D0000280F381E02DA281B3812D913C914217E1
:1001E0005307B0F7A281B381BB83AA831596DC9332
:1001F000CE931497FD83EC83D383C283998788873A
:10020000FC0120812F5F2083DF91CF910895FC01B5
:10021000A281B3818481958115969C938E931497C6
:10022000A481B5818281938113969C938E931297BA
:10023000A085B18511968D919C911297E817F907C9
:1002400031F48481958112969C938E931197118637
:1002500010868C9181508C930895813081F0E1EC6F
:10026000F0E0808188618083E2ECF0E0808186604C
:10027000808383E38093C4001092C5000895E9EC65
:10028000F0E0808188618083EAECF0E08081866024
:10029000808383E38093CC001092CD000895813059
:1002A00029F48091C800882374F008958091C000DB
:1002B00088238CF4A6ECB0E0E0ECF0E08C91808137
:1002C0008823E4F30895AEECB0E0E8ECF0E08C9124
:1002D00080818823E4F30895813041F0E0ECF0E080
:1002E00080818823ECF78091C6000895E8ECF0E067
:1002F00080818823ECF78091CE0008950E944B0CFA
:100300006AE070E00C94D40B08958091110881305C
:1003100019F0823099F024C0E091A807F0E0E75F7F
:10032000FE4F808185B98091A807833019F410921F
:10033000A80716C08F5F8093A80712C0E091A80796
:10034000F0E0E75FFE4F808185B98091A8078111B9
:1003500004C083E08093A80703C081508093A8075E
:1003600080911108813099F018F0823079F14AC0FB
:100370008091A307882309F447C081E08093110886
:100380001092A8071092A7071092A60708958091CF
:10039000A6079091A70701969093A7078093A607B9
:1003A00020910701309108018217930724F481E01E
:1003B00080931108089582E08093110883E0809370
:1003C000A8071092A7071092A60708958091A60784
:1003D0009091A70701969093A7078093A607209175
:1003E0000701309108018217930724F482E080937B
:1003F000110808951092110881E08093A2071092CD
:10040000A3070895109211080895109211087DDF36
:1004100081E090E00E94130BFACFAF92BF92CF928F
:10042000DF92EF92FF920F93A12CB12CC12CD12C13
:10043000E12CF12C082F20E030E045E550E06FE0A2
:1004400071E085E092E077D60F91FF90EF90DF901A
:10045000CF90BF90AF90089580911208813061F0E5
:1004600018F0823011F135C08091AC07882399F1E2
:1004700081E08093120808958091AC07811103C038
:100480001092120808953ADF9093A5078093A4076D
:10049000079739F481E08093A30782E080931208E4
:1004A000089581E08093120808958091A207813019
:1004B00091F48091AC07813029F41092A2078093C7
:1004C00012080895811107C01092A2071092120815
:1004D000089510921208089510921208BDDF84EF5B
:1004E00091E00E94130BFACFAF92BF92CF92DF92AE
:1004F000EF92FF920F93A12CB12CC12CD12CE12CA7
:10050000F12C082F20E030E045E550E06CE171E08F
:100510008CE692E010D60F91FF90EF90DF90CF9095
:10052000BF90AF90089580910C08811128C08091F0
:100530009C0790919D078130910551F41092A1077D
:100540001092060181E08093A00780939F0719C055
:10055000029759F481E08093A1071092060110924E
:10056000A00782E080939F070CC01092A107109211
:10057000A00781E08093060110929F0702C08111BD
:1005800003C010920C08089510920C080895109260
:100590000C08C9DF81E090E00E94130BFACFAF9204
:1005A000BF92CF92DF92EF92FF920F93A12CB12CCA
:1005B000C12CD12CE12CF12C082F20E030E045E5B6
:1005C00050E066E371E087EC92E0B5D50F91FF90C3
:1005D000EF90DF90CF90BF90AF90089580910F087B
:1005E000882319F08130C1F036C08091A0078111B5
:1005F00004C08091A107882359F081E080930F08FF
:1006000010929E07409A80910F08813039F1089529
:10061000409810920F08089580919E0790919F072F
:10062000891778F49091A007911104C09091A107C7
:10063000992339F08F5F80939E0781E080930F08A4
:100640000DC01092A007109206011092A1074098C9
:1006500010920F08089510920F08089580910601D6
:10066000882349F01092A007109206011092A1076A
:10067000409810920F08089510920F08AFDF81E0A4
:1006800090E0D1D7FBCFAF92BF92CF92DF92EF92A3
:10069000FF920F93A12CB12CC12CD12CE12CF12C69
:1006A000082F20E030E045E550E068E471E08CE39D
:1006B00093E041D50F91FF90EF90DF90CF90BF90E6
:1006C000AF90089580911308813069F018F082305E
:1006D00089F154C08091AC07882309F451C081E0AE
:1006E0008093130808958091AC07811103C0109284
:1006F0001308089503DE90939B0780939A07089749
:10070000ACF082E0809313088091AD07813039F41A
:1007100081E090E090939D0780939C07089582E08C
:1007200090E090939D0780939C07089581E08093CB
:1007300013080895E3DD90939B0780939A0703972E
:1007400024F48091AC07811115C081E080931308D7
:100750008091AD07813039F482E090E090939D075D
:1007600080939C07089581E090E090939D0780938B
:100770009C07089582E0809313080895109213084F
:100780000895109213089EDF84EF91E04CD7FBCFC1
:10079000AF92BF92CF92DF92EF92FF920F93A12C74
:1007A000B12CC12CD12CE12CF12C082F20E030E011
:1007B00045E550E065E571E081EC93E0BCD40F9134
:1007C000FF90EF90DF90CF90BF90AF900895809111
:1007D0001008882319F0813029F00BC088B18C6093
:1007E00088B907C08091AE07813011F4439801C0E9
:1007F000429880911008882319F0813041F00EC092
:100800008091AC07813061F4809310080895809145
:10081000AC07813029F0109210080895109210084A
:10082000089510921008D3DF8AE090E0FCD6FBCF49
:10083000AF92BF92CF92DF92EF92FF920F93A12CD3
:10084000B12CC12CD12CE12CF12C082F20E030E070
:1008500045E550E06DE671E081E194E06CD40F91E4
:10086000FF90EF90DF90CF90BF90AF900895809170
:100870001408882319F0813021F00CC010929907D8
:100880000EC0009904C081E08093990712C01092B5
:1008900099070FC0882319F08130A9F40AC080910C
:1008A000B007813019F48093140808951092140849
:1008B00008958091B007813019F480931408089549
:1008C00010921408089510921408089510921408B4
:1008D000CEDF8AE090E0A7D6FBCFAF92BF92CF9257
:1008E000DF92EF92FF920F93A12CB12CC12CD12C4F
:1008F000E12CF12C082F20E030E045E550E06AE7DC
:1009000071E086E694E017D40F91FF90EF90DF90AE
:10091000CF90BF90AF90089580910B08882319F075
:10092000823059F013C080919607909197070196F5
:1009300090939707809396070FC0029B04C081E0B5
:100940008093980725C01092980722C08130B1F09B
:1009500018F0823049F51CC0809196079091970756
:1009600080329E441CF410920B08089581E080931D
:100970000B08109297071092960708958091B00780
:100980008130A9F41092980782E080930B080895B3
:100990008091B007813021F482E080930B080895A4
:1009A00081E080930B08089581E080930B080895FF
:1009B00010920B08B1DF81E090E035D6FBCFAF920B
:1009C000BF92CF92DF92EF92FF920F93A12CB12CA6
:1009D000C12CD12CE12CF12C082F20E030E045E592
:1009E00050E066E871E088ED94E0A5D30F91FF90A8
:1009F000EF90DF90CF90BF90AF90089580910D0859
:100A0000833009F449C028F4882361F0813099F0DB
:100A100078C0853009F458C008F448C0863009F41D
:100A200063C06FC085B18F7085B985B1806F85B99E
:100A30001092AC0766C08091AA079091AB0701960F
:100A40008F3027E292072CF49093AB078093AA078C
:100A500004C01092AB071092AA078091AF078111D2
:100A600007C085E090E090930501809304010FC0DA
:100A7000813039F48AE090E090930501809304017D
:100A800006C08FE090E0909305018093040185B14A
:100A90008F7085B92C9A35C08091920790919307F9
:100AA000019690939307809392078CC085B18F70C5
:100AB00085B92D9A8091940790919507019690930E
:100AC0009507809394071DC085B18F7085B985B156
:100AD000806385B9809194079091950701969093D2
:100AE0009507809394070DC085B18F7085B92E9AB4
:100AF0008091940790919507019690939507809324
:100B00009407E0910D088E2F90E08730910508F052
:100B1000D5C0FC01EA5BFF4F5AC68091B007813017
:100B200009F0CCC080930D081092AC071092950785
:100B30001092940710929307109292071092AB07AD
:100B40001092AA0708958091B007811103C01092F6
:100B50000D08089580B190E0880F892F881F990BA8
:100B60009195892B41F082E080930D0810929307B4
:100B700010929207089580919807813009F09EC0E5
:100B800084E080930D08109295071092940780914D
:100B9000AA079091AB0782C608958091B007811192
:100BA00003C010920D08089580B190E0880F892F3E
:100BB000881F990B9195892B09F080C083E0809361
:100BC0000D0808958091B007811103C010920D089F
:100BD00008958091920790919307883893410CF47F
:100BE0006DC081E080930D0808958091B007811158
:100BF00003C010920D08089580919807813059F430
:100C000080919907882309F459C0813021F485E047
:100C100080930D08089510920D0808958091B007F3
:100C2000811107C0109295071092940710920D0839
:100C30000895409104015091050188EE93E0489F8A
:100C40009001499F300D589F300D112480919407D9
:100C500090919507821793073CF086E080930D08EA
:100C600081E08093AC07089580919807813031F13D
:100C700080919907813011F1109295071092940795
:100C800010920D0808958091B007811103C0109251
:100C90000D080895809194079091950780329E44A5
:100CA0006CF080919807811109C081E080930D0854
:100CB00010929507109294071092AC070895109225
:100CC0000D089CDE81E090E0AED4FBCFAF92BF92E6
:100CD000CF92DF92EF92FF920F93A12CB12CC12CF7
:100CE000D12CE12CF12C082F20E030E045E550E03C
:100CF00065E971E08FE596E01ED20F91FF90EF90CD
:100D0000DF90CF90BF90AF90089580910E08813012
:100D100061F580E0E1DA8093A90780FF04C081E0FB
:100D20008093B00720C01092B00781FF04C021E07B
:100D30002093AF0708C082FF04C022E02093AF07D2
:100D400002C01092AF0783FF04C021E02093AE07DA
:100D500002C01092AE0784FF04C081E08093AD070B
:100D600002C01092AD0780E09ADA80910E088823C5
:100D700019F010920E0808958091C00088231CF489
:100D800081E080930E08089510920E08BEDF8AE07D
:100D900090E049D4FBCFAF92BF92CF92DF92EF9217
:100DA000FF920F93A12CB12CC12CD12CE12CF12C52
:100DB000082F20E030E045E550E064EA71E084EC83
:100DC00096E0B9D10F91FF90EF90DF90CF90BF9058
:100DD000AF90089511B88FEF82B984B915B887B96B
:100DE00018B88CE088B980E038DA81E0D4DF81E09F
:100DF00074DD81E0E4DD81E069DF81E00EDB81E02C
:100E000073DB81E0C5DC81E0CADB81E03CDC81E0B2
:100E10000FDD92D280E090E0089531E1FC01308353
:100E2000319722E220833197A3E3A0833197608337
:100E30003197708331971082319760E860833197E2
:100E40001082319762E06083319763E0608331976D
:100E500064E06083319765E06083319766E060838A
:100E6000319767E06083319768E06083319769E08C
:100E70006083319760E1608331973083319732E14D
:100E80003083319733E13083319734E130833197C8
:100E900035E13083319736E13083319737E1308364
:100EA000319738E13083319739E13083319730E23F
:100EB0003083319731E2308331972083319723E2B9
:100EC00020833197408331975083319726E22083E6
:100ED000319727E22083319728E22083319729E256
:100EE0002083319720E32083319721E32083869765
:100EF0000895109289008CE7809388008BE080939E
:100F00008100EFE6F0E0808182608083A091090893
:100F1000B0910A08CD91CDBFDD91DEBFFF91EF9179
:100F2000DF91CF91BF91AF919F918F917F916F9101
:100F30005F914F913F912F911F910F91FF90EF90F3
:100F4000DF90CF90BF90AF909F908F907F906F90E9
:100F50005F904F903F902F901F900F900FBE0F907B
:100F6000089581E008950F920FB6F8940F921F92A2
:100F700011242F923F924F925F926F927F928F92A5
:100F80009F92AF92BF92CF92DF92EF92FF920F9318
:100F90001F932F933F934F935F936F937F938F9301
:100FA0009F93AF93BF93CF93DF93EF93FF93A09162
:100FB0000908B0910A080DB60D920EB60D9288D3AD
:100FC000A0910908B0910A08CD91CDBFDD91DEBF97
:100FD000FF91EF91DF91CF91BF91AF919F918F9151
:100FE0007F916F915F914F913F912F911F910F9141
:100FF000FF90EF90DF90CF90BF90AF909F908F9039
:101000007F906F905F904F903F902F901F900F9028
:101010000FBE0F9008950F920FB6F8940F921F9283
:1010200011242F923F924F925F926F927F928F92F4
:101030009F92AF92BF92CF92DF92EF92FF920F9367
:101040001F932F933F934F935F936F937F938F9350
:101050009F93AF93BF93CF93DF93EF93FF93A091B1
:101060000908B0910A080DB60D920EB60D9293D1F3
:101070002FD3A0910908B0910A08CD91CDBFDD9181
:10108000DEBFFF91EF91DF91CF91BF91AF919F9123
:101090008F917F916F915F914F913F912F911F9110
:1010A0000F91FF90EF90DF90CF90BF90AF909F9007
:1010B0008F907F906F905F904F903F902F901F90F8
:1010C0000F900FBE0F900895A6DF1895CF93DF9372
:1010D000EC01E0910908F0910A08938382838091E2
:1010E000B9079091BA07C817D90760F46091090849
:1010F00070910A088091CF079091D0076E5F7F4F63
:101100004BD816C06091090870910A088091D107E8
:101110009091D2076E5F7F4F3FD880910D019091E3
:101120000E01C817D90720F4D0930E01C0930D010A
:10113000DF91CF9108954F925F926F927F928F923D
:101140009F92AF92BF92CF92DF92EF92FF920F9356
:101150001F93CF93DF935C014B013A01290181E298
:1011600090E00E946C00EC01892B09F4D3C0C114FB
:10117000D10409F0CBC0C3010E946C00988F8F8B03
:10118000009721F4CE010E949200C4C0A30165EA39
:1011900070E08FD39301215031098F89988D3C01E4
:1011A000620E731E48E050E0B401CE01499688D328
:1011B00018A2102F043008F013E01E8B6E0182E09D
:1011C000C80ED11CC6010E94A100CE010C960E943F
:1011D000A100D987C88784E090E0811B91099D8791
:1011E0008C87DB8BCA8BA201B501C30116DE998304
:1011F0008883E114F10419F0F701D183C0830FB69D
:10120000F8940F928091BB078F5F8093BB0780910A
:10121000090890910A08892BA9F5D0930A08C09370
:1012200009088091BB078130E1F585EE97E00E94C7
:1012300093008EEE97E00E94930087EF97E00E9464
:10124000930080E098E00E9493008CED97E00E946C
:10125000930083ED97E00E94930086EC97E00E9454
:1012600093008DEB97E00E9493008CED97E09093B4
:10127000D2078093D10783ED97E09093D0078093B6
:10128000CF070FC08091B60781110BC0E09109080C
:10129000F0910A088689081720F0D0930A08C093B5
:1012A00009088E899091B807981710F48093B807B1
:1012B0009091B1079F5F9093B1079091B7079817EE
:1012C00010F48093B70790E09C01220F331F220F88
:1012D000331F220F331F820F931FB6018B51984F7C
:1012E0000E94A5000F900FBE8091B607882351F091
:1012F000E0910908F0910A088689801728F433DE06
:1013000081E009C081E007C081E005C0D88ECF8AA6
:10131000C6013CCF8FEFDF91CF911F910F91FF90CE
:10132000EF90DF90CF90BF90AF909F908F907F9085
:101330006F905F904F900895AF92BF92CF92DF92DF
:10134000EF92FF920F93A12CB12CC12CD12CE12C48
:10135000F12C00E020E030E045E550E06FEA71E07C
:101360008FE29BE0E8DE813041F4F8948093B60789
:101370001092BA071092B907BCDD0F91FF90EF9061
:10138000DF90CF90BF90AF9008958091B5078F5FA9
:101390008093B50708950F931F93CF93DF938091A8
:1013A000B5078111B2C08091B9079091BA07019633
:1013B0009093BA078093B9078091B9079091BA07C3
:1013C000892B99F58091D1079091D2072091CF0771
:1013D0003091D0073093D2072093D1079093D00754
:1013E0008093CF078091B2078F5F8093B207E0911F
:1013F000D107F091D2078081811107C08FEF9FEF55
:1014000090930E0180930D0110C0E091D107F091EF
:10141000D2070580F681E02D0680F781E02D8281DC
:10142000938190930E0180930D012091B907309123
:10143000BA0780910D0190910E012817390708F421
:1014400069C0E091D107F091D2078081882399F09B
:10145000E091D107F091D2070580F681E02DC68199
:10146000D7818A819B812091B9073091BA072817CB
:101470003907F8F419C08FEF9FEF90930E01809316
:101480000D0148C0E091D107F091D2070580F681A7
:10149000E02DC681D7818A819B812091B907309147
:1014A000BA072817390728F490930E0180930D018D
:1014B00031C08E010E5F1F4FC8010E9407018C8949
:1014C0009D89892B21F0CE010C960E9407018E89FF
:1014D0009091B707981710F48093B70790E09C019C
:1014E000220F331F220F331F220F331F820F931F30
:1014F000B8018B51984F0E94A500E091D107F0915F
:10150000D20780818111BECFB6CF8091B4078F5FA3
:101510008093B407DF91CF911F910F910895CF92DF
:10152000DF92EF92FF920F931F93CF93DF930FB64B
:10153000F8940F928091B50781508093B507809100
:10154000B507811162C08091BB07811132C060C0B4
:10155000D7011596ED91FC911697C681D781CE01E2
:101560000C960E9407018E010E5F1F4FC8010E945A
:1015700007018E899091B707981710F48093B707E9
:1015800090E09C01220F331F220F331F220F331FC5
:10159000820F931FB8018B51984F0E94A500E091D4
:1015A0000908F0910A089E898689981758F0DC2C62
:1015B00009C0D12C0F2EF6ECEF2EF7E0FF2EF02D08
:1015C000CC24C394F70180818111C2CF8091B407EC
:1015D000882379F08091B407882391F0DCDE809134
:1015E000B40781508093B4078091B4078111F6CF7E
:1015F00007C0F1E0DF1621F08091B307813039F4A4
:101600001092B307B0DC81E003C080E001C080E04D
:101610000F900FBEDF91CF911F910F91FF90EF9030
:10162000DF90CF900895CF93DF93EC01892B99F051
:10163000ACDE8091B9079091BA07C80FD91F80918D
:10164000090890910A0802960E940701CE013EDD2A
:1016500066DF811101C087DCDF91CF9108950F2EE5
:10166000FDEBEF2EF7E0FF2EF02DC5EED7E08091D9
:10167000BC07882341F189DED7011C9150DF11237B
:1016800011F10FB6F8940F92D7011596ED91FC91D8
:10169000169706811781C80102960E940701809162
:1016A000BB0781508093BB078091BC07815080931A
:1016B000BC070F900FBEF8018789908D0E949200A1
:1016C000C8010E9492008881823088F24CDCCFCF22
:1016D0008091B507811113C08091B70790E0FC019C
:1016E000EE0FFF1FEE0FFF1FEE0FFF1F8E0F9F1F4E
:1016F000FC01EB51F84F8081882329F01BC081E069
:101700008093B30708958091B70781508093B707FE
:101710008091B70790E0FC01EE0FFF1FEE0FFF1F57
:10172000EE0FFF1F8E0F9F1FFC01EB51F84F8081C2
:10173000882349F38091B70790E09C01220F331F63
:10174000220F331F220F331F280F391FD901AB512E
:10175000B84F1196ED91FC9112970280F381E02D24
:101760001296FC93EE9311972851384FE217F30726
:1017700029F422813381FD0132832183FC01EE0FA4
:10178000FF1FEE0FFF1FEE0FFF1F8E0F9F1FFC01AD
:10179000EB51F84F0180F281E02D86819781909383
:1017A0000A0880930908089597FB072E16F4009401
:1017B00006D077FD08D014D007FC05D03EF49095F4
:1017C00081959F4F0895709561957F4F0895EE0F15
:1017D000FF1F0024001C0BBE0790F691E02D09941A
:1017E000AA1BBB1B51E107C0AA1FBB1FA617B70747
:1017F00010F0A61BB70B881F991F5A95A9F7809563
:101800009095BC01CD0108958F929F92AF92BF92A7
:10181000CF92DF92EF92FF92CF93DF93EC0168813A
:1018200079818A819B81611571058105910521F47A
:1018300064E279ED8BE597E02DE133EF41E050E094
:101840004ED049015A019B01AC01A7EAB1E463D033
:101850006B017C01ACEEB4EFA501940168D0DC0112
:10186000CB018C0D9D1DAE1DBF1DB7FF03C00197A1
:10187000A109B04888839983AA83BB839F77DF91AE
:10188000CF91FF90EF90DF90CF90BF90AF909F905F
:101890008F900895B9CF80E091E0B6CFA0E0B0E09E
:1018A0008093000190930101A0930201B093030182
:1018B0000895DC0101C06D9341505040E0F7089558
:1018C000FB01DC014150504048F001900D92002096
:1018D000C9F701C01D9241505040E0F70895052E10
:1018E00097FB16F400940FD057FD05D024D007FCC9
:1018F00002D046F408C050954095309521953F4F51
:101900004F4F5F4F089590958095709561957F4FEB
:101910008F4F9F4F089531D0A59F900DB49F900D8C
:10192000A49F800D911D11240895B7FFF4CFF3DF1C
:10193000821B930B0895A1E21A2EAA1BBB1BFD016B
:101940000DC0AA1FBB1FEE1FFF1FA217B307E4079E
:10195000F50720F0A21BB30BE40BF50B661F771FF6
:10196000881F991F1A9469F76095709580959095D6
:101970009B01AC01BD01CF010895A29FB001B39FAF
:10198000C001A39F700D811D1124911DB29F700D88
:0C199000811D1124911D0895F894FFCFD3
:10199C000100000005000100040A050609FFFF4DC7
:1019AC006F746F725365635461736B0073746570FD
:1019BC007065725F636F6E74726F6C6C6572536579
:1019CC00635461736B00534552564F44524956450C
:1019DC005365635461736B00534552564F536563A3
:1019EC005461736B00736572766F5F636F6E7472A4
:1019FC006F6C6C65725365635461736B00417564F5
:101A0C00696F5365635461736B004245414D536577
:101A1C00635461736B00204D6F74696F6E53656313
:101A2C005461736B00436F6E74726F6C53656354C7
:101A3C0061736B005265635365635461736B00494A
:041A4C00444C4500C1
:00000001FF
