:1000000045C0000061C000005FC000005DC000008E
:100010005BC0000059C0000057C0000055C0000080
:1000200053C0000051C000004FC000004DC0000090
:100030004BC00000E4C7000047C0000045C00000FE
:1000400043C0000041C000003FC000003DC00000B0
:100050003BC0000039C0000037C0000035C00000C0
:1000600033C0000031C000002FC000002DC00000D0
:100070002BC0000029C0000027C0000025C00000E0
:1000800023C0000021C000001FC0000011241FBEBB
:10009000CFEFD0E4DEBFCDBF11E0A0E0B1E0E6EBF2
:1000A000F8E100E00BBF02C007900D92AA3AB10739
:1000B000D9F728E0AAEAB1E001C01D92A930B20741
:1000C000E1F725D60C94590C9BCFCF93DF93EC012D
:1000D0000E945B092091AA013091AB01C9018C0FEC
:1000E0009D1F8C3D45E0940758F42817390758F4B4
:1000F000E901C455DE4F9093AB018093AA0105C07E
:10010000C0E0D0E002C0C0E0D0E00E94250ACE01ED
:10011000DF91CF9108950895FC0103969283818326
:100120002FEF3FEF348323839683858390878783E4
:1001300010820895FC01118610860895CF93DF93F5
:10014000FC01DB0121813281E9018A819B811396C7
:100150009C938E9312978181928115969C938E9396
:1001600014978A819B81EC017D836C83E9017B83F9
:100170006A83728361831996FC93EE93189780814A
:100180008F5F8083DF91CF910895CF93DF93EB0151
:10019000488159814F3F2FEF520731F4DC01179608
:1001A000ED91FC91189717C0FC013396DC01159670
:1001B0002D913C911697D9012D913C9142175307EF
:1001C00050F00280F381E02DA281B3812D913C910A
:1001D00042175307B0F7A281B381BB83AA83159658
:1001E000DC93CE931497FD83EC83D383C2839987EA
:1001F0008887FC0120812F5F2083DF91CF910895B4
:10020000FC01A281B3818481958115969C938E9384
:100210001497A481B5818281938113969C938E93C8
:100220001297A085B18511968D919C911297E81730
:10023000F90731F48481958112969C938E931197DE
:10024000118610868C9181508C930895813081F0B5
:10025000E1ECF0E0808188618083E2ECF0E0808175
:100260008660808383E38093C4001092C500089564
:10027000E9ECF0E0808188618083EAECF0E0808145
:100280008660808383E38093CC001092CD00089534
:10029000813029F48091C800882374F008958091FA
:1002A000C00088238CF4A6ECB0E0E0ECF0E08C9188
:1002B00080818823E4F30895AEECB0E0E8ECF0E050
:1002C0008C9180818823E4F30895813041F0E0EC43
:1002D000F0E080818823ECF78091C6000895E8EC77
:1002E000F0E080818823ECF78091CE0008950E9491
:1002F000D80B6AE070E00C946A0B089580910608B0
:10030000813019F0823099F024C0E0919D07F0E02F
:10031000E75FFE4F808185B980919D07833019F496
:1003200010929D0716C08F5F80939D0712C0E091C9
:100330009D07F0E0E75FFE4F808185B980919D07C2
:10034000811104C083E080939D0703C08150809396
:100350009D0780910608813099F018F0823079F17C
:100360004AC080919807882309F447C081E08093B0
:10037000060810929D0710929C0710929B07089503
:1003800080919B0790919C07019690939C07809386
:100390009B0720910701309108018217930724F4ED
:1003A00081E080930608089582E08093060883E048
:1003B00080939D0710929C0710929B07089580914F
:1003C0009B0790919C07019690939C0780939B07B5
:1003D00020910701309108018217930724F482E0ED
:1003E0008093060808951092060881E0809397078D
:1003F0001092980708951092060808951092060822
:100400007DDF81E090E00E94A90AFACFAF92BF920F
:10041000CF92DF92EF92FF920F93A12CB12CC12CBF
:10042000D12CE12CF12C082F20E030E045E550E004
:1004300060E171E08EEF91E019D60F91FF90EF909F
:10044000DF90CF90BF90AF900895809107088130E2
:1004500061F018F0823011F135C08091A207882335
:1004600099F181E08093070808958091A207811196
:1004700003C01092070808953ADF90939A0780937B
:10048000990702973CF081E08093980782E080937F
:100490000708089581E080930708089580919707E1
:1004A000813091F48091A207813029F4109297074E
:1004B000809307080895811107C010929707109242
:1004C0000708089510920708089510920708BDDFE5
:1004D00084EF91E00E94A90AFACFAF92BF92CF9227
:1004E000DF92EF92FF920F93A12CB12CC12CD12C53
:1004F000E12CF12C082F20E030E045E550E06DE1E3
:1005000071E085E692E0B2D50F91FF90EF90DF9019
:10051000CF90BF90AF90089580910108811128C0BD
:1005200080919107909192078130910551F410923A
:1005300096071092060181E08093950780939407B7
:1005400019C0029759F481E0809396071092060132
:100550001092950782E0809394070CC01092960742
:100560001092950781E0809306011092940702C0D3
:10057000811103C010920108089510920108089596
:1005800010920108C9DF81E090E0E3D7FBCFAF9282
:10059000BF92CF92DF92EF92FF920F93A12CB12CDA
:1005A000C12CD12CE12CF12C082F20E030E045E5C6
:1005B00050E067E371E080EC92E058D50F91FF9036
:1005C000EF90DF90CF90BF90AF9008958091040896
:1005D000882319F08130A1F032C0809195078111F4
:1005E00004C080919607882339F010929307409AAF
:1005F00081E08093040830C0409810920408089568
:100600008091930790919407891778F490919507BA
:10061000911104C090919607992339F08F5F8093D0
:10062000930781E08093040817C0109295071092F9
:1006300006011092960740981092040808951092AF
:1006400004080895109295071092060110929607DB
:100650004098109204080895809106018111F2CF0C
:10066000089510920408B2DF81E090E072D7FBCFCA
:10067000AF92BF92CF92DF92EF92FF920F93A12C95
:10068000B12CC12CD12CE12CF12C082F20E030E032
:1006900045E550E069E471E081E393E0E7D40F9130
:1006A000FF90EF90DF90CF90BF90AF900895809132
:1006B0000808813069F018F0823089F154C08091C7
:1006C000A207882309F451C081E0809308080895A7
:1006D0008091A207811103C010920808089507DED7
:1006E0009093900780938F070897ACF082E08093F7
:1006F000080880910D01813039F481E090E09093F9
:10070000920780939107089582E090E0909392077A
:1007100080939107089581E0809308080895E7DDAC
:100720009093900780938F07039724F48091A207FA
:10073000811115C081E08093080880910D018130FE
:1007400039F482E090E090939207809391070895A6
:1007500081E090E09093920780939107089582E062
:1007600080930808089510920808089510920808C8
:100770009EDF84EF91E0EDD6FBCFAF92BF92CF9298
:10078000DF92EF92FF920F93A12CB12CC12CD12CB0
:10079000E12CF12C082F20E030E045E550E066E543
:1007A00071E086EB93E062D40F91FF90EF90DF90C1
:1007B000CF90BF90AF90089580910508882319F0DD
:1007C000813029F00BC088B18C6088B907C0809156
:1007D000A307813011F4439801C042988091050825
:1007E000882319F0813041F00EC08091A20781303A
:1007F00061F48093050808958091A207813029F063
:1008000010920508089510920508089510920508A1
:10081000D3DF8AE090E09DD6FBCFAF92BF92CF921C
:10082000DF92EF92FF920F93A12CB12CC12CD12C0F
:10083000E12CF12C082F20E030E045E550E06EE699
:1008400071E086E094E012D40F91FF90EF90DF907A
:10085000CF90BF90AF90089580910008882319F041
:10086000823059F013C080918C0790918D070196CA
:1008700090938D0780938C070FC0029B04C081E08A
:1008800080938E0725C010928E0722C08130B1F070
:1008900018F0823049F51CC080918C0790918D072B
:1008A00080329E441CF410920008089581E08093E9
:1008B000000810928D0710928C0708958091A5076B
:1008C0008130A9F410928E0782E080930008089589
:1008D0008091A507813021F482E08093000808957B
:1008E00081E080930008089581E0809300080895D6
:1008F00010920008B1DF81E090E02BD6FBCFAF92E1
:10090000BF92CF92DF92EF92FF920F93A12CB12C66
:10091000C12CD12CE12CF12C082F20E030E045E552
:1009200050E06BE771E088E794E0A0D30F91FF906F
:10093000EF90DF90CF90BF90AF9008958091020824
:10094000823009F449C028F4882361F0813099F09D
:1009500071C0843009F451C008F445C0853009F4F1
:100960005CC068C085B18F7085B985B1806F85B96D
:100970001092A2075FC080919F079091A0070196F7
:100980008F3027E292072CF49093A00780939F0763
:1009900004C01092A00710929F078091A4078111B4
:1009A00007C085E090E090930501809304010FC09B
:1009B000813039F48AE090E090930501809304013E
:1009C00006C08FE090E0909305018093040185B10B
:1009D0008F7085B92C9A2EC085B18F7085B985B17D
:1009E000806585B927C08091880790918907019615
:1009F00090938907809388078AC085B18F7085B9E5
:100A000085B1806385B980918A0790918B070196A3
:100A100090938B0780938A070DC085B18F7085B93D
:100A20002E9A80918A0790918B07019690938B075D
:100A300080938A0780910208823009F453C028F419
:100A4000882361F0813001F10895843009F472C087
:100A500008F45DC0853009F4B3C008958091A507FE
:100A6000813009F0C8C0809302081092A20710924A
:100A70008B0710928A0710928907109288071092AC
:100A8000A00710929F0708958091A507811103C0C8
:100A900010920208089580B190E0880F892F881F76
:100AA000990B9195892B61F08091A107813041F4D8
:100AB00082E08093020810928907109288070895B7
:100AC00080918E07813009F096C084E080930208FF
:100AD00010928B0710928A0780919F079091A00730
:100AE0006AC608958091A507811103C0109202087B
:100AF000089580B190E0880F892F881F990B9195F8
:100B0000892B09F078C083E08093020808958091D2
:100B1000A507811103C010920208089580918807EB
:100B200090918907883893410CF465C081E08093E7
:100B3000020808958091A507811107C010928B07C4
:100B400010928A0710920208089580B190E0880FF1
:100B5000892F881F990B9195892B61F08091A107AE
:100B6000813041F482E0809302081092890710924C
:100B700088070895409104015091050188EE93E0A3
:100B8000489F9001499F300D589F300D112480914E
:100B90008A0790918B07821793073CF085E080933A
:100BA000020881E08093A207089580918E0781302A
:100BB00011F110928B0710928A0710920208089583
:100BC0008091A507811103C01092020808958091B9
:100BD0008A0790918B07803395476CF080918E0740
:100BE000811109C081E08093020810928B07109256
:100BF0008A071092A2070895109202089FDE81E0F2
:100C000090E0A7D4FBCFAF92BF92CF92DF92EF924A
:100C1000FF920F93A12CB12CC12CD12CE12CF12CE3
:100C2000082F20E030E045E550E06AE871E08CEF05
:100C300095E01CD20F91FF90EF90DF90CF90BF9086
:100C4000AF90089580910308813061F580E03DDB2D
:100C500080939E0780FF04C081E08093A50720C099
:100C60001092A50781FF04C021E02093A40708C0CB
:100C700082FF04C022E02093A40702C01092A407C0
:100C800083FF04C021E02093A30702C01092A307B2
:100C900084FF04C081E08093A10702C01092A107E5
:100CA00080E0F6DA80910308882319F01092030897
:100CB00008958091C00088231CF481E0809303088C
:100CC000089510920308BEDF8AE090E042D4FBCF83
:100CD000AF92BF92CF92DF92EF92FF920F93A12C2F
:100CE000B12CC12CD12CE12CF12C082F20E030E0CC
:100CF00045E550E069E971E081E696E0B7D10F91F2
:100D0000FF90EF90DF90CF90BF90AF90089511B813
:100D10008FEF82B984B915B887B918B88CE088B953
:100D200080E094DA81E0D4DF81E0E9DD81E06BDF0F
:100D300081E06CDB81E0D1DB81E01FDD81E027DC3D
:100D400081E096DC81E069DD8DD280E090E008955D
:100D500031E1FC013083319722E220833197A3E314
:100D6000A0833197608331977083319710823197D8
:100D700060E8608331971082319762E06083319739
:100D800063E06083319764E06083319765E060835E
:100D9000319766E06083319767E06083319768E060
:100DA0006083319769E06083319760E160833197B8
:100DB0003083319732E13083319733E1308331979B
:100DC00034E13083319735E13083319736E1308338
:100DD000319737E13083319738E13083319739E10A
:100DE0003083319730E23083319731E2308331976D
:100DF0002083319723E220833197408331975083BA
:100E0000319726E22083319727E22083319728E229
:100E10002083319729E22083319720E32083319783
:100E200021E3208386970895109289008CE78093B0
:100E300088008BE080938100EFE6F0E080818260A3
:100E40008083A091FE07B091FF07CD91CDBFDD91CA
:100E5000DEBFFF91EF91DF91CF91BF91AF919F9155
:100E60008F917F916F915F914F913F912F911F9142
:100E70000F91FF90EF90DF90CF90BF90AF909F9039
:100E80008F907F906F905F904F903F902F901F902A
:100E90000F900FBE0F90089581E008950F920FB646
:100EA000F8940F921F9211242F923F924F925F92CB
:100EB0006F927F928F929F92AF92BF92CF92DF926A
:100EC000EF92FF920F931F932F933F934F935F9354
:100ED0006F937F938F939F93AF93BF93CF93DF9342
:100EE000EF93FF93A091FE07B091FF070DB60D920F
:100EF0000EB60D9283D3A091FE07B091FF07CD915E
:100F0000CDBFDD91DEBFFF91EF91DF91CF91BF911A
:100F1000AF919F918F917F916F915F914F913F9191
:100F20002F911F910F91FF90EF90DF90CF90BF9086
:100F3000AF909F908F907F906F905F904F903F9079
:100F40002F901F900F900FBE0F9008950F920FB625
:100F5000F8940F921F9211242F923F924F925F921A
:100F60006F927F928F929F92AF92BF92CF92DF92B9
:100F7000EF92FF920F931F932F933F934F935F93A3
:100F80006F937F938F939F93AF93BF93CF93DF9391
:100F9000EF93FF93A091FE07B091FF070DB60D925E
:100FA0000EB60D928ED12AD3A091FE07B091FF0705
:100FB000CD91CDBFDD91DEBFFF91EF91DF91CF915C
:100FC000BF91AF919F918F917F916F915F914F9161
:100FD0003F912F911F910F91FF90EF90DF90CF9055
:100FE000BF90AF909F908F907F906F905F904F9049
:100FF0003F902F901F900F900FBE0F900895A6DF87
:101000001895CF93DF93EC01E091FE07F091FF0775
:10101000938382838091AE079091AF07C817D90759
:1010200060F46091FE077091FF078091C407909172
:10103000C5076E5F7F4FA9D816C06091FE077091FB
:10104000FF078091C6079091C7076E5F7F4F9DD8BD
:1010500080910E0190910F01C817D90720F4D09309
:101060000F01C0930E01DF91CF9108954F925F92CF
:101070006F927F928F929F92AF92BF92CF92DF92A8
:10108000EF92FF920F931F93CF93DF935C014B017D
:101090003A01290181E290E018D8EC01892B09F48A
:1010A000CFC0C114D10409F0C7C0C3010ED8988FB6
:1010B0008F8B009719F4CE012ED8C2C0A30165EA28
:1010C00070E084D39301215031098F89988D3C01C0
:1010D000620E731E48E050E0B401CE0149967DD304
:1010E00018A2102F043008F013E01E8B6E0182E06E
:1010F000C80ED11CC6011ED8CE010C961BD8D987AC
:10110000C88784E090E0811B91099D878C87DB8BE9
:10111000CA8BA201B501C3011BDE99838883E11448
:10112000F10419F0F701D183C0830FB6F8940F9240
:101130008091B0078F5F8093B0078091FE079091F8
:10114000FF07892BA9F5D093FF07C093FE07809175
:10115000B0078130E1F58AED97E00E948C0083EEC4
:1011600097E00E948C008CEE97E00E948C0085EF47
:1011700097E00E948C0081ED97E00E948C0088EC43
:1011800097E00E948C008BEB97E00E948C0082EB32
:1011900097E00E948C0081ED97E09093C7078093C1
:1011A000C60788EC97E09093C5078093C4070FC0EB
:1011B0008091AB0781110BC0E091FE07F091FF0712
:1011C0008689081720F0D093FF07C093FE078E8909
:1011D0009091AD07981710F48093AD079091A607F2
:1011E0009F5F9093A6079091AC07981710F4809397
:1011F000AC0790E09C01220F331F220F331F220FF8
:10120000331F820F931FB6018652984F0E949E0093
:101210000F900FBE8091AB07882351F0E091FE073D
:10122000F091FF078689801728F438DE81E009C035
:1012300081E007C081E005C0D88ECF8AC6013ECFCD
:101240008FEFDF91CF911F910F91FF90EF90DF9083
:10125000CF90BF90AF909F908F907F906F905F9056
:101260004F900895AF92BF92CF92DF92EF92FF928C
:101270000F93A12CB12CC12CD12CE12CF12C00E02E
:1012800020E030E045E550E064EA71E085EC9AE06A
:10129000EDDE813041F4F8948093AB071092AF07F4
:1012A0001092AE07C1DD0F91FF90EF90DF90CF90CD
:1012B000BF90AF9008958091AA078F5F8093AA078F
:1012C00008950F931F93CF93DF938091AA07811105
:1012D000B2C08091AE079091AF0701969093AF078F
:1012E0008093AE078091AE079091AF07892B99F557
:1012F0008091C6079091C7072091C4073091C50718
:101300003093C7072093C6079093C5078093C407FF
:101310008091A7078F5F8093A707E091C607F091A0
:10132000C7078081811107C08FEF9FEF90930F0156
:1013300080930E0110C0E091C607F091C7070580A9
:10134000F681E02D0680F781E02D828193819093D4
:101350000F0180930E012091AE073091AF0780916D
:101360000E0190910F012817390708F469C0E09128
:10137000C607F091C7078081882399F0E091C607DE
:10138000F091C7070580F681E02DC681D7818A815B
:101390009B812091AE073091AF0728173907F8F4E9
:1013A00019C08FEF9FEF90930F0180930E0148C0FB
:1013B000E091C607F091C7070580F681E02DC68150
:1013C000D7818A819B812091AE073091AF07281782
:1013D000390728F490930F0180930E0131C08E01DC
:1013E0000E5F1F4FC8010E9400018C899D89892BC7
:1013F00021F0CE010C960E9400018E899091AC07DD
:10140000981710F48093AC0790E09C01220F331FD3
:10141000220F331F220F331F820F931FB8018652F2
:10142000984F0E949E00E091C607F091C707808107
:101430008111BECFB6CF8091A9078F5F8093A90796
:10144000DF91CF911F910F910895CF92DF92EF928C
:10145000FF920F931F93CF93DF930FB6F8940F92E1
:101460008091AA0781508093AA078091AA078111D1
:1014700062C08091B007811132C060C0D70115965B
:10148000ED91FC911697C681D781CE010C960E94F2
:1014900000018E010E5F1F4FC8010E9400018E895E
:1014A0009091AC07981710F48093AC0790E09C01E2
:1014B000220F331F220F331F220F331F820F931F60
:1014C000B8018652984F0E949E00E091FE07F0916D
:1014D000FF079E898689981758F0DC2C09C0D12C0B
:1014E0000F2EFBEBEF2EF7E0FF2EF02DCC24C39454
:1014F000F70180818111C2CF8091A907882379F0FB
:101500008091A907882391F0DCDE8091A9078150A2
:101510008093A9078091A9078111F6CF07C0F1E058
:10152000DF1621F08091A807813039F41092A807C6
:10153000B5DC81E003C080E001C080E00F900FBE09
:10154000DF91CF911F910F91FF90EF90DF90CF909F
:101550000895CF93DF93EC01892B99F0ACDE809155
:10156000AE079091AF07C80FD91F8091FE079091E9
:10157000FF0702960E940001CE0143DD66DF811164
:1015800001C08CDCDF91CF9108950F2EF2EBEF2E8E
:10159000F7E0FF2EF02DCAEDD7E08091B107882348
:1015A00041F189DED7011C9150DF112311F10FB6F3
:1015B000F8940F92D7011596ED91FC91169706813C
:1015C0001781C80102960E9400018091B0078150E6
:1015D0008093B0078091B10781508093B1070F903D
:1015E0000FBEF8018789908D0E948B00C8010E9470
:1015F0008B008881823088F251DCCFCF8091AA079E
:10160000811113C08091AC0790E0FC01EE0FFF1F29
:10161000EE0FFF1FEE0FFF1F8E0F9F1FFC01E65204
:10162000F84F8081882329F01BC081E08093A807B0
:1016300008958091AC0781508093AC078091AC07EE
:1016400090E0FC01EE0FFF1FEE0FFF1FEE0FFF1FDC
:101650008E0F9F1FFC01E652F84F8081882349F3CB
:101660008091AC0790E09C01220F331F220F331FA3
:10167000220F331F280F391FD901A652B84F1196D8
:10168000ED91FC9112970280F381E02D1296FC936C
:10169000EE9311972352384FE217F30729F4228172
:1016A0003381FD0132832183FC01EE0FFF1FEE0F1A
:1016B000FF1FEE0FFF1F8E0F9F1FFC01E652F84F1A
:1016C0000180F281E02D868197819093FF078093BE
:1016D000FE07089597FB072E16F4009406D077FDB9
:1016E00008D00BD007FC05D03EF4909581959F4F14
:1016F0000895709561957F4F0895AA1BBB1B51E11A
:1017000007C0AA1FBB1FA617B70710F0A61BB70B71
:10171000881F991F5A95A9F780959095BC01CD0116
:1017200008958F929F92AF92BF92CF92DF92EF92E5
:10173000FF92CF93DF93EC01688179818A819B814D
:10174000611571058105910521F464E279ED8BE560
:1017500097E02DE133EF41E050E04ED049015A01CE
:101760009B01AC01A7EAB1E463D06B017C01ACEE54
:10177000B4EFA501940168D0DC01CB018C0D9D1D57
:10178000AE1DBF1DB7FF03C00197A109B0488883F4
:101790009983AA83BB839F77DF91CF91FF90EF90CE
:1017A000DF90CF90BF90AF909F908F900895B9CF6A
:1017B00080E091E0B6CFA0E0B0E08093000190938C
:1017C0000101A0930201B09303010895DC0101C05F
:1017D0006D9341505040E0F70895FB01DC0141500A
:1017E000504048F001900D920020C9F701C01D92B1
:1017F00041505040E0F70895052E97FB16F40094F1
:101800000FD057FD05D024D007FC02D046F408C005
:1018100050954095309521953F4F4F4F5F4F08951C
:1018200090958095709561957F4F8F4F9F4F08954C
:1018300031D0A59F900DB49F900DA49F800D911D58
:1018400011240895B7FFF4CFF3DF821B930B0895A3
:10185000A1E21A2EAA1BBB1BFD010DC0AA1FBB1FB4
:10186000EE1FFF1FA217B307E407F50720F0A21B26
:10187000B30BE40BF50B661F771F881F991F1A9493
:1018800069F760957095809590959B01AC01BD01BD
:10189000CF010895A29FB001B39FC001A39F700D17
:1018A000811D1124911DB29F700D811D1124911D68
:0618B0000895F894FFCF3B
:1018B6000100000005000178000A05060901FFFF86
:1018C6004D6F746F725365635461736B0073746507
:1018D600707065725F636F6E74726F6C6C65725355
:1018E60065635461736B00534552564F44524956D3
:1018F600455365635461736B00534552564F5365A8
:10190600635461736B00736572766F5F636F6E7499
:10191600726F6C6C65725365635461736B004175CD
:1019260064696F5365635461736B00204D6F74690E
:101936006F6E5365635461736B00436F6E74726FA1
:101946006C5365635461736B0052656353656354EE
:0A19560061736B0049444C4500002A
:00000001FF
